:100000000C940D060C942A060C94F3190C942A06F1
:100010000C942A060C942A060C942A060C946C065E
:100020000C942A060C942A060C942A060C942A0690
:100030000C942A060C94840C0C944A0D0C942A06F9
:100040000C942A060C942A060C942A060C942A0670
:100050000C942A06AF19F219A719A3199F19A1190F
:10006000B519F219B119AD19A919A5193A19F21949
:10007000F219F219F219F219F219F2193D1985194A
:10008000F219F219F2196F195B1959193F198719E9
:10009000F219F219731971195D1941198B1989191E
:1000A000F219F2197F1975195F19451943198D193C
:1000B000F219F219791977196319611947198F190A
:1000C000F219F219F2197B19651949199119931945
:1000D000F219F2197D1967194B194D1983199519E0
:1000E000F219F2199919E51969196B194F1997192C
:1000F000F219F219F2196D19F21951193619F2198A
:10010000F2195719F219E3195319F2195519F2197D
:10011000F219F219F219F219F219F219F219381941
:10012000F219F2198519F2198B199119F219F219AC
:10013000F2198319991987198D198F199319811932
:10014000F219B3199D19891997199B199519F21963
:10015000F219F219F219F219AB19F219F219F2198E
:10016000F219F219F219F219F219F219F219F21937
:10017000F219F219F219F219F219F219F219F21927
:10018000F219F219F219F219F219F219F219F21917
:10019000F219F219F219F219F219F219F219F21907
:1001A000F219F219F219F219F219F219F219F219F7
:1001B000F219F219F219F219F219F219F219F219E7
:1001C000F219F219F219F219F219F219F219F219D7
:1001D000F219F219F219F219F219F219F219F219C7
:1001E000F219F219F219F219F219F219F219F219B7
:1001F000F219F219F219F219F219F219F219F219A7
:10020000F219F219F219F219F219F219F219F21996
:10021000F219B719F219F219F219F219F219F219C1
:10022000F219F219F219F219F219F219F219F21976
:10023000F219B9194572726F722039383A20446F39
:10024000736C6F206B65206B72E1746BE96D7520C8
:1002500076FD7061646B7520202020206E6170E156
:100260006A656EED2E204461746120756C6F7A654D
:100270006E612E2052657365742E000A20202020A6
:1002800000000000000000146F6B20200000000040
:100290000000004F6B2028456E746572290053746E
:1002A0006F726E6F202845736329004572726F72FA
:1002B00020313A20446F736C6F206B206368796241
:1002C000652076206B6F6E74726F6C6E696D0A7349
:1002D0006F7563747520707269207072696A6D75CC
:1002E000207A7072617679206E61206B617472750C
:1002F0002E200A4E656D75736920746F207A6E61C9
:100300006D656E6174207A61646E6520706F7469CA
:100310007A652E004572726F7220343A20436879F4
:100320006261204952430A527963686C65206F7498
:100330006F63656E6920495243206E61206B617462
:100340007275004572726F7220363A204368796286
:1003500061204952430A527963686C65206F746F5B
:1003600063656E6920495243206E6120766F7A6919
:100370006B75004572726F7220373A20506C6E6157
:10038000206F646573696C6163692066726F6E7457
:1003900061206E61206B617472752E0A4E656D75F9
:1003A000736920746F207A6E616D656E6174207A56
:1003B00061646E792070726F626C656D2E0045729B
:1003C000726F722031303A200A204445425547006E
:1003D0004572726F722031313A200A2044454255ED
:1003E000472032004572726F722038303A204368DD
:1003F000796261204C43440A5072656B726F636589
:100400006E6920726F7A736168750A4C434420707C
:100410006F206F647261646B6F76616E6900457204
:10042000726F722038313A204368796261204C4300
:10043000440A5465787420707265736168756A65E2
:100440000A6F6B72616A204C4344004572726F728E
:100450002038323A204368796261204C43440A5084
:100460006F636174656B2074657874750A6D696D6E
:100470006F20646973706C656A004572726F7220D8
:1004800038333A204368796261204952430A4F70F9
:1004900072617661206E61207265666572656E2E8E
:1004A0000A626F6465206F2076696365206E657AE5
:1004B0000A20313020636D004572726F722038342B
:1004C0003A200A4E656C7A65207A6168616A6974BF
:1004D000206D6572656E690A646F6B7564206E6568
:1004E0006E690A756B6F6E63656E6F2070726564FE
:1004F00063686F7A692E004572726F722038353AE0
:10050000204368796261206B6F6E7665727A652030
:10051000696E7432737472696E672E0A50726576F2
:100520006164656E65206369736C6F206A65207015
:1005300072696C697320646C6F7568652E0A446F0C
:100540006368617A69206B2070726574656B616E97
:1005500069207665207679706973752E0045727210
:100560006F722038363A20446F736C6F206B2063B3
:10057000687962652076206B6F6E74726F6C6E693D
:100580006D0A736F7563747520707269207072697B
:100590006A6D75207A70726176790A6E6120766F65
:1005A0007A696B752E0A4E656D75736920746F20BC
:1005B0007A6E616D656E6174207A61646E6520701B
:1005C0006F74697A652E004572726F722038373AFF
:1005D00020507269207072696A6D75207A7072613C
:1005E0007679206E610A766F7A696B752062796C14
:1005F00061206B6F6D756E696B616365207A6168F0
:10060000616A656E610A6E65737072766E796D20CF
:100610007A6E616B656D004572726F722038383A80
:10062000204E65646F73746174656B2070616D65D5
:100630007469004572726F722038393A200A50721C
:10064000656B726F63656E20726F7A736168207577
:100650006C6F7A6974656C6E652064656C6B792E5D
:100660000A4D6178696D616C6E6920756C6F7A698D
:1006700074656C6E612064656C6B61206A65203204
:10068000352E35206D004572726F722039303A2058
:100690000A5072656B726F63656E20726F7A736158
:1006A0006820756C6F7A6974656C6E65686F207010
:1006B00072756D6572752E0A4D6178696D616C6E2B
:1006C0006920756C6F7A6974656C6E7920707275CB
:1006D0006D6572206A652036332E3520636D0045C6
:1006E00072726F722039313A200A5072656B726FE4
:1006F00063656E61206D6178696D616C6E692064FF
:100700006F6261206F64657A7679206E61200A7A63
:1007100070726176752E004572726F722039323AAE
:10072000200A56206475736C65646B75206F646A6B
:10073000657A647520766F7A696B75206F64206BBB
:1007400061747275200A7365206E65706F646172E2
:10075000696C6F2070726F7665737420646F737448
:100760006174656B206D6572656E692E0A4E616DF0
:100770006572656E612064617461206D6F686F756C
:1007800020627974206E65707265736E612E00450B
:1007900072726F722039333A200A56206475736C76
:1007A00065646B75206F646A657A647520766F7A0C
:1007B000696B75206F64206B617472752C200A6EF2
:1007C0006562796C6F207A616A697374656E6F20F7
:1007D000646F73746174656B206461742E0A4D6577
:1007E00072656E69206A65207A727573656E6F2E08
:1007F000004572726F722039343A200A4A65206EC1
:1008000075746E65206E656A6472697665207A61BA
:10081000646174206A6D656E6F207A616B617A6EB7
:10082000696B612E004572726F722039353A205A19
:10083000616B617A6E696B61206E656C7A65206FA1
:1008400064737472616E69742E200A42796C6F2031
:1008500070726F206E656A206A697A206E616D65BC
:1008600072656E6F206E656B6F6C696B206B6D656A
:100870006E752E0A50726564206F64737472616EB7
:10088000656E696D206A65206E75746E6520746191
:10089000746F206D6572656E690A736D617A61743B
:1008A0002E004572726F722039363A200A446F73F7
:1008B0006C6F206B20707265706C6E656E69206F56
:1008C000646573696C616369686F206275666665EB
:1008D0007275200A736572696F7665686F206B6147
:1008E0006E616C75206E61206B617472752E204E86
:1008F000656D75736920746F200A7A6E616D656E1F
:100900006174207A61646E6520706F74697A652EF7
:10091000004572726F722039393A200A506F6B7538
:1009200073206F206D6572656E69207072696C69E5
:1009300073206B7261746B65686F206B6D656E758B
:100940002E0A4E656A6B7261747369206D657269F7
:1009500074656C6E79206B6D656E206A6520326DF2
:100960002E000A20202020202020202020202020AF
:1009700044617461206F6465736C616E612E0070F8
:1009800072617A646E65004D6572656E69207A6188
:1009900068616A656E6F005A6D6572656E6120648C
:1009A000656C6B612020005A6D6572656E792070F0
:1009B00072756D65722000200A20204F707261767A
:1009C0006475206F64737472616E6974206A6D65FA
:1009D0006E6F207A652073657A6E616D753F005A7F
:1009E000616B7A0044726576004F706572004461F5
:1009F00074610044656C6B61007072756D5F7600A8
:100A00007072756D5F68004F6272617A6F766B61AC
:100A1000206D6572656E693A20463130202D205A6E
:100A20006168616A656E69206D6572656E690A4606
:100A30003131202D20556C6F7A6974206D65726597
:100A40006E690A546162202D20506F6C6F7A6B6161
:100A50002C204D657A6572202D20486F646E6F746E
:100A60006120706F6C6F7A6B790A456E74657220C5
:100A70002D2053657A6E616D0053657A6E616D3A13
:100A800020456E746572284F4B29202D20567962BF
:100A900065722F766C6F7A656E69206A6D656E611E
:100AA0000A457363285A525553495429202D205A18
:100AB0007065740053657A6E616D206D6572656E48
:100AC000693A200A456E746572284F4B29202D2003
:100AD0005570726176697420726164656B00436859
:100AE00079626F7661206F6272617A6F766B613ABC
:100AF000200A456E746572284F4B292C204573637C
:100B0000285A525553495429202D206F6463686F29
:100B10006400536D726B00426F724B00426F724201
:100B20000042756B20004475622000310032007372
:100B3000616D6F007061736F006D616E00200A203F
:100B4000204F7072617664752063686365746520F8
:100B50006F64737472616E6974206D6572656E691D
:100B60003F005072617A646E6500200A20204F7049
:100B70007261766475206F64737472616E6974203B
:100B80006A6D656E6F207A652073657A6E616D752A
:100B90003F004572726F722039373A2056617A6E83
:100BA0006120636879626120626568752070726F88
:100BB0006772616D752E20202020556B6C61646119
:100BC0006E69206461742E004572726F722039372D
:100BD0003A204461746120756C6F7A656E612E20D5
:100BE00052657365742E006B5F6972635F6B2020C2
:100BF00020202020202020202020206C6973746178
:100C00000A6B5F6972635F6C0A765F6972635F6B20
:100C10000A765F6972635F6C000011241FBECFE526
:100C2000D8E0DEBFCDBF11E0A0E6B0E0ECEFF9E622
:100C300002C005900D92A432B107D9F716E0A4E2E4
:100C4000B1E001C01D92A132B107E1F70E94E206B6
:100C50000C94FD340C94000089E08EBD80E189BFC6
:100C600081E08BBD84EF8ABD0895CF93DF930E940E
:100C7000462BEC01892B19F488E50E94BC17CE01A4
:100C8000DF91CF9108958BE090E00E943506FC0142
:100C900086E1808381E08183CF010E94BE0B0895AD
:100CA0000F931F93CF93DF938C010E944F2C0196DB
:100CB0000E94462B009731F488E50E94BC17C0E0E3
:100CC000D0E004C0EC01B8010E94482CCE01DF91B5
:100CD000CF911F910F9108951F920F920FB60F920F
:100CE00011242F933F934F935F936F937F938F9331
:100CF0009F93AF93BF93EF93FF93809124019091C3
:100D00002501019690932501809324010E94A00E55
:100D10000E94D829FF91EF91BF91AF919F918F9140
:100D20007F916F915F914F913F912F910F900FBEE7
:100D30000F901F90189580B38695869580FD41C0D1
:100D40000E94121020E0E0EDF7E001C020E0CF01AA
:100D50000197F1F7A89580B38695869580FFF6CF29
:100D60002F5F2630A0F31092F6011092F50120E0DB
:100D700030E0A89580ED97E00197F1F72F5F3F4FA6
:100D800081E0243F3807A9F71092F6011092F5018F
:100D900081E00E94091184E392E00E94E51020E0C6
:100DA00030E0A89580ED97E00197F1F72F5F3F4F76
:100DB00083E128383807A9F71092F6011092F5015F
:100DC000FFCF089520E0E0EDF7E0CF010197F1F7C4
:100DD0002F5F283CD1F70E942C0680E884BB15BA0F
:100DE00082BB0E94540E0E9463120E9455100E9402
:100DF00021170E945B1A0E94212983E390E00E9440
:100E0000480B0E94CA2978940E94430680912401CD
:100E100090912501069760F00E9420111092250103
:100E2000109224010E94F4160E94641A0E94040C7D
:100E30000E9428290E94E20A0E949B061092F60155
:100E40001092F501A895E2CFEF92FF920F931F93B6
:100E5000CF93DF93EC01E0E0F0E0EE24FF24870184
:100E6000262F332709C089919991AA27BB27E80E1D
:100E7000F91E0A1F1B1F3196E217F307A4F3262F52
:100E8000332744275527C801B7010E947234DA017D
:100E9000C901DF91CF911F910F91FF90EF900895BD
:100EA0002F923F924F925F926F927F928F929F927A
:100EB000AF92BF92CF92DF92EF92FF920F931F9368
:100EC000CF93DF93CDB7DEB72A970FB6F894DEBF86
:100ED0000FBECDBF2C014B01742E21E0241728F04A
:100EE00060E070E080E090E0C0C01B01AA24BB2459
:100EF0000F2EF0E0CF2EF0E0DF2EF0E0EF2EF0E04E
:100F0000FF2EF02D21C0F10100811181B801882749
:100F100077FD8095982F0E947D3317FF06C020E053
:100F200030E040E857E40E94D8329B01AC01C70191
:100F3000B6010E94D8326B017C010894A11CB11C3F
:100F400022E030E0220E331E872D992798878F8369
:100F5000A816B906C1F6FC01BF01882777FD809568
:100F6000982F0E947D339B01AC01C701B6010E94FE
:100F70001A336B837C838D839E8314015A86498642
:100F80001A8219820F2EF0E04F2EF0E05F2EF0E073
:100F90006F2EF0E07F2EF02D5301420158C0F10179
:100FA00000811181B801882777FD8095982F0E94D4
:100FB0007D3317FF06C020E030E040E857E40E9490
:100FC000D8322B813C814D815E810E94D7326B01EA
:100FD0007C01E985FA8500811181B801882777FDB8
:100FE0008095982F0E947D3317FF06C020E030E0E7
:100FF00040E857E40E94D8329B01AC01C701B6011A
:101000000E94F7339B01AC01C301B2010E94D832A8
:101010002B013C01A7019601C701B6010E94F733DD
:101020009B01AC01C501B4010E94D8324B015C01A7
:1010300029813A812F5F3F4F3A83298382E090E0F4
:10104000280E391EE985FA853296FA87E9872981C3
:101050003A818F819885281739070CF4A0CFA50114
:101060009401C301B2010E941A332A960FB6F89474
:10107000DEBF0FBECDBFDF91CF911F910F91FF90CB
:10108000EF90DF90CF90BF90AF909F908F907F9028
:101090006F905F904F903F902F9008953F924F92A6
:1010A0005F926F927F928F929F92AF92BF92CF92F8
:1010B000DF92EF92FF920F931F93CF93DF93CDB701
:1010C000DEB726970FB6F894DEBF0FBECDBF342E25
:1010D00009831A832B833C83442329F460E070E066
:1010E00080E090E07EC07B019E838D834424552464
:1010F0000F2EF0E06F2EF0E07F2EF0E08F2EF0E06C
:101100009F2EF02D6401530141C0F7010081118130
:10111000B801882777FD8095982F0E947D3317FFAF
:1011200006C020E030E040E857E40E94D8329B013E
:10113000AC01C401B3010E94D8323B014C01ED81E6
:10114000FE8100811181B801882777FD8095982F55
:101150000E947D3317FF06C020E030E040E857E4EE
:101160000E94D8329B01AC01C601B5010E94D83261
:101170005B016C010894411C511C82E090E0E80E78
:10118000F91EED81FE813296FE83ED83832D992732
:101190004816590609F0B9CFB201882777FD809526
:1011A000982F0E947D337B018C019B01AC01C6010D
:1011B000B5010E941A335B016C01A8019701C401BB
:1011C000B3010E941A339B01AC0169817A818B8142
:1011D0009C810E94F7339B01AC01C601B5010E94BE
:1011E000D73226960FB6F894DEBF0FBECDBFDF9183
:1011F000CF911F910F91FF90EF90DF90CF90BF9014
:10120000AF909F908F907F906F905F904F903F90A6
:1012100008952F923F924F925F926F927F928F929A
:101220009F92AF92BF92CF92DF92EF92FF920F9375
:101230001F93CF93DF93CDB7DEB728970FB6F894FF
:10124000DEBF0FBECDBFE09060004E2D6DE471E0BB
:101250008DE291E00E9450071B012C018B019C0143
:101260004E2D6DE471E08DE291E00E944E086D8399
:101270007E838F8398870091260110912701B80102
:10128000882777FD8095982F0E947D3317FF06C031
:1012900020E030E040E857E40E94D83220E030E01F
:1012A00040E05FE30E94F7339B01AC01C201B10152
:1012B0000E94F7332D813E814F8158850E94D8329C
:1012C0000E9460337093F7026093F6024E2D6DE436
:1012D00071E08DE391E00E9450075B016C018B018E
:1012E0009C014E2D6DE471E08DE391E00E944E086B
:1012F00069837A838B839C83009126011091270157
:10130000B801882777FD8095982F0E947D333B0197
:101310004C0117FF08C020E030E040E857E40E948D
:10132000D8323B014C0120E030E040E05FE3C401F3
:10133000B3010E94F7337B018C019B01AC01C60114
:10134000B5010E94F7335B016C0129813A814B8121
:101350005C810E94D8320E946033709331026093A6
:101360003002A8019701C201B1010E94F7332D811B
:101370003E814F8158850E94D832A60195010E9476
:10138000D83229813A814B815C810E94D83220E099
:1013900030E040E05FE30E94F7330E9460337093D7
:1013A000290160932801669F8001679F100D769F39
:1013B000100D1124B801882777FD8095982F0E9481
:1013C0007D3317FF06C020E030E040E857E40E947C
:1013D000D83226E53EE049E450E40E94F73320E0AD
:1013E00030E543EC58E40E941A33A40193010E94B3
:1013F000F7330E94603370932B0160932A0183E0DE
:1014000080932C011092600028960FB6F894DEBFEE
:101410000FBECDBFDF91CF911F910F91FF90EF9045
:10142000DF90CF90BF90AF909F908F907F906F9004
:101430005F904F903F902F90089510922C01109242
:10144000600008952F923F924F925F926F927F9229
:101450008F929F92AF92BF92CF92DF92EF92FF92C4
:101460000F931F93CF93DF93CDB7DEB724970FB6BB
:10147000F894DEBF0FBECDBF0E945E0E9C838B83AF
:101480009093270180932601893C910508F46CC054
:1014900010926000222433248DE491E09A838983A2
:1014A0004424552432010B811C8102531040B801A1
:1014B000882777FD8095982F0E947D336B017C01F2
:1014C00017FF08C020E030E040E857E40E94D8321F
:1014D0006B017C01C301B2010E947D3325E239E436
:1014E00042E15EEB0E94F7334B015C010B811C81F2
:1014F000085C1040B801882777FD8095982F0E94DE
:101500007D3317FF06C020E030E040E857E40E943A
:10151000D8329B01AC01C501B4010E94F7339B0195
:10152000AC01C701B6010E94D8320E946033E98144
:10153000FA8161937193FA83E9830894211C311C29
:101540000894411C511C611C711CF8E02F163104D9
:1015500009F0A9CF82E080932C018B819C8190932C
:1015600062008093610007C083E60E94BC1710925E
:101570002C011092600024960FB6F894DEBF0FBEC7
:10158000CDBFDF91CF911F910F91FF90EF90DF9032
:10159000CF90BF90AF909F908F907F906F905F9013
:1015A0004F903F902F90089580912C01882311F047
:1015B000833021F481E080932C01089584E50E941A
:1015C000BC170895CF93DF9380912C01813021F0D7
:1015D000823009F05AC00AC080912E0290912F02E9
:1015E0000B9708F452C00E94220A4FC00E945E0E60
:1015F000EC018091610090916200C817D90728F42E
:10160000D0936200C093610019C09E01281B390B62
:101610002333310598F080916000823040F48DE5ED
:101620000E94BC1710922C011092600007C08430F9
:1016300018F48CE50E94BC170E94090920916000F3
:10164000A22FBB27AA0FBB1FFD01E35BFE4F8081CA
:101650009181C817D907C8F4FD01E35DFE4F809161
:10166000F4029091F50291838083A35CBE4F809138
:101670002E0290912F028D939C93822F8F5F8093E7
:101680006000883011F40E940909DF91CF9108951C
:10169000292F332720BD89B988E98AB98EE880BD12
:1016A000EAE2F3E0119283E0EC33F807D9F7E3E0E4
:1016B000F3E0119283E0E531F807D9F78C9A0895A9
:1016C000EF92FF920F931F93CF93DF938C01FC0156
:1016D00080818F3FF1F4E801EE24FF242A818B8181
:1016E0002827C70162E070E00E945F34635FF80161
:1016F000E60FF11D8081281761F482E090E0E80E8A
:10170000F91E22969AE0E916F10441F781E090E093
:1017100002C080E090E0DF91CF911F910F91FF9088
:10172000EF900895E0915E01F0915F01309769F0CC
:1017300010925F0110925E01099510926101109262
:10174000600110926401109263010895E0916301B9
:10175000F09164010995109261011092600110925C
:101760005F0110925E01109264011092630108956E
:10177000FC01E65DFC4F808199270895CF93DF93AC
:10178000EC0140916700509168008FEF4F3F580780
:1017900051F41092680010926700D0931603C09322
:1017A0001503559A2EC0A5E1B3E09881ED91FC9107
:1017B00011978081891729F1129683E0AF31B8071C
:1017C000A9F74430510571F09A010FC0F901EE0FED
:1017D000FF1FEB5EFC4F80819181892B61F02430EB
:1017E000310519F420E030E002C02F5F3F4F24178D
:1017F000350761F703C0D183C08303C080E60E9430
:10180000BC17DF91CF91089580915E0190915F01A7
:10181000892B69F18091600190916101019690930B
:101820006101809360018958934108F180916201C0
:101830008823D9F08BE090E00E9435069C01DC0102
:10184000E6E6F1E081918D9381E0E137F807D1F789
:10185000C9010E94BE0B8091620181508093620198
:10186000109261011092600108950E94A60B0895E4
:10187000CF93DF93EC01DC01E6E6F1E08D918193FB
:1018800081E0E137F807D1F7109261011092600111
:101890006093620150935F0140935E013093640155
:1018A00020936301CE010E94BE0BDF91CF9108957A
:1018B0000F931F93CF93DF938C018BE090E00E94F6
:1018C000462BEC01009721F488E50E94BC1708C064
:1018D0004BE050E0B8010E943F2CCE010E94BE0BAD
:1018E000DF91CF911F910F910895EBE2F3E0AFE10B
:1018F000B3E081918D9383E0E633F807D1F78FE170
:1019000093E00E94A80D08951F920F920FB60F92B8
:1019100011242F933F934F935F936F937F938F93F4
:101920009F93AF93BF93CF93DF93EF93FF939CB1BC
:10193000EAE2F3E08181819383E0EB33F807D1F7AA
:1019400090933B03809165018F5F80936501EF0168
:101950006197CE010E94600B019751F40E94750CB3
:10196000FE01119283E0EC33F807D9F7109265017C
:1019700080912A038F3F39F480916501833118F0FB
:1019800086E50E94BC17FF91EF91DF91CF91BF9147
:10199000AF919F918F917F916F915F914F913F9107
:1019A0002F910F900FBE0F901F9018950F931F93BC
:1019B000CF93DF939C018FEF80930303D901E4E081
:1019C000F3E08D91819383E0EF30F807D1F78091B8
:1019D0000303F9019081892780930F03E90100E057
:1019E00010E0C80162E070E00E945F34FB01ED5F2F
:1019F000FC4F89819A81892785870E5F1F4F229628
:101A00000A30110571F7C9010E94E92BDF91CF91CE
:101A10001F910F910895E0916700F09168008FEF9A
:101A2000EF3FF807B1F1EE0FFF1FEB5EFC4F808137
:101A300091810E94D60C8091670090916800FC0112
:101A4000EE0FFF1FEB5EFC4F1182108210926600BA
:101A5000109265008430910529F41092680010926C
:101A6000670005C001969093680080936700E0913D
:101A70006700F0916800EE0FFF1FEB5EFC4F808166
:101A80009181892B31F48FEF9FEF909368008093C1
:101A9000670008951F920F920FB60F9211242F9393
:101AA0003F934F935F936F937F938F939F93AF93E6
:101AB000BF93EF93FF9320916500309166008FEF05
:101AC0002F3F380751F40E940B0D20916500309193
:101AD00066008FEF2F3F380749F12231310569F059
:101AE000F901ED5FFC4F80818CB9C901019690939B
:101AF0006600809365004297D1F4809169009091CF
:101B00006A00009731F0019790936A008093690012
:101B10000EC084EF91E090936A00809369008FEF8C
:101B20009FEF909366008093650001C05598FF91E8
:101B3000EF91BF91AF919F918F917F916F915F9145
:101B40004F913F912F910F900FBE0F901F901895BE
:101B5000CF93DF93EC0188818F3009F445C0803149
:101B600070F4873009F1883020F4843009F094C093
:101B700019C08A30E9F08E3009F08EC020C084315F
:101B800009F468C0853138F4803109F449C08131E5
:101B900009F082C051C08A3109F460C0803409F074
:101BA0007BC060C084E001C087E00E94BC1774C0A5
:101BB0000E9412108BE792E00E94580C10C089819D
:101BC0009927982F88272A81820F911D0E94A00FA4
:101BD0000E944F0EBC0184E090E00E94C40F87E891
:101BE00092E00E94580C58C069817727762F6627AB
:101BF000882777FD8095982F2A81620F711D811D9E
:101C0000911D0E945E0F40916B0050916C0060919D
:101C10006D0070916E0086E090E00E94F20FDFCFC1
:101C20008BE090E00E94462BDC01FE012BE001904E
:101C30000D922150E1F70BC08BE090E00E94462B03
:101C4000DC01FE012BE001900D922150E1F70E9492
:101C5000BE0BC5CFCE010E94920B1EC0898180931E
:101C6000B8001AC08A819927982F88272981820F66
:101C7000911D9093F5028093F4028091B800813019
:101C800059F48C819927982F88272B81820F911DD9
:101C900090932F0280932E02DF91CF91089580912F
:101CA0006F0090917000089582B3806E82BB80B304
:101CB00082958695877080933C030895CF92DF923A
:101CC000EF92FF920F931F936091780170917901C9
:101CD00080917A0190917B0197FF04C060E070E0F1
:101CE00080E090E00E947D3327E137EB41ED58E33F
:101CF0000E94F7336B017C0100916F00109170001E
:101D0000B801882777FD8095982F0E947D3317FFB3
:101D100006C020E030E040E857E40E94D8329B0142
:101D2000AC01C701B6010E94F7330E946033DC01A9
:101D3000CB011F910F91FF90EF90DF90CF9008950E
:101D4000BF92CF92DF92EF92FF920F931F93B0B2A8
:101D5000B694B694B694B694B69400913C030B2511
:101D60002B2D26952B252170802F9927837090701D
:101D70008230910581F083309105A1F10197A9F599
:101D80008091780190917901A0917A01B0917B01C5
:101D90002223C9F00AC08091780190917901A09125
:101DA0007A01B0917B01222371F40197A109B10955
:101DB0008093780190937901A0937A01B0937B018D
:101DC00010927C0112C00196A11DB11D8093780173
:101DD00090937901A0937A01B0937B0181E0809385
:101DE0007C0103C086E00E94BC17802F86958695F3
:101DF00080FF5AC080917C01813009F055C08B2D45
:101E00008695869509F050C080916B0090916C008A
:101E1000A0916D00B0916E00209178013091790110
:101E2000AC01421B530B9A01809378019093790186
:101E3000A0937A01B0937B0157FF03C030952195A1
:101E40003F4FB901882777FD8095982F0E947D33F9
:101E500027E137EB41ED58E30E94F7336B017C013A
:101E600000916F0010917000B801882777FD809570
:101E7000982F0E947D3317FF06C020E030E040E835
:101E800057E40E94D8329B01AC01C701B6010E9401
:101E9000F73320E030E040E251E40E948A33181624
:101EA0001CF483E50E94BC17B0923C031F910F9174
:101EB000FF90EF90DF90CF90BF900895CF92DF9288
:101EC000EF92FF920F931F930E947D336B017C0171
:101ED00000916F0010917000B801882777FD809500
:101EE000982F0E947D3317FF06C020E030E040E8C5
:101EF00057E40E94D8329B01AC0160E070E08AE7B1
:101F000094E40E941A339B01AC01C701B6010E9400
:101F1000F7330E946033AB01BC0140936B005093D8
:101F20006C0060936D0070936E0084E090E00E94FE
:101F3000F20F1F910F91FF90EF90DF90CF900895D7
:101F400029E130E0AC01429FC001439F900D529FB8
:101F5000900D11246CE070E00E944B34709370007F
:101F600060936F0084E090E00E94C40F0895DC014C
:101F7000E199FECF062E0E94A6340895DC010E944E
:101F80009434802D99270895DC01E199FECF0B014F
:101F90000E94B2340895DC010E94A134CF0108955B
:101FA000CF93DF93CDB7DEB724970FB6F894DEBF9B
:101FB0000FBECDBF19821A821B821C8224E0FE0153
:101FC0003196DC01122E0E949C3469817A818B81CA
:101FD0009C8124960FB6F894DEBF0FBECDBFDF9173
:101FE000CF910895CF93DF93CDB7DEB724970FB687
:101FF000F894DEBF0FBECDBFDC0149835A836B83EB
:102000007C83E199FECF84E0FE013196182E0E9478
:10201000B73424960FB6F894DEBF0FBECDBFDF9164
:10202000CF910895A8958FEF9FEF9093F60180933D
:10203000F50188E10FB6F89481BD11BC0FBE409147
:1020400078015091790160917A0170917B0180E073
:1020500090E00E94F20F8091B800E199FECFAAE0D3
:10206000B0E0082E0E94A634E199FECF8FE3ABE0EA
:10207000B0E0082E0E94A6340E94A81D84E893E0D8
:102080000E9431168CE990E00E94101688E190E0E1
:102090002FE00FB6F894A89581BD0FBE21BD109218
:1020A000F6011092F501A895089580E090E00E9455
:1020B000D00F609378017093790180937A019093A7
:1020C0007B01A4E0B0E00E94A134F0937000E093A3
:1020D0006F0086E090E00E94D00F60936B007093D9
:1020E0006C0080936D0090936E00ABE0B0E00E94B6
:1020F0009434802D8F3381F4AAE0B0E00E949434B0
:10210000802D8093B80084E893E00E9491158CE9BB
:1021100090E00E94F315089580E591E00E94A00FE1
:102120006CEC70E180E090E00E945E0F0E949B14D6
:10213000089520E030E08091760090917700049738
:1021400011F421E030E0C901089520E030E092E090
:10215000892F8A95F1F72F5F3F4F2A3F3105C1F74D
:102160000895BC0140E050E00DC080E280832F5F05
:102170003F4FB89624303105C1F74F5F5F4F48326B
:10218000510531F0FB01E40FF51F20E030E0EDCF09
:10219000089582E392E00E94B11008951F93182FD2
:1021A0000E94A5101BBB88B3887F856088BB0E94F6
:1021B000A51088B3887F816088BB0E94A51088B372
:1021C000887F856088BB1F910895CF93DF93EC01D2
:1021D00002C00E94CE10FE01849121968823C9F787
:1021E000DF91CF910895FC01683271058CF404975A
:1021F0007CF488E290E09F01289FF001299FF00D78
:10220000389FF00D1124EE5CFD4FE60FF71F408361
:1022100008958BBB88B3887F866088BB80E29EE48C
:10222000FC013197F1F728B3287F28BBFC013197D7
:10223000F1F728B3287F266028BB0197F1F70895AE
:10224000E0917600F091770020917D0130917E0140
:10225000E430F10521F52130310561F022303105FE
:1022600069F02115310579F482E08BBB88B3887F52
:10227000866002C088B3887F88BB46C088B3887FE9
:10228000876088BB03C022303105F1F510927E01D2
:1022900010927D011092800110927F015AC021306E
:1022A0003105F9F02230310541F12115310549F5AB
:1022B00088E290E0AF01489FF001499FF00D589FE0
:1022C000F00D112480912C0290912D02E80FF91F3E
:1022D00080917F0190918001E80FF91F80818BBB75
:1022E0000CC0E230F10524F488B3887F836003C01A
:1022F00088B3887F856088BB0EC088B3887F87607D
:10230000BBCF2130310539F02F5F3F4F30937E0135
:1023100020937D01089510927E0110927D0180919D
:102320007F01909180018732910534F4019690935A
:10233000800180937F0108951092800110927F01A7
:10234000E430F10534F43196F0937700E0937600B1
:102350000895109277001092760008950F931F93BE
:10236000CF93DF939C018B01DA01683271050CF089
:1023700041C004970CF03EC0FA014491C0E0D0E0A7
:1023800060E070E088E290E0FC012E9FC0012F9F8A
:10239000900D3E9F900D11248E5C9D4F1CC0E80F48
:1023A000F91F40832196FD01EC0FFD1F44914A3037
:1023B00081F42F5F3F4F88962196FD01EC0FFD1FA2
:1023C0004491243031051CF460E070E004C080E5E5
:1023D00012C06F5F7F4F442331F0F801E60FF71F03
:1023E000E832F105E4F2600F711F693271052CF0DB
:1023F00081E501C082E50E94BC17DF91CF911F915A
:102400000F9108950F931F93CF93DF93DC01EA019F
:10241000F901232B11F4E1E7F0E0C832D105CCF546
:1024200064307105B4F5208140E050E088E290E02E
:102430008C01609FC001619F900D709F900D1124D1
:102440008A0F9B1FDF0116C0E80FF91F208311962A
:102450002C912A3069F46F5F7F4F889611962C91EA
:10246000643071051CF440E050E004C080E512C007
:102470004F5F5F4F222331F0FE01E40FF51FE8327A
:10248000F10514F34C0F5D1F493251052CF081E525
:1024900001C082E50E94BC17DF91CF911F910F917F
:1024A00008959A01AB01BC0182E392E00E940212FE
:1024B00008959C0140E050E060E070E082E392E02B
:1024C0000E94021208950F931F9302E312E01093EB
:1024D0002D0200932C0287B3887F876087BB8FEF24
:1024E0008ABB80E29EE4FC013197F1F7FC01319751
:1024F000F1F7FC013197F1F728B3287F28BBFC01E5
:102500003197F1F728B3287F246028BB0197F1F7B2
:1025100088E30E9409118CE00E94091186E00E9464
:10252000091181E00E94091188B3887F856088BB0A
:10253000C8010E94B1101F910F91089520E030E072
:10254000E62FFF2740E2DC0103C04D932F5F3F4F92
:102550002E173F07D4F3E80FF91F1082089520E0EB
:1025600030E0FC0103C02F5F3F4F3196808188230C
:10257000D1F7C90108957F928F929F92AF92BF9237
:10258000CF92DF92EF92FF920F931F93CF93DF933F
:10259000CDB7DEB72A970FB6F894DEBF0FBECDBF1A
:1025A0004C019B017A01DE011196E8E7F0E08AE038
:1025B00001900D928150E1F7F401E20FF31F1082B8
:1025C000D4014C912530310524F064E0A62EB12CC5
:1025D00004C059010894A108B108F501EE0FFF1FCE
:1025E000CE010196E80FF91F60817181C7010E9439
:1025F0004B346A30710568F4B4E0AB16B1041CF4D6
:102600006281738102C069857A85C7010E944B345B
:102610007C0180E090E0403311F481E090E06C01B7
:10262000F901EA19FB09E80DF91D319740E320E2B1
:10263000722E9501220F331F2C0F3D1F2F5F3F4F2E
:102640002AC0D9010D911C91C701B8010E944B34D9
:102650006115710541F4C114D10401F50230110571
:10266000F8F0708209C0862F805D8083C114D10488
:1026700019F481E0C82ED12C609FC001619F900D9C
:10268000709F900D1124E81AF90A0894A108B10866
:10269000225030403196B7FED4CF04C04083ECCFF7
:1026A0004083E7CFC4012A960FB6F894DEBF0FBE71
:1026B000CDBFDF91CF911F910F91FF90EF90DF90F1
:1026C000CF90BF90AF909F908F907F900895AB0177
:1026D000DC010D900020E9F71197A81BB90BBD0193
:1026E0000E94BB120895CF93DF939C0136952795E6
:1026F00081709070880F880F682F7727F901A3E009
:10270000EE0FFF1FAA95E1F7E21BF30BE35CFC4F12
:10271000DF01A60FB71F2C91822F869545E0849F7D
:10272000C001112490938801809387013327217081
:102730003070322F2227ED018981280F311DC90108
:10274000880F991F880F991F820F931F90938501FF
:10275000809384018A81982F96959695969590936B
:1027600086018770809389018381992702C095959E
:1027700087956A95E2F78F7080938A01DF91CF91F8
:1027800008959C013695279581709070880F880F69
:10279000F90163E0EE0FFF1F6A95E1F7E21BF30B0F
:1027A000E35CFC4FE80FF11D20813327217030706E
:1027B000322F22278181280F311DC901880F991FCF
:1027C000880F991F820F931F08959C01217030700C
:1027D000220F220F96958795FC01A3E0EE0FFF1FB5
:1027E000AA95E1F7E81BF90BE35CFC4FE20FF11D42
:1027F0008081869595E0899FC001112408959C01F0
:1028000021703070220F220F96958795FC0133E0DE
:10281000EE0FFF1F3A95E1F7E81BF90BE35CFC4F65
:10282000E20FF11D828186958695869599270895F8
:102830009C0121703070220F220F96958795FC0124
:1028400053E0EE0FFF1F5A95E1F7E81BF90BE35C2D
:10285000FC4FE20FF11D82819927877090700895D7
:102860009C0196958795FC0173E0EE0FFF1F7A950A
:10287000E1F7E81BF90BE35CFC4F8381992721709A
:102880003070220F220F02C0959587952A95E2F7A6
:102890008F70907008951F93CF93DF93182FC0917E
:1028A0008101D091820109C0CE010E94FF138117DE
:1028B00021F4CE010E94731305C02197D7FFF4CFF6
:1028C000CFEFDFEFCE01DF91CF911F910895AC01E3
:1028D00020E030E0E2EDF2E0DF0103C02F5F3F4F88
:1028E000129680819181892B31F44D935C932F3026
:1028F000310561F408C032962F30310579F75093D5
:10290000F1024093F0028FE090E00895822F992722
:1029100008950F931F938C01000F111F0E521D4F2E
:10292000F801808191810E94E92BF80111821082C7
:102930001F910F910895CF93DF93C2EDD2E088816C
:102940009981009721F00E94E92B19821882229622
:1029500082E0C23FD80799F780918A0090918B005E
:102960009093F3028093F202DF91CF910895109239
:102970008201109281010E949B140E949B14089571
:102980009F92AF92BF92CF92DF92EF92FF920F93FE
:102990001F93CF93DF93EC01D62EC42E922EC80145
:1029A0005E01B694A794029665E070E00E944B34F5
:1029B0008B016050724028F089E50E94BC170FEF30
:1029C00011E0C701029665E070E00E944B34603868
:1029D000710528F08AE50E94BC176FE770E0C170AE
:1029E000D070CE01880F880F482F5527F50193E04E
:1029F000EE0FFF1F9A95E1F7EA19FB09E35CFC4F24
:102A0000DF01A40FB51F262F220F812F9927817078
:102A1000282B2C93ED010983DD0CDD0CDD0CDC286B
:102A2000DA8280EF90E0042E02C0959587950A9493
:102A3000E2F723812823892D992702C0880F991F47
:102A40004A95E2F7282B2383DF91CF911F910F91B5
:102A5000FF90EF90DF90CF90BF90AF909F90089540
:102A6000EF92FF920F931F9378018901242F462F35
:102A7000682F80918101909182010E94C014809101
:102A8000810190918201019690938201809381014E
:102A90001F910F91FF90EF900895CF92DF92EF92E8
:102AA000FF920F931F93CF93DF939C01809181013D
:102AB000909182012817390710F4E9011DC08AE0BE
:102AC0000E94BC1725C06E010894C11CD11CC60110
:102AD0000E947313E0908701F090880100918401B7
:102AE0001091850120918A014091890160918601B0
:102AF000CE010E94C014E601809181019091820173
:102B00000197C817D907F8F2909382018093810149
:102B1000DF91CF911F910F91FF90EF90DF90CF90B9
:102B20000895AF92BF92CF92DF92EF92FF920F93F0
:102B30001F93CF93DF938C010E949B14CC24DD2440
:102B4000C0E0D0E042EDE42E42E0F42EC8010E9445
:102B5000BE0F33E0A32E32E0B32EFE01EA0DFB1DC3
:102B60008083882369F5F50101900020E9F731970A
:102B7000EA19FB098E2FEE2321F4F701118210824E
:102B800011C0992701960E94462BEC01009721F471
:102B900088E50E94BC1706C0B5010E94582CF701B9
:102BA000D183C0830894C11CD11C82E090E0E80E60
:102BB000F91E90E1C916D10454F4C0E0D0E004C07D
:102BC0002196CD30D1051CF40F5F1F4FBFCFC80138
:102BD000DF91CF911F910F91FF90EF90DF90CF90F9
:102BE000BF90AF9008950F931F938C01EDE3F3E036
:102BF0008FED92E0D801019724F00E949434019265
:102C0000FACFC80180529D4F0E94CB0F9093820152
:102C100080938101C8018E519D4F1F910F9108959E
:102C2000CF93DF93EC01E199FECFEDE3F3E08FED7D
:102C300092E0DE01019724F001900E94A634FACFC1
:102C4000E199FECF6091810170918201CE018052A5
:102C50009D4F0E94C40FCE018E519D4FDF91CF91A9
:102C600008958F929F92AF92BF92DF92EF92FF9260
:102C70000F931F93CF93DF937C0140E050E0F1E08E
:102C8000DF2E62E870E002ED12E0EFE08E2E912C74
:102C9000E199FECFE80128813981D701A40FB51F42
:102CA0002115310591F0F90101900020E9F7E21BAF
:102CB0008E2F9927EC01F901219724F001900E94B1
:102CC000A634FACF480F591F06C0FB011D2C0E94E5
:102CD000B7344F5F5F4F0894810891080E5F1F4F14
:102CE00097FED6CFC701840F951FDF91CF911F911B
:102CF0000F91FF90EF90DF90BF90AF909F908F90DB
:102D00000895843081F0853018F4882331F00895D7
:102D1000853031F0883061F409C00E94D4210895D3
:102D20000E945F2608950E94792208950E940E2A2B
:102D300008958430B1F0853038F48230C1F08330AA
:102D4000C8F4882341F00895873071F08830A9F0E5
:102D50008530A9F403C00E94222108950E946E26A6
:102D600008950E94C62208950E94742908950E9421
:102D7000082208950E946A1708950E940E2B089554
:102D80008330B9F0843028F4882351F08230C9F4BC
:102D90000DC0853089F0853030F0883091F40FC057
:102DA0000E94E31D08950E94F32308950E942722A4
:102DB00008950E94931808950E94D92608950E94AC
:102DC000032B08951F93182F80918B01811739F0E1
:102DD0000E948116812F0E94991610938B01812FDA
:102DE0000E94C0161F9108950E949910882341F1F6
:102DF00080918B018430C9F0853038F4823079F0CD
:102E0000833080F4882341F008958730A1F0883022
:102E1000A9F08530A9F40CC00E945E1E08950E949E
:102E2000122208950E94C21708950E942E25089527
:102E30000E94E72608950E94BA2908950E94322A26
:102E400008950E9478220E94951D0E9422210E94CE
:102E5000E31D08950E944F1A8823D1F0853051F068
:102E6000863018F48430A1F408C0853149F08631E9
:102E700079F409C08FEF9FEF089581E090E0089505
:102E80000E941D0A02C00E940D2980E090E0089572
:102E900080E090E008950F931F938C010E94C91069
:102EA000A80160E070E080E090E00E94AE1143E98C
:102EB00052E064E070E083E090E00E94AE114EE9E1
:102EC00052E068E170E083E090E00E94AE111F9153
:102ED0000F91089580918B0180931C0608951F9394
:102EE000CF93DF93182FEB01863930F46FE570E054
:102EF0008CE890E00E9489171093AE00D0938D016A
:102F0000C0938C0183E00E94E216DF91CF911F9164
:102F10000895CF92DF92EF92FF920F931F938C014F
:102F20006B01FC0101900020E9F73197E81BF90BD8
:102F3000CF014B960E9435067C01DF92CF921F9302
:102F40000F9384E990E09F938F93FF92EF920E94FA
:102F50006E2CB70186E90E946F178DB79EB7089651
:102F60000FB6F8949EBF0FBE8DBF1F910F91FF90BB
:102F7000EF90DF90CF9008958093AE0083E00E94A1
:102F8000E21608950E944F1A8823A9F0853171F046
:102F9000863120F48450823070F403C0863159F4B5
:102FA00008C080911C060E94E21608950E941D0A26
:102FB00008950E940D2908958091AE00863509F488
:102FC0007FC0873558F58B3009F465C08C3098F494
:102FD000863009F457C0873038F4813009F44CC08A
:102FE000843009F09FC04BC0873009F44EC08A304E
:102FF00009F098C04DC0823509F456C0833538F4C5
:10300000803509F44BC0813509F08CC04AC0843545
:1030100009F450C0853508F050C049C08C3509F41A
:1030200061C08D3598F4893509F453C08A3538F478
:10303000873509F448C0883509F074C047C08A351F
:1030400009F44AC08B3509F06DC049C08F3509F4C9
:1030500052C0803638F48D3509F447C08E3509F0FA
:1030600061C046C0833609F44CC0883C09F452C0A4
:10307000803609F057C042C04BEA52E044C044E1F8
:1030800053E041C043E453E03EC043E753E03BC05C
:103090004EEB53E038C040ED53E035C044EE53E012
:1030A00032C04EE154E02FC04BE454E02CC04AE75C
:1030B00054E029C048EB54E026C047EF54E023C059
:1030C0004DE555E020C047EC55E01DC047E156E016
:1030D0001AC043E356E017C046E856E014C04FED6F
:1030E00056E011C047E157E00EC04FE857E00BC073
:1030F00041EF57E008C045E258E005C042EA58E019
:1031000002C041E159E060E070E080E090E00E94A0
:10311000AE11089542E659E060E070E080E090E092
:103120000E94AE11089580918B01833019F0809335
:103130001C0602C010921C060E94C91083E08093F6
:103140008B018091AE0086598233A8F440918C01A6
:1031500050918D0160E070E080E090E00E9451129B
:1031600080918C0190918D010E94E92B10928D012C
:1031700010928C0108950E94DC170895282F88234F
:1031800021F190919501992319F4E0E0F0E017C046
:10319000809196018093940190939301909197016F
:1031A000992359F08091980180939601909395010D
:1031B00020939701609398010895E1E0F0E0EE0F0D
:1031C000FF1FED56FE4F208361830895CF93DF9359
:1031D0009091930130919401992361F1209195018F
:1031E000222329F4A1E0B0E0E0E0F0E017C08091F4
:1031F00096018093940120939301209197012223BB
:1032000049F0809198018093960120939501109246
:10321000970110C0A2E0B0E0E1E0F0E0EE0FFF1F88
:10322000ED56FE4FAA0FBB1FAD56BE4FED01898173
:1032300081831082532F492FCA01DF91CF910895C6
:1032400090919201992309F096C09927AA27BB274C
:10325000FC013197E03FF10508F0C4C0E65DFF4F87
:10326000EE0FFF1F0590F491E02D09946DE3AEC0C1
:1032700061E001C062E082E0AAC061E5A7C067E545
:10328000A5C065E4A3C062E5A1C064E59FC069E58F
:103290009DC065E59BC069E499C06FE497C060E597
:1032A00095C06BE593C06DE591C06CE58FC063E0A0
:1032B000E2CF61E48BC063E589C064E487C066E463
:1032C00085C067E483C068E481C06AE47FC06BE4C2
:1032D0007DC06CE47BC06BE379C067E277C06AE5D0
:1032E00075C068E573C063E471C066E56FC062E4F1
:1032F0006DC06EE46BC06DE469C06CE267C060E2F3
:1033000065C065E0B8CF60E361C061E35FC062E3C0
:103310005DC063E35BC064E359C065E357C066E327
:1033200055C067E353C068E351C069E34FC06DE225
:103330004DC06EE24BC06AE249C06BE247C06BE031
:103340009ACF6CE098CF6DE096CF6EE094CF6FE0AF
:1033500092CF60E190CF61E18ECF62E18CCF63E1EB
:103360008ACF64E188CF65E186CF66E184CF80EEC5
:1033700031C080EF2FC0903E99F58237F1F083374E
:1033800060F48A3501F18B3518F48A3459F51DC083
:103390008B36A9F0813731F50CC0853761F086375F
:1033A00018F48437F9F40DC0803EB9F0803FD1F4B1
:1033B00011C066E060CF67E05ECF68E05CCF69E097
:1033C0005ACF6AE058CF64E056CF6FE281E00E94A6
:1033D000BE180895809392010895909392010895E4
:1033E0001092920108951F920F920FB60F9211241E
:1033F0002F933F934F935F936F937F938F939F93FD
:10340000AF93BF93EF93FF9310928F0110928E01B1
:1034100020919001822F81508830A0F483B39927A6
:1034200081709070332727FD30952150304002C0C5
:10343000880F991F2A95E2F720919101282B20935C
:1034400091010BC02A3049F48FEF80939001809155
:1034500091010E94201910929101809190018F5F3B
:1034600080939001FF91EF91BF91AF919F918F91C8
:103470007F916F915F914F913F912F910F900FBE70
:103480000F901F90189580919301813019F080E082
:1034900090E008950E94E618892F99270895809159
:1034A0009301823019F080E090E008950E94E618C0
:1034B000892F9927089585B7886085BF8BB7806865
:1034C0008BBFA89A939A089580918E0190918F0155
:1034D00023E0893E920728F010929001109291010A
:1034E0000895019690938F0180938E010895FF9225
:1034F0000F931F93CF93DF938C01F42EC62FDD27FC
:10350000FE01EE0FFF1FE00FF11F0190F081E02D93
:103510006081772761507040818140E299270E9445
:10352000F3101C161D0614F0CF2DDD272197FE0188
:10353000EE0FFF1FE00FF11F0190F081E02D608181
:1035400077276150704081814FEF99270E94F310D7
:103550008C2F9927DF91CF911F910F91FF900895A4
:10356000EF92FF920F931F93CF93DF937C01042F71
:10357000C62FDD27FE01EE0FFF1FE80FF91F019098
:10358000F081E02D6081772761507040818140E2B9
:1035900099270E94F310112701501040C017D1073E
:1035A0001CF0C0E0D0E001C02196FE01EE0FFF1F2D
:1035B000EE0DFF1D0190F081E02D608177276150B5
:1035C000704081814FEF99270E94F3108C2F99272B
:1035D000DF91CF911F910F91FF90EF900895EF929F
:1035E000FF920F931F93CF93DF93C62FDD27CC0F4E
:1035F000DD1FC80FD91FA881B981FD018581282F42
:103600003327220F331F83819481280F391FF9013B
:10361000A081B181109731F468E00BC08FEFFD01FC
:1036200085832CC0FD0101900020E9F731976E2FB2
:103630006A1B50E0E881F9814581242F332782817C
:1036400099270197281739071CF44F5F458301C05C
:1036500015825F5FA881B981FD0182818517F0F233
:103660008581282F3327220F331F83819481280FD0
:10367000391FF90180819181892BE1F2A881B981FB
:10368000FD0185818F3F11F4FF2413C0282F3327BC
:10369000220F331FFD0183819481280F391FF90107
:1036A000A081B181FD0101900020E9F73197FE2E44
:1036B000FA1AF616C8F4E62EEF1800E010E00FC074
:1036C000E881F9818081B801680F711D6F0D711D4E
:1036D000818140E299270E94F3100F5F1F4F8E2DCA
:1036E00099270817190764F3A881B981FD0185811D
:1036F0008F3F69F46FE779E083E092E00E94482C05
:10370000AC01E881F9816081772781810EC0E82FC3
:10371000FF27EE0FFF1FED018B819C81E80FF91F42
:10372000408151816C917727898199270E9451129C
:10373000DF91CF911F910F91FF90EF900895CF925D
:10374000DF92EF92FF920F931F93CF93DF938C0141
:10375000C62ED42EEC01EE24FF2447C0A881B981E7
:10376000FD01838194810097E1F12581E22FFF27FC
:10377000EE0FFF1FE80FF91F4081518141155105E0
:10378000D9F42F3F21F06D2DC8010E94EF1AA881B6
:10379000B981FD012581422F5527440F551F838193
:1037A0009481480F591FFA014081518141155105FB
:1037B00019F42F3FB1F402C02F3F61F46FE779E0B5
:1037C00083E092E00E94482CAC01E881F98160819D
:1037D000772703C06C917727FD01818199270E948B
:1037E00051120894E11CF11C22968C2D9927E816A1
:1037F000F9060CF4B3CFED2DFF27EE0FFF1FE00FFE
:10380000F11F0190F081E02D6081772761507040B9
:1038100081814FEF99270E94F310DF91CF911F9183
:103820000F91FF90EF90DF90CF900895EF92FF926D
:103830000F931F93CF93DF937C0110929A01109204
:103840009901FA0101900020E9F73197E41BF50B8B
:10385000E0939B0160939C0180939D0150939F0195
:1038600040939E0100E010E0EB0108C040E2BE0181
:10387000C7010E94F3100F5F1F4F219680919B019B
:1038800099270817190794F380919C016091990179
:1038900070919A01680F711D673271053CF4809137
:1038A0009D014FEA50E099270E945112DF91CF917C
:1038B0001F910F91FF90EF900895CF93DF9386E0D3
:1038C00090E00E94462BEC01892B19F488E50E94B8
:1038D000BC17CE01DF91CF910895EF92FF921F9315
:1038E000CF93DF93CDB7DEB723970FB6F894DEBF43
:1038F0000FBECDBF10919C01E0909901F0909A010C
:10390000DE011196E5EBF0E083E001900D9281502D
:10391000E1F70E944F1A8983882309F467C0853034
:1039200079F0863030F4813071F0843009F0A7C02E
:103930004BC0853109F454C0863109F0A0C053C092
:1039400081EB90E09EC06091990170919A011616EA
:1039500017060CF094C06150704070939A01609308
:10396000990180919B01992720919C0130919D01A3
:1039700068177907A1F4620F711D4FEA50E0832F99
:1039800099270E945112E0919E01F0919F01809130
:10399000990190919A01E80FF91F319712C0620FB7
:1039A000711D42EB50E0832F99270E945112E09144
:1039B0009E01F0919F018091990190919A01E80FE9
:1039C000F91F80E280835BC080919E0190919F01EE
:1039D000E0919901F0919A01E80FF91F108251C00E
:1039E0000E941D0A4CC00E940D2949C00E94431A22
:1039F000882309F444C089834091990150919A0128
:103A000080919B0199279C01215030404217530718
:103A10004CF01A824817590739F430939A012093D1
:103A2000990102C08FE58A8380919C016091990180
:103A300070919A01680F711D80919D01AE014F5FD9
:103A40005F4F99270E9451122091990130919A015C
:103A5000E0919E01F0919F01E20FF31F8981808325
:103A60001E0D173260F480919B01992728173907A2
:103A700034F42F5F3F4F30939A012093990180E0F7
:103A800090E023960FB6F894DEBF0FBECDBFDF9156
:103A9000CF911F91FF90EF900895E091A601F091D2
:103AA000A70185818093A001E091A801F091A9016F
:103AB00085818093A101E091AA01F091AB018581FC
:103AC0008093A201E091AC01F091AD0185818093DA
:103AD000A301E091AE01F091AF0185818093A40133
:103AE0000895E091A601F091A7018091A00185833E
:103AF000E091A801F091A9018091A1018583E09155
:103B0000AA01F091AB018091A2018583E091AC0103
:103B1000F091AD018091A3018583E091AE01F09118
:103B2000AF018091A4018583089508958091A0013B
:103B300099270895982F80918B01882331F4E09183
:103B4000A601F091A701958308959093A00108958F
:103B50000F931F9380912C01833091F5E091A60182
:103B6000F091A70155815F3F59F100912801109113
:103B700029012091260130912701E091AA01F091BD
:103B8000AB0145814170440F440F440FE091AC01FB
:103B9000F091AD018581992783709070880F991FEE
:103BA000482BE091AE01F091AF0185818170482BE7
:103BB000E091A801F091A9016581852F0E9430153F
:103BC0001F910F9108950E94C91010928B016FED03
:103BD00079E083E092E00E94482CAC0160E070E064
:103BE00080E090E00E94511264EE79E083E092E080
:103BF0000E94482CAC0160E070E081E090E00E94FF
:103C0000511269EE79E083E092E00E94482CAC0109
:103C100060E070E082E090E00E9451124EEE59E0C8
:103C200060E070E083E090E00E94AE1163EF79E025
:103C300083E092E00E94482CAC0169E170E081E0F1
:103C400090E00E94511269EF79E083E092E00E94D7
:103C5000482CAC0169E170E082E090E00E945112D2
:103C60008091B8008823A1F060E07AE083E092E0E0
:103C70000E94482CAC0169E170E083E090E00E9472
:103C800051124EE265E270E083E090E00E94F31092
:103C90004EE265E270E081E090E00E94F3104EE2B7
:103CA00065E270E082E090E00E94F3104091A5018F
:103CB00066E086EA91E00E949F1B0895CF93DF9310
:103CC00080912C01823039F0833071F0813079F4A9
:103CD00047E859E002C047E959E064E170E080E05C
:103CE00090E00E94AE110FC047EA59E0F6CF64E1C0
:103CF00083E092E00E949E12AC0164E170E080E0FB
:103D000090E00E94511280912C018230D0F180917C
:103D100026019091270164E670E00E944B34AB01CC
:103D200062E070E083E092E00E94BB12AC0163E1CC
:103D300070E081E090E00E94511280E380930302E2
:103D4000809126019091270164E670E00E944B3437
:103D5000AC0162E070E083E092E00E94BB12AC0133
:103D600066E170E081E090E00E9451124EE265E170
:103D700070E081E090E00E94F31080E28093030203
:103D80000CC067E083E092E00E949E12AC0162E109
:103D900070E081E090E00E94511280912C0183300C
:103DA00009F060C08091F6029091F7026AE070E03D
:103DB0000E944B34AB0163E070E083E092E00E942C
:103DC000BB12AC0162E170E082E090E00E9451120F
:103DD0008091F6029091F7026AE070E00E944B3405
:103DE000805D482F66E170E082E090E00E94F31071
:103DF0004EE265E170E082E090E00E94F310809175
:103E0000B800882309F446C08091300290913102B5
:103E10006AE070E00E944B34AB0163E070E083E045
:103E200092E00E94BB12AC0162E170E083E090E09E
:103E30000E94511280913002909131026AE070E04C
:103E40000E944B34805D482F66E170E083E090E093
:103E50000E94F3104EE265E170E083E090E00E9482
:103E6000F31018C067E083E092E00E949E12AC015C
:103E700062E170E082E090E00E94511267E083E02E
:103E800092E00E949E12AC0162E170E083E090E05B
:103E90000E9451120E945E0E64E670E00E944B3454
:103EA000AB0163E070E083E092E00E94BB12AC01E2
:103EB00062E270E081E090E00E94511280E3809322
:103EC00003020E945E0E64E670E00E944B34AC0177
:103ED00062E070E083E092E00E94BB12AC0166E217
:103EE00070E081E090E00E94511280E28093030232
:103EF0008091F4029091F5026AE070E00E944B34E8
:103F0000AB0163E070E083E092E00E94BB12AC0181
:103F100062E270E082E090E00E9451128091F4022F
:103F20009091F5026AE070E00E944B34805D482F6A
:103F300066E270E082E090E00E94F3108091B800A9
:103F4000882331F180912E0290912F026AE070E077
:103F50000E944B34AB0163E070E083E092E00E948A
:103F6000BB12AC0162E270E083E090E00E9451126B
:103F700080912E0290912F026AE070E00E944B34F3
:103F8000805D482F66E270E083E090E00E94F310CD
:103F90008091B9008130A1F50E946D1CFC01892B34
:103FA00009F44DC18081882361F080918A0090914D
:103FB0008B009093F1028093F002CF010E9467146E
:103FC00033C0E091A601F091A701E281FF27EE0F37
:103FD000FF1FE053FD4F808191810E94E92BE0910A
:103FE000A601F091A701E281FF27EE0FFF1FE0532A
:103FF000FD4F80918A0090918B009183808314C043
:10400000833059F50E94C91087EB99E00E944B1745
:104010000E942A172FEF8F3F920721F0019709F096
:104020000EC106C00E94E31D82E08093B90007C163
:1040300082E08093B900E091A601F091A70185810B
:1040400099270E9489146091A50186EA91E00E9457
:10405000EF1A80E00E94C016F2C00E94431A882323
:1040600019F18333D9F0843340F4813379F082330A
:1040700098F4803209F0E3C006C0843389F08533B8
:1040800009F0DDC00FC06091A50101C060E086EAC3
:1040900091E00E94EF1AD3C061E0F9CF62E0F7CF60
:1040A00063E0F5CF64E0F3CF0E944F1A882309F450
:1040B000C6C08B3009F48BC08C3080F4873079F126
:1040C000883048F48430A9F1863009F46BC082301E
:1040D00009F0B5C01CC08930D1F421C0833109F486
:1040E00082C0843150F48E3009F477C0803109F4F5
:1040F00076C08C3009F0A3C06EC0853109F49AC037
:10410000853108F483C0863109F099C096C046E035
:104110006091A50186EA91E00E94B01A07C046E0CE
:104120006091A50186EA91E00E94771A8093A5012B
:1041300086C06091A501662389F5E091A601F09102
:10414000A70185818F3041F52091F0023091F10275
:1041500080918A0090918B0028173907E9F489E053
:1041600090E00E943506EC01009711F488E55AC0F2
:1041700068E00E949E12D093F102C093F002E09199
:10418000A601F091A701608177278181AE0199276F
:104190000E94161C81E049CF85E022C0653009F0FD
:1041A00076CF19C0E091A601F091A70185818F3FDC
:1041B00009F445C00E944B148F5F9F4F11F08FE5AB
:1041C00031C087EB99E00E944B1783E02ECF0E940D
:1041D000631282E005C084E003C083E001C088E090
:1041E0000E94E2162CC080912C01833051F4E091A2
:1041F000A601F091A70185818F3F99F00E94A81D2B
:1042000002C08823E1F40E94D40A19C080912C01D5
:104210008330A9F4E091A601F091A70185818F3F39
:1042200021F48EE50E94BC170AC00E94A81D1092BE
:104230002C0105C00E941D0A02C00E940D29DF91B9
:10424000CF910895CF93DF93C6EAD1E00E945D1C21
:10425000FC0189939993158281E0C23BD807B1F79D
:10426000E091A601F091A70147E04083E091A6010B
:10427000F091A7011182E091A601F091A70182EDD2
:1042800092E09483838380E18283E091A801F0919E
:10429000A9014083E091A801F091A90181E0818307
:1042A000E091A801F091A9018AED90E094838383C5
:1042B00085E08283E091AA01F091AB014083E09117
:1042C000AA01F091AB0122E02183E091AA01F091D3
:1042D000AB0188EE90E0948383832283E091AC016C
:1042E000F091AD0189E08083E091AC01F091AD01E6
:1042F0002183E091AC01F091AD0187EF90E09483D0
:10430000838333E03283E091AE01F091AF018EE020
:104310008083E091AE01F091AF012183E091AE0185
:10432000F091AF0181E091E0948383832283E09157
:10433000B001F091B1014083E091B001F091B10181
:104340003183E091B001F091B101148213821282A5
:10435000E091B001F091B1018FEF8583E091A6016A
:10436000F091A7018091A0018583E091A801F091CF
:10437000A9018091A1018583E091AA01F091AB018F
:104380008091A2018583E091AC01F091AD01809113
:10439000A3018583E091AE01F091AF018091A4016A
:1043A0008583DF91CF910895CF93DF93E091A601AC
:1043B000F091A70185818093A001E091A801F0917F
:1043C000A90185818093A101E091AA01F091AB013F
:1043D00085818093A201E091AC01F091AD018581CE
:1043E0008093A301E091AE01F091AF0185818093AC
:1043F000A401C6EAD1E0888199810E94E92B199233
:10440000199281E0C23BD807B1F7DF91CF910895AF
:1044100080918B01823019F08093B201089510923F
:10442000B20108950E944F1A882381F0853149F026
:10443000863151F0853051F48091B2010E94E2162C
:1044400008950E941D0A08950E940D2908950E9452
:10445000C91082E080938B018091B2018330F9F022
:10446000843018F4882331F00895843079F0853051
:10447000F1F403C047E05AE002C049E75AE060E0C7
:1044800070E080E090E00E94AE11089544EB5AE0A5
:1044900060E070E080E090E00E94511208954EEDDF
:1044A0005AE060E070E080E090E00E9451120895D0
:1044B0002091810130918201121613064CF49091E3
:1044C000B301822F8150981718F49F5F9093B30126
:1044D00008958091810190918201181619063CF48B
:1044E0008091B301882319F081508093B30108951E
:1044F0000895CF93DF938091C0019091C1010E94F4
:10450000E92B8091C2019091C3010E94E92B809117
:10451000C4019091C5010E94E92B8091C601909140
:10452000C7010E94E92B8091C8019091C9010E94A6
:10453000E92B8091CA019091CB010E94E92B8091D7
:10454000CC019091CD010E94E92B809108019091BE
:1045500009010E94E92B80910A0190910B010E94B0
:10456000E92B80910E0190910F010E94E92BC6EB7F
:10457000D1E0888199810E94E92B1992199281E0FA
:10458000C03CD807B1F7DF91CF910895CF93DF9367
:1045900082E19BE00E9450069093C1018093C0018C
:1045A00087E19BE00E9450069093C3018093C20173
:1045B0008CE19BE00E9450069093C5018093C4015A
:1045C00081E29BE00E9450069093C7018093C60150
:1045D00086E29BE00E9450069093C9018093C80137
:1045E0008BE29BE00E9450069093CB018093CA011E
:1045F0008DE29BE00E9450069093CD018093CC0108
:104600008FE29BE00E94500690930901809308017D
:1046100084E39BE00E94500690930B0180930A0173
:1046200089E39BE00E94500690930F0180930E0156
:10463000C6EBD1E00E945D1CFC0199838883118246
:10464000E991F991158281E0C03CD80799F7E09192
:10465000B601F091B70125E02083E091B601F09119
:10466000B70182ED92E09483838380E18283E091BD
:10467000B801F091B9018EE08083E091B801F0912A
:10468000B90180EC91E0948383832283E091BA01A5
:10469000F091BB0183E18083E091BA01F091BB010D
:1046A0008AEC91E09483838322E02283E091BC0131
:1046B000F091BD0185E18083E091BC01F091BD01E5
:1046C00086E091E09483838383E08283E091BE015E
:1046D000F091BF018AE18083E091BE01F091BF01BA
:1046E0008CE091E094838383228380918101909177
:1046F00082011816190624F481508093B30102C078
:104700001092B301DF91CF910895BF92CF92DF92C3
:10471000EF92FF920F931F93E091B601F091B701D2
:10472000B580E091B801F091B901C580E091BA017E
:10473000F091BB01D58081E0D822DD0CDD0CDD0CD1
:10474000E091BC01F091BD01858199278370907043
:10475000880F991FD82AE091BE01F091BF01858191
:104760008170D82A8091B30199270E947313E09039
:104770008701F0908801009184011091850180915A
:10478000B3012D2D4C2D6B2D99270E94C014109232
:10479000B401E091B601F091B70181814FEF60E083
:1047A00070E099270E94F310E091B501FF27EE0F0A
:1047B000FF1FEA54FE4F0190F081E02D60817727C2
:1047C00061507040E091B601F091B701818140E203
:1047D00099270E94F3101F910F91FF90EF90DF90A7
:1047E000CF90BF9008950F931F93CF93DF93809145
:1047F0008B01843041F08091810181508093B3011D
:1048000084E080938B010E94C91080918101909176
:104810008201892B71F462E67BE083E092E00E94E2
:10482000482CAC0160E070E080E090E00E94511202
:10483000F6C01091B301143058F44FEF60E070E00F
:1048400083E090E0811B91090E94F31013E007C000
:104850004FEF60E070E080E090E00E94F310809104
:10486000810190918201843091051CF0C0E0D0E07C
:1048700004C0C4E0D0E0C81BD90B012F11270C1BCA
:104880001D0BC9C0C8010E947313A80163E070E04A
:1048900083E092E00E94BB12AC0161E070E0CE01C7
:1048A0000E945112809186016AE00E943F34905D1F
:1048B000492F64E070E0CE010E94F310E091860180
:1048C000FF27EE0FFF1FEE52FD4F4081518165E043
:1048D00070E0CE010E945112E0918901FF27EE0F96
:1048E000FF1FE054FE4F408151816EE070E0CE0129
:1048F0000E945112E0918A01E695E695E695FF2720
:10490000E170F070EE0FFF1FE653FE4F40815181C2
:1049100063E170E0CE010E945112E0918A01E695B8
:10492000FF27E370F070EE0FFF1FEA5FFE4F40813C
:10493000518165E170E0CE010E945112E0918A013F
:10494000FF27E170F070EE0FFF1FE45FFE4F408124
:1049500051816AE170E0CE010E9451128091840180
:104960009091850164E670E00E944B34AB0162E0F7
:1049700070E083E092E00E94BB12AC016EE170E057
:10498000CE010E9451124EE260E270E0CE010E9420
:10499000F310809184019091850164E670E00E949B
:1049A0004B34AC0162E070E083E092E00E94BB1205
:1049B000AC0161E270E0CE010E945112809187014A
:1049C000909188016AE070E00E944B34AB0162E094
:1049D00070E083E092E00E94BB12AC0164E270E000
:1049E000CE010E9451124EE266E270E0CE010E94BA
:1049F000F31080918701909188016AE070E00E9435
:104A00004B34805D482F67E270E0CE010E94F310C6
:104A1000219601501040C430D1050CF433CFDF9102
:104A2000CF911F910F9108950E942A172FEF8F3F6A
:104A3000920719F0019789F405C01092B4010E9401
:104A4000F32308951092B4018091B30199270E9435
:104A50004D150E9469220E94F32308950F931F931E
:104A60008091B401813009F04AC00E94431A882322
:104A700009F00AC10E944F1A882309F405C1883041
:104A800011F1893070F4843031F1853020F48230B6
:104A900009F0FAC031C0853079F1873009F0F4C0EF
:104AA00021C08B3009F4E7C08C3030F48930D1F06C
:104AB0008A3009F0E9C007C0853109F4E0C08631C9
:104AC00009F0E2C0DFC045E06091B50186EB91E0FE
:104AD0000E94B01A0EC06091B50186EB91E00E9471
:104AE000EF1AD2C045E06091B50186EB91E00E94DB
:104AF000771A8093B501C8C00E948523C5C0823053
:104B000019F40E941425C0C00E94431A882321F082
:104B1000803209F0B9C031C00E944F1A882309F4CD
:104B2000B3C0883051F1893090F4853009F4A1C0C8
:104B3000863030F4823009F1843009F0A5C020C0FD
:104B4000863009F487C0873009F09EC08DC08B3055
:104B500009F491C08C3038F4893009F485C08A306A
:104B600009F092C00AC0853109F489C0863109F480
:104B700089C08C3009F088C07CC00E94692276C050
:104B80008091810190918201892B09F47DC010925E
:104B9000B50181E08093B4018091B30199270E940F
:104BA00073138091B301843010F000E002C003E081
:104BB000081BE091B601F091B7010183E091B801C3
:104BC000F091B9010183E091BA01F091BB01018339
:104BD000E091BC01F091BD010183E091BE01F09133
:104BE000BF010183E091B601F091B7018091860188
:104BF0008583E091B801F091B901809189018583A5
:104C0000E091BA01F091BB0180918A018695869569
:104C1000869581708583E091BC01F091BD01809102
:104C20008A01869583708583E091BE01F091BF0172
:104C300080918A018170858311274FEF64E070E0D5
:104C4000C8010E94F31040E260E070E0C8010E94D9
:104C5000F3101AC00E94C9108DE39BE00E944B170D
:104C600082E08093B40110C00E9458220E94F32376
:104C70000BC080E001C082E00E94E21605C00E94E5
:104C80001D0A02C00E940D291F910F9108950895D9
:104C9000982F20E030E0A1EDB1E0ED91FC9111976B
:104CA0008581891719F42093D00106C02F5F3F4FEB
:104CB00012962131310589F71092D0010895CF93D2
:104CC000DF93C1EDD1E0899199910E94E92B81E0B8
:104CD000C13FD807C1F7DF91CF910895EF92FF92BE
:104CE0000F931F93CF93DF93C0E0D0E001ED11E06D
:104CF0000E945D1CFC01D8018D939C93CE0164E061
:104D000070E00E945F34CB0123E0880F991F2A9541
:104D1000E1F7860F971F8F5F8083D801ED91FC919B
:104D2000CE0164E070E00E945F348183D801ED9190
:104D3000FD918D0182EDE82E82E0F82EF482E3826F
:104D400081E182832196C031D10591F60E94961DA2
:104D50001091D00140E050E020E030E0E701682F02
:104D60007727A1EDB1E088819981892B59F0ED91E8
:104D7000FC91119725836217730709F4142F4F5F75
:104D80005F4F12962F5F3F4F22962131310559F721
:104D90001093D001CA014131510514F080E190E037
:104DA0008093CF01DF91CF911F910F91FF90EF90F2
:104DB000089585E080938B010E94C9104091D00135
:104DC0006091CF0181ED91E00E949F1B08951F9398
:104DD000CF93DF938091CE01813059F50E946D1CF5
:104DE000FC01892B09F4F8C08081882399F0809117
:104DF0008A0090918B009093F3028093F202CF018E
:104E00000E946714182F0E945F260E946E2610933E
:104E1000D0011BC08091F2029091F3020E94E92B15
:104E200080918A0090918B009093F3028093F2021C
:104E30000CC0823031F50E942A172FEF8F3F920766
:104E400021F0019709F0C8C005C00E94D926109230
:104E5000CE01C2C01092CE01E091D001FF27EE0F2B
:104E6000FF1FEF52FE4F0190F081E02D85819927C1
:104E70000E9489140E945F260E946E260E94D926F5
:104E8000ABC00E944F1A882309F4A6C0883031F1C4
:104E9000893090F4853009F476C0863030F4823061
:104EA000E9F0843009F098C02DC0863009F46DC057
:104EB000873009F091C01BC08B3009F484C08C305E
:104EC00030F48930A1F08A3009F086C007C08531FE
:104ED00009F47DC0863109F07FC07CC04091CF01CC
:104EE0006091D00181ED91E00E94B01A08C040911C
:104EF000CF016091D00181ED91E00E94771A8093FB
:104F0000D0016AC0E091D001FF27EE0FFF1FEF52E2
:104F1000FE4F0190F081E02D4581E42FFF27EE0F39
:104F2000FF1FEE52FD4F2081318180918A009091C8
:104F30008B002817390721F589E090E00E94462B65
:104F4000EC01009711F488E53BC068E00E949E12D6
:104F50001886D093F302C093F202E091D001FF27AC
:104F6000EE0FFF1FEF52FE4F0190F081E02D6081A8
:104F700077278181AE0199270E94161C81E01CC011
:104F8000842F0E949A1D80E01FC0E091D001FF276E
:104F9000EE0FFF1FEF52FE4F0190F081E02D858153
:104FA0008031D1F00E944B148F5F9F4F41F48AE60D
:104FB0009BE00E944B1782E08093CE010DC08FE5ED
:104FC0000E94BC1709C082E00E94E21605C00E9440
:104FD0001D0A02C00E940D29DF91CF911F910895F3
:104FE0008BE090E00E943506FC0183E48083CF01D2
:104FF0000895CF93DF938091F101813049F48BE0E4
:1050000090E00E943506FC0189E08083118209C08E
:105010008230A9F48BE090E00E943506FC0184E424
:10502000808329E139E249EF57E262E0CF010E9433
:10503000380C8091F1018F5F8093F101EBC08330D8
:1050400009F054C02091F2013091F301F901EE0F03
:10505000FF1FEE52FD4F02C02F5F3F4F80819181B5
:10506000892B29F432962F303105B0F328C03093C4
:10507000F3012093F2018BE090E00E943506EC01F1
:1050800081E48883E091F201F091F301E983EE0F6E
:10509000FF1FEE52FD4F6081718148E050E0CE016C
:1050A00003960E945F2C8091F2019091F30101968A
:1050B0009093F3018093F201209731F40EC0109287
:1050C000F3011092F20109C029E139E249EF57E2F8
:1050D00062E0CE010E94380C09C08091F1018F5F1F
:1050E0008093F1011092F3011092F2018091F1018D
:1050F000843009F06EC02091F2013091F30180916B
:105100008101909182012817390708F05DC08BE07A
:1051100090E00E943506EC018091F2019091F3013C
:105120000E94731382E488832091F2013091F3018D
:105130002983809186018A838091840190918501E1
:105140006FEF70E00E944B346B83809184019091EB
:1051500085016FEF70E00E944B348C838091870152
:10516000909188016FEF70E00E944B346D838091C5
:105170008701909188016FEF70E00E944B348E831D
:10518000809189018F8380918A0186958695869585
:105190008170888780918A01869583708987809144
:1051A0008A0181708A872F5F3F4F3093F3012093EC
:1051B000F201209749F029E139E249EF57E262E034
:1051C000CE010E94380C05C08091F1018F5F809361
:1051D000F1018091F101853041F40E94F02729E12D
:1051E00039E249EF57E262E022CF863051F48BE09A
:1051F00090E00E943506FC0189E0808381E0818394
:1052000010CF873039F488EC0E94BC170E94B71485
:105210000E941D0ADF91CF9108951092F301109220
:10522000F20181E08093F10180E090E00E94F92793
:1052300008958BE50E94BC170E94F0270E94BE0BC8
:10524000089585B38E6F85BB8EEF8093F40108952A
:105250000F931F93CF93DF9303B31091F4011027A3
:10526000C1E0D0E0812F99270C2E02C0959587953B
:105270000A94E2F780FF2DC08091F40199270C2E4B
:1052800002C0959587950A94E2F780FF22C0C4304A
:10529000B1F0C53038F4C23071F0C33070F4C130B1
:1052A000C1F407C0C63079F0C63058F0C73089F471
:1052B0000CC066E10BC063E109C065E107C067E0AF
:1052C00005C068E003C064E001C065E082E00E94C0
:1052D000BE182196C830D10529F60093F401DF915C
:1052E000CF911F910F910895CF92DF92EF92FF928D
:1052F0000F931F93CF93DF9387E080938B010E94DE
:10530000C910C0E0D0E0CE010E94B80BE82ECE015B
:1053100064E070E00E945F348B0183E0000F111F96
:105320008A95E1F7061B170BCE0164E070E00E943E
:105330005F346C014E2DB8010E94F310FF24A701C9
:1053400063E070E083E092E00E94BB120E5F1F4FAB
:10535000AC01B801C6010E9451122196C231D1059B
:1053600091F6DF91CF911F910F91FF90EF90DF9019
:10537000CF9008950E944F1A882359F0853019F074
:105380008D3039F404C080E00E94E21608950E9436
:10539000742908951092F6011092F50188E190E0C9
:1053A0002FE00FB6F894A89581BD0FBE21BD0895DA
:1053B0008091F5019091F60127E28031920740F14A
:1053C00081E00E94091182E99BE00E94E5100E94A1
:1053D000121081E00E94091188EC9BE00E94E51008
:1053E0001092F6011092F501A89520E030E0E0ED72
:1053F000F7E0CF010197F1F7A8952F5F3F4F87E0C6
:10540000203D3807B1F71092F6011092F501FFCF59
:1054100001969093F6018093F5010895CF93DF9361
:10542000C9EFD1E0899199910E94E92B82E0C931BD
:10543000D807C1F7DF91CF910895882319F0813003
:1054400081F409C0CB01BA010E946033DC01CB01B9
:105450000E94A00F0895CB01BA010E9460330E9400
:105460005E0F0895EF92FF920F931F93CF93DF93F8
:10547000CDB7DEB72E970FB6F894DEBF0FBECDBF07
:105480008091F701813009F060C00E946D1C7C01A1
:10549000009709F45AC0FC018081882309F450C0A8
:1054A000CE0101969F938F9380E191E09F938F931C
:1054B000FF92EF920E94A02C2DB73EB72A5F3F4F7C
:1054C0000FB6F8943EBF0FBE2DBF892B79F443E190
:1054D00051E06EE170E081E090E00E945112A7017E
:1054E0006EE170E082E090E00E94511289819A8121
:1054F000AB81BC81BF93AF939F938F9388E191E081
:105500009F938F938E010B5F1F4F1F930F930E94EA
:105510006E2CA8016EE170E083E090E00E945112D1
:1055200049815A816B817C818091F8010E941D2AFA
:105530008DB79EB708960FB6F8949EBF0FBE8DBF6D
:10554000C7010E94E92B1092F7010E944F1A88238D
:1055500009F44CC08730C1F0883040F4843011F138
:105560008530E1F0823009F041C006C0893061F039
:10557000893010F08A30D1F545E06091F80189EF6B
:1055800091E00E94B01A07C045E06091F80189EFF0
:1055900091E00E94771A8093F80128C080E00E9471
:1055A000E21624C089E090E00E9435068C01009745
:1055B000E9F068E00E949E12F80110861093F30251
:1055C0000093F202E091F801FF27EE0FFF1FE75072
:1055D000FE4F0190F081E02D608177278181A80145
:1055E00099270E94161C81E08093F7012E960FB632
:1055F000F894DEBF0FBECDBFDF91CF911F910F9109
:10560000FF90EF9008950E94C91047EE5BE060E0C4
:1056100070E080E090E00E94AE1108950F931F9318
:10562000CF93DF93C0E0D0E009EF11E00E945D1C52
:10563000FC01D8018D939C93CE0164E070E00E9440
:105640005F3484E190E09C01629FC001639F900DF4
:10565000729F900D1124885F8083D801ED91FC9199
:10566000CE0164E070E00E945F348183D801ED9147
:10567000FD918D011482138212822196C530D105CD
:10568000A9F6DF91CF911F910F910895CF93DF93EA
:10569000AC01029710F442E050E0A0911F06B091D7
:1056A0002006FD01C0E0D0E020E030E020C0808195
:1056B00091818417950769F482819381209719F06D
:1056C0009B838A8304C09093200680931F06CF019A
:1056D00032C04817590738F42115310519F08217DF
:1056E000930708F49C01EF010280F381E02D3097CD
:1056F000F1F62115310589F1C901841B950B049739
:1057000008F4A901E0E0F0E026C08D919C9111978A
:1057100082179307E9F44817590779F4ED018A8154
:105720009B81309719F09383828304C09093200665
:1057300080931F06CD01029649C0841B950BFD0185
:10574000E80FF91F4193519302978D939C933AC0B0
:10575000FD01A281B3811097C1F680911D06909141
:105760001E06892B41F480911F0190912001909396
:105770001E0680931D0620912101309122012115E2
:10578000310541F42DB73EB780911D0190911E0166
:10579000281B390BE0911D06F0911E062E1B3F0BB6
:1057A0002417350788F0CA0102962817390760F0D8
:1057B000CF01840F951F029690931E0680931D06BD
:1057C00041935193CF0102C080E090E0DF91CF91EF
:1057D0000895CF93DF93009709F44EC0EC01229710
:1057E0001B821A82A0911F06B0912006109711F11A
:1057F00040E050E001C0DC01AC17BD0700F1BB8305
:10580000AA83FE0121913191E20FF31FEA17FB07F2
:1058100071F42E5F3F4F8D919C911197820F931FD2
:1058200099838883FD01828193819B838A834115BB
:10583000510559F4D0932006C0931F061DC0FD01E9
:1058400082819381AD010097B1F6FA01D383C283BF
:1058500021913191E20FF31FEC17FD0769F42E5FE0
:105860003F4F88819981820F931FFA019183808332
:105870008A819B8193838283DF91CF910895FB017D
:10588000DC0102C005900D9241505040D8F70895B8
:10589000FB01DC0105900D920020E1F70895FC0169
:1058A00005900020E9F7809590958E0F9F1F089531
:1058B000FB01DC0101900D920020E1F70895FB014E
:1058C000DC014150504048F001900D920020C9F792
:1058D00001C01D9241505040E0F708950F931F936F
:1058E000CF93DF93CDB7DEB760970FB6F894DEBFE6
:1058F0000FBECDBF0F89188D86E08E831C830B836E
:105900008FEF9FE798878F83AE01455E5F4F5A8385
:105910004983698D7A8DCE0103960E94C42C298516
:105920003A85020F131FF801108260960FB6F894A3
:10593000DEBF0FBECDBFDF91CF911F910F910895B4
:10594000CF93DF93CDB7DEB760970FB6F894DEBF85
:105950000FBECDBF85E08E838D899E899C838B830E
:10596000AE01475E5F4F5A8349836F89788DCE01C0
:1059700003960E948F2F60960FB6F894DEBF0FBE7D
:10598000CDBFDF91CF9108952F923F924F925F92BA
:105990006F927F928F929F92AF92BF92CF92DF923F
:1059A000EF92FF920F931F93CF93DF93CDB7DEB7A4
:1059B00064970FB6F894DEBF0FBECDBFCC24DD24B4
:1059C00076011C017C8B6B8B2A01FC0117821682ED
:1059D000838181FD03C08FEF9FEF88C2AA24BB247F
:1059E00072C2A0FE57C28A8980538A30E8F4FA89CD
:1059F000F03341F42D85222329F4A3FC03C080E079
:105A000091E06FC08AE0ED85E802C0011124FA89B7
:105A1000F80FF053FD87F7FF02C02FE72D87A3FC97
:105A20004CC23D853E8749C2C50188709070A3FE77
:105A300005C0ED85EE2311F4F1E0FD872A892836B3
:105A400024F525360CF05BC0233509F480C02435DD
:105A50008CF42B32C1F12C3234F42032C1F12332D8
:105A600009F00DC23CC03A893D32B1F13E3209F035
:105A700006C23AC08A89833609F449C084360CF0DC
:105A800081C0883509F0FBC11BC0EA89E03709F401
:105A9000A3C0E13744F4EC3669F1EF3671F0E93632
:105AA00009F0EDC16FC0FA89F53709F49DC0F837E8
:105AB00039F0F33709F0E3C134C028E0298B94C0F2
:105AC00030E1398B91C080E190E0A82AB92AE0E268
:105AD000F0E0AE2ABF2AF1C120E830E00DC080E43A
