:100000000C9494060C94B1060C946C1C0C94B106E0
:100010000C94B1060C94B1060C94B1060C94130721
:100020000C94B1060C94B1060C94B1060C94B10674
:100030000C94B1060C94500D0C940D0E0C94B1065A
:100040000C94B1060C94B1060C94B1060C94B10654
:100050000C94B106211C6B1C151C0F1C091C0C1CDC
:100060002A1C6B1C241C1E1C181C121C731B6B1CD2
:100070006B1C6B1C6B1C6B1C6B1C6B1C761BE21BC8
:100080006B1C6B1C6B1CC11BA31BA01B791BE51BF2
:100090006B1C6B1CC71BC41BA61B7C1BEB1BE81B30
:1000A0006B1C6B1CD91BCA1BA91B821B7F1BEE1B65
:1000B0006B1C6B1CD01BCD1BAF1BAC1B851BF11B22
:1000C0006B1C6B1C6B1CD31BB21B881BF41BF71B1C
:1000D0006B1C6B1CD61BB51B8B1B8E1BDF1BFA1BF3
:1000E0006B1C6B1C001C611CB81BBB1B911BFD1BFC
:1000F0006B1C6B1C6B1CBE1B6B1C941B6D1B6B1C4D
:100100006B1C9D1B6B1C5E1C971B6B1C9A1B6B1C3A
:100110006B1C6B1C6B1C6B1C6B1C6B1C6B1C701BA3
:100120006B1C6B1CE21B6B1CEB1BF41B6B1C6B1C1A
:100130006B1CDF1B001CE51BEE1BF11BF71BDC1B04
:100140006B1C271C061CE81BFD1B031CFA1B6B1CED
:100150006B1C6B1C6B1C6B1C1B1C6B1C6B1C6B1CB7
:100160006B1C6B1C6B1C6B1C6B1C6B1C6B1C6B1C57
:100170006B1C6B1C6B1C6B1C6B1C6B1C6B1C6B1C47
:100180006B1C6B1C6B1C6B1C6B1C6B1C6B1C6B1C37
:100190006B1C6B1C6B1C6B1C6B1C6B1C6B1C6B1C27
:1001A0006B1C6B1C6B1C6B1C6B1C6B1C6B1C6B1C17
:1001B0006B1C6B1C6B1C6B1C6B1C6B1C6B1C6B1C07
:1001C0006B1C6B1C6B1C6B1C6B1C6B1C6B1C6B1CF7
:1001D0006B1C6B1C6B1C6B1C6B1C6B1C6B1C6B1CE7
:1001E0006B1C6B1C6B1C6B1C6B1C6B1C6B1C6B1CD7
:1001F0006B1C6B1C6B1C6B1C6B1C6B1C6B1C6B1CC7
:100200006B1C6B1C6B1C6B1C6B1C6B1C6B1C6B1CB6
:100210006B1C2D1C6B1C6B1C6B1C6B1C6B1C6B1CE4
:100220006B1C6B1C6B1C6B1C6B1C6B1C6B1C6B1C96
:100230006B1C2F1C4572726F722039383A20446F44
:10024000736C6F206B65206B72E1746BE96D7520C8
:1002500076FD7061646B7520202020206E6170E156
:100260006A656EED2E204461746120756C6F7A654D
:100270006E612E2052657365742E00146F6B202002
:10028000000000000000000A2020202000000000E4
:100290000000004F6B2028456E746572290053746E
:1002A0006F726E6F202845736329004572726F72FA
:1002B00020313A20446F736C6F206B206368796241
:1002C000652076206B6F6E74726F6C6E696D0A7349
:1002D0006F7563747520707269207072696A6D75CC
:1002E000207A7072617679206E61206B617472750C
:1002F0002E200A4E656D75736920746F207A6E61C9
:100300006D656E6174207A61646E6520706F7469CA
:100310007A652E004572726F7220343A20436879F4
:100320006261204952430A527963686C65206F7498
:100330006F63656E6920495243206E61206B617462
:100340007275004572726F7220363A204368796286
:1003500061204952430A527963686C65206F746F5B
:1003600063656E6920495243206E6120766F7A6919
:100370006B75004572726F7220373A20506C6E6157
:10038000206F646573696C6163692066726F6E7457
:1003900061206E61206B617472752E0A4E656D75F9
:1003A000736920746F207A6E616D656E6174207A56
:1003B00061646E792070726F626C656D2E0045729B
:1003C000726F722031303A200A204445425547006E
:1003D0004572726F722031313A200A2044454255ED
:1003E000472032004572726F722038303A204368DD
:1003F000796261204C43440A5072656B726F636589
:100400006E6920726F7A736168750A4C434420707C
:100410006F206F647261646B6F76616E6900457204
:10042000726F722038313A204368796261204C4300
:10043000440A5465787420707265736168756A65E2
:100440000A6F6B72616A204C4344004572726F728E
:100450002038323A204368796261204C43440A5084
:100460006F636174656B2074657874750A6D696D6E
:100470006F20646973706C656A004572726F7220D8
:1004800038333A204368796261204952430A4F70F9
:1004900072617661206E61207265666572656E2E8E
:1004A0000A626F6465206F2076696365206E657AE5
:1004B0000A20313020636D004572726F722038342B
:1004C0003A200A4E656C7A65207A6168616A6974BF
:1004D000206D6572656E690A646F6B7564206E6568
:1004E0006E690A756B6F6E63656E6F2070726564FE
:1004F00063686F7A692E004572726F722038353AE0
:10050000204368796261206B6F6E7665727A652030
:10051000696E7432737472696E672E0A50726576F2
:100520006164656E65206369736C6F206A65207015
:1005300072696C697320646C6F7568652E0A446F0C
:100540006368617A69206B2070726574656B616E97
:1005500069207665207679706973752E0045727210
:100560006F722038363A20446F736C6F206B2063B3
:10057000687962652076206B6F6E74726F6C6E693D
:100580006D0A736F7563747520707269207072697B
:100590006A6D75207A70726176790A6E6120766F65
:1005A0007A696B752E0A4E656D75736920746F20BC
:1005B0007A6E616D656E6174207A61646E6520701B
:1005C0006F74697A652E004572726F722038373AFF
:1005D00020507269207072696A6D75207A7072613C
:1005E0007679206E610A766F7A696B752062796C14
:1005F00061206B6F6D756E696B616365207A6168F0
:10060000616A656E610A6E65737072766E796D20CF
:100610007A6E616B656D004572726F722038383A80
:10062000204E65646F73746174656B2070616D65D5
:100630007469004572726F722038393A200A50721C
:10064000656B726F63656E20726F7A736168207577
:100650006C6F7A6974656C6E652064656C6B792E5D
:100660000A4D6178696D616C6E6920756C6F7A698D
:1006700074656C6E612064656C6B61206A65203204
:10068000352E35206D004572726F722039303A2058
:100690000A5072656B726F63656E20726F7A736158
:1006A0006820756C6F7A6974656C6E65686F207010
:1006B00072756D6572752E0A4D6178696D616C6E2B
:1006C0006920756C6F7A6974656C6E7920707275CB
:1006D0006D6572206A652036332E3520636D0045C6
:1006E00072726F722039313A200A5072656B726FE4
:1006F00063656E61206D6178696D616C6E692064FF
:100700006F6261206F64657A7679206E61200A7A63
:1007100070726176752E004572726F722039323AAE
:10072000200A56206475736C65646B75206F646A6B
:10073000657A647520766F7A696B75206F64206BBB
:1007400061747275200A7365206E65706F646172E2
:10075000696C6F2070726F7665737420646F737448
:100760006174656B206D6572656E692E0A4E616DF0
:100770006572656E612064617461206D6F686F756C
:1007800020627974206E65707265736E612E00450B
:1007900072726F722039333A200A56206475736C76
:1007A00065646B75206F646A657A647520766F7A0C
:1007B000696B75206F64206B617472752C200A6EF2
:1007C0006562796C6F207A616A697374656E6F20F7
:1007D000646F73746174656B206461742E0A4D6577
:1007E00072656E69206A65207A727573656E6F2E08
:1007F000004572726F722039343A200A4A65206EC1
:1008000075746E65206E656A6472697665207A61BA
:10081000646174206A6D656E6F207A616B617A6EB7
:10082000696B612E004572726F722039353A205A19
:10083000616B617A6E696B61206E656C7A65206FA1
:1008400064737472616E69742E200A42796C6F2031
:1008500070726F206E656A206A697A206E616D65BC
:1008600072656E6F206E656B6F6C696B206B6D656A
:100870006E752E0A50726564206F64737472616EB7
:10088000656E696D206A65206E75746E6520746191
:10089000746F206D6572656E690A736D617A61743B
:1008A0002E004572726F722039363A200A446F73F7
:1008B0006C6F206B20707265706C6E656E69206F56
:1008C000646573696C616369686F206275666665EB
:1008D0007275200A736572696F7665686F206B6147
:1008E0006E616C75206E61206B617472752E204E86
:1008F000656D75736920746F200A7A6E616D656E1F
:100900006174207A61646E6520706F74697A652EF7
:10091000004572726F722039393A200A506F6B7538
:1009200073206F206D6572656E69207072696C69E5
:1009300073206B7261746B65686F206B6D656E758B
:100940002E0A4E656A6B7261747369206D657269F7
:1009500074656C6E79206B6D656E206A6520326DF2
:100960002E004572726F72203130303A200A4E6587
:1009700073707261766E65207A6164616E65206362
:1009800069736C6F2E004572726F72203130313A8C
:100990002050616D6574207A617A6E616D75207A80
:1009A00061706C6E656E612E0A4E656C7A6520759D
:1009B0006B6C616461742064616C7369207A617A24
:1009C0006E616D792E204F6465736C6574650A6481
:1009D000617461206E61207365727665722E0045C8
:1009E00072726F72203130323A200A436879626144
:1009F00020707269206B6F6D756E696B6163692021
:100A0000736520736572766572656D2E000A20200D
:100A100020202020202020202020204461746120DC
:100A20006F6465736C616E612E000A50616D657450
:100A3000207A617A6E616D752074656D6572207AB9
:100A400061706C6E656E612E0A5A62797661206DF6
:100A50006973746F206E61206D656E65206E657AB6
:100A6000203130207A617A6E616D752E007072616E
:100A70007A646E65004D6572656E69207A616861A1
:100A80006A656E6F202020005A6D6572656E612068
:100A900064656C6B612020202020004D6572656EBE
:100AA0006920646F6B6F6E63656E6F2020004D650B
:100AB00072656E6920706F7A6173746176656E6FAE
:100AC00000200A20204F707261766475206F647375
:100AD0007472616E6974206A6D656E6F207A65202C
:100AE00073657A6E616D753F005A616B7A0044726E
:100AF0006576004F70657200446174610044656CF6
:100B00006B61007072756D5F76007072756D5F68F5
:100B1000004F6272617A6F766B61206D6572656EEF
:100B2000693A20463130202D205A6168616A656E2D
:100B300069206D6572656E690A463131202D205538
:100B40006C6F7A6974206D6572656E690A546162B2
:100B5000202D20506F6C6F7A6B612C204D657A656B
:100B600072202D20486F646E6F746120706F6C6FFF
:100B70007A6B790A456E746572202D2053657A6E02
:100B8000616D0053657A6E616D3A20456E746572D1
:100B9000284F4B29202D2056796265722F766C6F75
:100BA0007A656E69206A6D656E610A457363285ABD
:100BB000525553495429202D205A706574005365AD
:100BC0007A6E616D206D6572656E693A200A456EB8
:100BD000746572284F4B29202D20557072617669FB
:100BE0007420726164656B00436879626F7661207E
:100BF0006F6272617A6F766B613A200A456E746536
:100C000072284F4B292C20457363285A525553495B
:100C10005429202D206F6463686F6400536D726BDC
:100C200000426F724B00426F72420042756B2000AF
:100C300044756220003100320073616D6F00706195
:100C4000736F006D616E00200A20204F7072617614
:100C5000647520636863657465206F647374726182
:100C60006E6974206D6572656E693F00200A2020F0
:100C70004F707261766475206F64737472616E690F
:100C800074206A6D656E6F207A652073657A6E6177
:100C90006D753F004572726F722039373A20566188
:100CA0007A6E612063687962612062656875207080
:100CB000726F6772616D752E20202020556B6C61FC
:100CC00064616E69206461742E004572726F7220D7
:100CD00039373A204461746120756C6F7A656E61B2
:100CE0002E2052657365742E006B5F6972635F6BB3
:100CF000202020202020202020202020206C69730C
:100D000074610A6B5F6972635F6C0A765F69726314
:100D10005F6B0A765F6972635F6C006364696E6F14
:100D200070737578585B000011241FBECFE5D8E0C2
:100D3000DEBFCDBF11E0A0E6B0E0EEE1F8E702C013
:100D400005900D92AC33B107D9F716E0ACE3B1E0F2
:100D500001C01D92A234B107E1F70E9480070C94F4
:100D60000D3C0C94000089E08EBD80E189BF81E0DC
:100D70008BBD84EF8ABD0895089586E60E944E19C2
:100D80000895CF93DF930E941932EC01009719F474
:100D900088E50E944E19CE01DF91CF9108958AE037
:100DA00090E00E94C106FC0186E48083CF0160E0F0
:100DB0004CEB56E02DEB36E00E94C80C08951F93D3
:100DC0008AE090E00E94C106FC0189E0808311E086
:100DD0001183CF010E94460C8AE090E00E94C10678
:100DE000FC0186E180831183CF010E94460C1F9194
:100DF00008950F931F93CF93DF938C010E942E339E
:100E000001960E941932EC01009721F488E50E94B6
:100E10004E1903C0B8010E942733CE01DF91CF9154
:100E20001F910F9108951F920F920FB60F921124E8
:100E30002F933F934F935F936F937F938F939F93E2
:100E4000AF93BF93EF93FF9380913C0190913D014D
:100E5000019690933D0180933C010E94620F0E9495
:100E60001530FF91EF91BF91AF919F918F917F913D
:100E70006F915F914F913F912F910F900FBE0F9007
:100E80001F90189580B38695869580FD38C00E9486
:100E9000D91020E040ED57E001C020E0CA010197E1
:100EA000F1F7A895829BF9CF2F5F2630B8F320E0A9
:100EB00030E040ED57E0A895CA010197F1F72F5FA8
:100EC0003F4F81E0243F3807B1F71092180210928B
:100ED000170281E00E94121284E392E00E94EE1158
:100EE00020E030E040ED57E0A895CA010197F1F706
:100EF0002F5F3F4F83E128383807B1F7FFCF0895C0
:100F000020E040ED57E0CA010197F1F72F5F283C40
:100F1000D1F789E08EBD80E189BF81E08BBD84EF90
:100F20008ABD80E884BB15BA82BB0E94260F0E944E
:100F30002A120E9430110E9402190E94281D0E944C
:100F4000562F83E390E00E94DA0B0E947A0A0E94F7
:100F5000073078940E94DF0680913C0190913D011A
:100F6000069760F00E94B91210923D0110923C0168
:100F70000E94D5180E94311D0E948C0C0E945D2F8A
:100F80000E94250B0E9442070E94B319109218027A
:100F900010921702A895E0CF1092440110926300BE
:100FA0000895809144018D5F809344010895EF92EC
:100FB000FF920F931F93FC0120E030E0EE24FF240A
:100FC0008701462F50E00AC081919191A0E0B0E0E6
:100FD000E80EF91E0A1F1B1F2F5F3F4F241735070E
:100FE0009CF3262F30E040E050E0C801B7010E949A
:100FF000A93BC9011F910F91FF90EF9008952F9287
:101000003F924F925F926F927F928F929F92AF9298
:10101000BF92CF92DF92EF92FF920F931F93DF93D5
:10102000CF93CDB7DEB728970FB6F894DEBF0FBECB
:10103000CDBFB82EA92E423028F4E0E070E080E069
:1010400060E091C01B016B01882499240F2EF0E011
:10105000EF2EF0E0FF2EF0E00F2FF0E01F2FF02D2D
:10106000442E552413C0F601619171916F0180E007
:1010700090E00E94693A9B01AC01C801B7010E944F
:1010800068397B018C010894811C911C841495049F
:1010900054F3B201882777FD8095982F0E946B3A10
:1010A0009B01AC01C801B7010E94D03969837A83E2
:1010B0008B839C832B2D3A2DC9019E838D831886AB
:1010C0001F820F2EF0E06F2EF0E07F2EF0E08F2ECB
:1010D000F0E09F2EF02D64015301F10161917191B7
:1010E0001F0180E090E00E94693A29813A814B819A
:1010F0005C810E9467397B018C01ED81FE816191E9
:101100007191FE83ED8380E090E00E94693A9B013B
:10111000AC01C801B7010E941F3B9B01AC01C40197
:10112000B3010E9468393B014C01C801B701A80115
:1011300097010E941F3B9B01AC01C601B5010E94B3
:1011400068395B016C018F819885019698878F8340
:101150008415950514F2C401B301A60195010E94FE
:10116000D039E62F692F2E2F372F482F562FB90150
:10117000CA0128960FB6F894DEBF0FBECDBFCF913F
:10118000DF911F910F91FF90EF90DF90CF90BF9074
:10119000AF909F908F907F906F905F904F903F9017
:1011A0002F9008952F923F924F925F926F927F926D
:1011B0008F929F92AF92BF92CF92DF92EF92FF9267
:1011C0000F931F93DF93CF9300D000D0CDB7DEB73E
:1011D000582FE92F09831A832B833C83442329F456
:1011E000E0E070E080E060E062C02B01252F3E2F40
:1011F000C9017C0100E010E00F2EF0E06F2EF0E05E
:101200007F2EF0E08F2EF0E09F2EF02D6401530131
:10121000242E332422C0D2016D917D912D0180E0D6
:1012200090E00E94693A9B01AC01C401B3010E94A5
:1012300068393B014C01F701619171917F0180E0B8
:1012400090E00E94693A9B01AC01C601B5010E9481
:1012500068395B016C010F5F1F4F02151305DCF24B
:10126000B101882777FD8095982F0E946B3A7B010A
:101270008C01C601B501A80197010E94D0395B011C
:101280006C01C401B301A80197010E94D0399B01F0
:10129000AC0169817A818B819C810E941F3B9B01FB
:1012A000AC01C601B5010E946739E62F692F2E2FC8
:1012B000372F482F562FB901CA010F900F900F906A
:1012C0000F90CF91DF911F910F91FF90EF90DF90E2
:1012D000CF90BF90AF909F908F907F906F905F90D6
:1012E0004F903F902F9008954F925F926F927F9210
:1012F0008F929F92AF92BF92CF92DF92EF92FF9226
:101300000F931F93DF93CF93CDB7DEB72C970FB614
:10131000F894DEBF0FBECDBFB090630087E491E0CC
:1013200067E671E04B2D0E94FF072B013C0187E42B
:1013300091E067E671E04B2D930182010E94D20893
:1013400069877A878B879C8760913E0170913F0106
:1013500080E090E00E94693A20E030E040E05FE306
:101360000E941F3B9B01AC01C301B2010E941F3BC5
:1013700029853A854B855C850E9468390E943D3AF3
:10138000709319036093180387E591E067E671E0B5
:101390004B2D0E94FF076B017C0187E591E067E61A
:1013A00071E04B2D970186010E94D2086D837E83E8
:1013B0008F83988760913E0170913F0180E090E0BB
:1013C0000E94693A69837A838B839C8320E030E0B2
:1013D00040E05FE30E941F3B4B015C01C701B60187
:1013E000A50194010E941F3B7B018C012D813E8150
:1013F0004F8158850E9468390E943D3A709353028C
:1014000060935202809160008823F9F0833078F570
:10141000C301B201A50194010E941F3B29853A85B1
:101420004B855C850E946839A80197010E94683944
:101430002D813E814F8158850E94683920E030E03F
:1014400040E05FE30E941F3B0CC0C301B201A50155
:1014500094010E941F3B29853A854B855C850E943B
:1014600068390E943D3A7093410160934001809138
:10147000400190914101889FB001899F700D989F14
:10148000700D112480E090E00E94693A26E53EE06C
:1014900049E450E40E941F3B20E030E543EC58E46F
:1014A0000E94D03929813A814B815C810E941F3B87
:1014B0000E943D3A709343016093420183E0809320
:1014C0004401109263002C960FB6F894DEBF0FBE55
:1014D000CDBFCF91DF911F910F91FF90EF90DF90E3
:1014E000CF90BF90AF909F908F907F906F905F90C4
:1014F0004F900895BB9A0895809144018350809342
:1015000044010E94300F909362008093610008951F
:101510002F923F924F925F926F927F928F929F9203
:10152000AF92BF92CF92DF92EF92FF920F931F93F1
:10153000DF93CF9300D000D000D0CDB7DEB70E94AC
:10154000300F9E838D8390933F0180933E01893CB1
:10155000910508F45AC01092630027E6222E21E07C
:10156000322E88249924C2979E838D83A0E0B0E018
:1015700089839A83AB83BC83ED81FE81E659F04079
:101580002F0166247724E853FF4FFE83ED836981A2
:101590007A818B819C810E94693A5B016C01B40164
:1015A000882777FD8095982F0E946B3A25E239E4D1
:1015B00042E15EEB0E941F3B7B018C01C301B20143
:1015C0000E94693A9B01AC01C801B7010E941F3B10
:1015D0009B01AC01C601B5010E9468390E943D3AE9
:1015E000D1016D937D931D010894811C911CB8E07D
:1015F0008B16910461F682E080934401ED81FE81B7
:10160000F0936200E093610007C083E60E944E19E8
:10161000109244011092630026960FB6F894DEBF34
:101620000FBECDBFCF91DF911F910F91FF90EF9033
:10163000DF90CF90BF90AF909F908F907F906F90F2
:101640005F904F903F902F900895CF93DF938091BC
:101650004401813021F0823009F05EC00EC08091DB
:101660006000813039F480915002909151020B97C3
:1016700008F452C00E94880A4FC00E94300FEC014B
:101680008091610090916200C817D90728F4D09327
:101690006200C093610019C09E01281B390B2333DF
:1016A000310598F080916300823040F48DE50E940E
:1016B0004E19109244011092630007C0843018F450
:1016C0008CE50E944E190E94740920916300A22F9C
:1016D000B0E0AA0FBB1FFD01E959FE4F8081918147
:1016E000C817D907C8F4FD01E95BFE4F80911603C6
:1016F0009091170391838083A95ABE4F8091500225
:10170000909151028D939C93822F8F5F8093630001
:10171000883011F40E94740980914401833018F4D8
:10172000813030F407C0833029F08630F0F404C0F3
:10173000C39A1BC0C39819C080914501909146017E
:101740003FE0803A93076CF427E0803D920714F461
:10175000C39A01C0C39801969093460180934501B6
:1017600004C01092460110924501DF91CF91089577
:1017700080914401833018F48130C0F402C083307A
:10178000C1F480919B0190919C01803D910524F0D2
:1017900085E60E944E190895873C91051CF089EC5E
:1017A0000E944E1981E080934401089584E50E94CF
:1017B0004E19089590BD89B988E98AB98EE880BD2F
:1017C000ECE4F3E0119283E0EE35F807D9F7E5E2B7
:1017D000F3E0119283E0E733F807D9F78C9A089584
:1017E000CF93DF93EC0188818F3FE9F4DE0140E085
:1017F00050E013962C91139712968C9112972827EC
:10180000CA0195958795835FFE01E80FF11D8081E0
:10181000281749F44E5F5F4F12964A30510549F739
:1018200021E030E002C020E030E0C901DF91CF913B
:101830000895E0917801F0917901309769F0109264
:1018400079011092780110927E0110927D01099524
:1018500010927B0110927A010895E0917D01F09140
:101860007E01309709F0099510927B0110927A0160
:10187000109279011092780110927E0110927D01F0
:101880000895FC01E45BFC4F80810895CF93DF93C2
:10189000EC0140917000509171008FEF4F3F58075D
:1018A00051F41092710010927000D0933803C093DD
:1018B0003703559A2EC09881A7E3B3E0ED91FC91D0
:1018C00011978081891729F1129683E0A134B80716
:1018D000A9F74430510571F09A010FC0F901EE0FDC
:1018E000FF1FE95CFC4F80819181892B61F02430DE
:1018F000310519F420E030E002C02F5F3F4F24177C
:10190000350761F703C0D183C08303C080E60E941E
:101910004E19DF91CF9108958091780190917901CE
:10192000892BA9F180917A0190917B010196909386
:101930007B0180937A018958934148F180917C0121
:10194000882319F18BE090E00E94C106AC01682F5A
:10195000952F20E030E0FA01E20FF31FD901A058E3
:10196000BE4F8C9180832F5F3F4F2B30310599F70D
:10197000862F0E94460C80917C01815080937C01CF
:1019800010927B0110927A0108950E942D0C089507
:10199000DF92EF92FF920F931F93CF93DF93EC01AF
:1019A000D62E8A017901009731F484E690E062EE48
:1019B00071E00E946E19DD2031F484E690E063EE60
:1019C00071E00E946E1920E030E0F901E058FE4F0E
:1019D000DE01A20FB31F8C9180832F5F3F4F2B300E
:1019E000310599F710927B0110927A01D0927C0117
:1019F0001093790100937801F0927E01E0927D01CD
:101A0000012B31F484E690E06BEE71E00E946E19D8
:101A100080917D0190917E01892B31F484E690E0E4
:101A20006CEE71E00E946E19CE010E94460CDF91AF
:101A3000CF911F910F91FF90EF90DF9008950F933A
:101A40001F93CF93DF938C018BE090E00E941932BB
:101A5000EC01009721F488E50E944E1908C0B801F6
:101A60004BE050E00E941E33CE010E94460CDF91F5
:101A7000CF911F910F91089520E030E02F5F3F4FED
:101A8000F901E05CFC4FD901A45BBC4F8C918083D1
:101A90002B30310599F781E493E00E94780E089588
:101AA0001F920F920FB60F9211242F933F934F93D3
:101AB0005F936F937F938F939F93AF93BF93CF93D6
:101AC000DF93EF93FF939CB1ECE4F3E0818181938A
:101AD00083E0ED35F807D1F7908380917F018F5F28
:101AE00080937F01EF016197CE010E94F00B019777
:101AF00051F40E943C0DFE01119283E0EE35F8078F
:101B0000D9F710927F0180914C038F3F39F4809177
:101B10007F01833118F086E50E944E19FF91EF9105
:101B2000DF91CF91BF91AF919F918F917F916F91F5
:101B30005F914F913F912F910F900FBE0F901F908B
:101B40001895CF93DF93AC018FEF80932503EA01C3
:101B5000E6E2F3E0DA018D91819383E0E133F80767
:101B6000D1F7DA018C91909125038927808320E0B9
:101B700030E0F901F595E795EB5DFC4F8A8199819D
:101B8000892785872E5F3F4F22962A30310589F7B6
:101B9000CA010E94C632DF91CF910895E091700092
:101BA000F09171008FEFEF3FF807B1F1EE0FFF1FDB
:101BB000E95CFC4F808191810E94A10D80917000B1
:101BC00090917100FC01EE0FFF1FE95CFC4F118248
:101BD000108210926F0010926E008430910529F4EB
:101BE000109271001092700005C0019690937100E0
:101BF00080937000E0917000F0917100EE0FFF1F74
:101C0000E95CFC4F80819181892B31F48FEF9FEF4C
:101C1000909371008093700008951F920F920FB6F9
:101C20000F9211242F933F934F935F936F937F9362
:101C30008F939F93AF93BF93EF93FF9380916E0029
:101C400090916F008F5F9F4F11F40E94CE0D2091F5
:101C50006E0030916F008FEF2F3F380769F122310E
:101C6000310559F0F901EB5DFC4F80818CB92F5F94
:101C70003F4F30936F0020936E0080916E009091E3
:101C80006F004297D1F48091720090917300009799
:101C900031F0019790937300809372000EC084EF2F
:101CA00091E090937300809372008FEF9FEF909379
:101CB0006F0080936E0001C05598FF91EF91BF9126
:101CC000AF919F918F917F916F915F914F913F91D4
:101CD0002F910F900FBE0F901F9018958BE792E0F9
:101CE0000E941F0D089587E892E00E941F0D08953D
:101CF000CF93DF93EC018881803109F45FC081319B
:101D000080F48A3039F18B3030F48430E9F0873058
:101D100009F094C01BC08E3021F18F3009F08EC0C5
:101D200033C08A3109F46BC08B3138F4813109F446
:101D300052C0843109F082C05EC0803409F463C0AF
:101D4000883409F07BC06DC084E001C087E00E9448
:101D50004E1974C00E94D91087E892E00E941F0DAE
:101D60000EC0998180E02A81820F911D0E9443104C
:101D70000E94210FBC0184E090E00E94CD108BE70F
:101D800092E00E941F0D5AC0798160E0882777FD9C
:101D90008095982F2A81620F711D811D911D0E94CF
:101DA0001010409174005091750060917600709110
:101DB000770086E090E00E94AC10E1CF8BE090E0ED
:101DC0000E941932AC01DC01FE018BE001900D9202
:101DD0008150E1F70CC08BE090E00E941932AC0119
:101DE000DC01FE018BE001900D928150E1F7CA0108
:101DF0000E94460CC4CFCE010E94190C1FC08981DD
:101E0000809360001BC09A8180E02981820F911D20
:101E1000909317038093160380916000813071F4D2
:101E200004C080916000823049F49C8180E02B8165
:101E3000820F911D9093510280935002DF91CF91B8
:101E400008958091780090917900089582B3806E12
:101E500082BB80B382958695877080935E030895D8
:101E6000EF92FF920F931F936091920170919301F3
:101E7000809194019091950197FF04C060E070E01B
:101E800080E090E00E946B3A27E137EB41ED58E3A8
:101E90000E941F3B7B018C0160917800709179005A
:101EA00080E090E00E94693A9B01AC01C801B70153
:101EB0000E941F3B0E943D3ACB011F910F91FF9062
:101EC000EF900895DF92EF92FF920F931F93D0B29D
:101ED000D294D69487E0D822E0905E03ED242D2D95
:101EE00026952D2521708E2D90E083709070823084
:101EF000910581F083309105A1F10197A9F58091B9
:101F0000920190919301A0919401B09195012223A7
:101F100059F418C08091920190919301A09194017D
:101F2000B0919501222371F40197A109B109809321
:101F3000920190939301A0939401B0939501109214
:101F4000960112C00196A11DB11D8093920190933C
:101F50009301A0939401B093950181E08093960141
:101F600003C086E00E944E198E2D8695869580FFCF
:101F70004FC080919601813009F04AC08D2D869521
:101F8000869509F045C08091740090917500A091EC
:101F90007600B09177002091920130919301AC01CD
:101FA000421B530B9A018093920190939301A0934B
:101FB0009401B093950157FF03C0309521953F4F91
:101FC000B901882777FD8095982F0E946B3A27E109
:101FD00037EB41ED58E30E941F3B7B018C01609180
:101FE00078007091790080E090E00E94693A9B014E
:101FF000AC01C801B7010E941F3B20E030E040E285
:1020000051E40E941B3B18161CF483E50E944E19F4
:10201000D0925E031F910F91FF90EF90DF90089593
:10202000EF92FF920F931F930E946B3A7B018C01FA
:10203000609178007091790080E090E00E94693AA8
:102040009B01AC0160E070E08AE794E40E94D03923
:102050009B01AC01C801B7010E941F3B0E94383AA6
:10206000AB01BC01409374005093750060937600FF
:102070007093770084E090E00E94AC101F910F9164
:10208000FF90EF90089529E130E0AC01429FC0013C
:10209000439F900D529F900D11246CE070E00E94C0
:1020A000823B609378007093790084E090E00E9416
:1020B000CD1008959C01E199FECF3FBB2EBBE09A65
:1020C0008DB308959C01E199FECF3FBB2EBB6DBB44
:1020D0000FB6F894E29AE19A0FBE08959C0110920F
:1020E000180210921702A895E199FECFE199FECF50
:1020F0003FBB2EBB6DBB0FB6F894E29AE19A0FBEC0
:1021000008959C01E199FECF3FBB2EBBE09A8DB3B1
:102110000895DF93CF9300D000D0CDB7DEB7BC01D8
:102120001092180210921702A89519821A821B8227
:102130001C82CE01019644E050E02AE530E10E9485
:102140004D3369817A818B819C810F900F900F9024
:102150000F90CF91DF910895DF93CF9300D000D0FF
:10216000CDB7DEB749835A836B837C83E199FECF79
:10217000BE016F5F7F4F44E050E022E630E10E94F5
:102180007F330F900F900F900F90CF91DF910895B4
:102190006AE570E10E946933089510921802109266
:1021A0001702A895E199FECF42E650E10E949B33C9
:1021B0000895A8958FEF9FEF9093180280931702D0
:1021C00088E10FB6F89481BD11BC0FBE4091920119
:1021D00050919301609194017091950180E090E09D
:1021E0000E94AC1020916000A895E199FECFE19982
:1021F000FECF8AE090E09FBB8EBB2DBB0FB6F8945C
:10220000E29AE19A0FBE1092180210921702A89556
:10221000E199FECFE199FECF8BE090E09FBB8EBBB2
:102220008FE38DBB0FB6F894E29AE19A0FBE0E943D
:1022300017218CE090E00E94DF178CE990E00E946B
:1022400042182FE088E190E00FB6F894A89581BD80
:102250000FBE21BD1092180210921702A895089582
:1022600080E090E00E948910609392017093930146
:10227000809394019093950184E090E06AE570E189
:102280000E946933909379008093780086E090E013
:102290000E9489106093740070937500809376009B
:1022A00090937700E199FECF8AE090E09FBB8EBBD0
:1022B000E09A8DB3833008F081E080936000E1996B
:1022C000FECF8BE090E09FBB8EBBE09A8DB38F3347
:1022D00099F4E199FECF8AE090E09FBB8EBBE09A33
:1022E0008DB3809360008CE090E00E9475178CE9BC
:1022F00090E00E942718089580E591E00E94431025
:102300006CEC70E180E090E00E9410100E94761664
:10231000089520E080917F0090918000049709F457
:1023200021E0822F089580E090E032E0232F2A956B
:10233000F1F701968A3F9105C9F70895E4E5F2E0C7
:1023400080E2808380A7E05BFF4F8083B896808324
:10235000E757F04092E0EC37F90799F70895FC0150
:1023600080E29F01285D3F4F808380A7E05BFF4FA5
:102370008083B8968083E757F040E217F307A1F710
:10238000089520E030E042E0942F9A95F1F72F5F16
:102390003F4F2A3F3105C1F78BBB88B3887F8560EB
:1023A00088BB80E090E032E0232F2A95F1F7019678
:1023B0008A3F9105C9F788B3887F816088BB80E038
:1023C00090E032E0232F2A95F1F701968A3F91059C
:1023D000C9F788B3887F856088BB0895CF93DF9362
:1023E000EC0102C00E94C111FE0184912196882354
:1023F000C9F7DF91CF9108959C01683271058CF483
:102400008430910574F488E290E0289FF001299FC0
:10241000F00D389FF00D1124E60FF71FEC5AFD4F19
:10242000408308958BBB88B3887F866088BB20E299
:102430003EE4C9010197F1F788B3887F88BBC901E1
:102440000197F1F788B3887F866088BBC90101973F
:10245000F1F7089544E552E050934F0240934E0245
:1024600087B3876087BB8FEF8ABB20E23EE4C90158
:102470000197F1F7C9010197F1F7C9010197F1F748
:1024800088B3887F88BBC9010197F1F788B3887F3B
:10249000846088BBC9010197F1F788E38BBB88B3DF
:1024A000887F866088BBC9010197F1F788B3887F70
:1024B00088BBC9010197F1F788B3887F866088BB24
:1024C000C9010197F1F78CE08BBB88B3887F8660E8
:1024D00088BBC9010197F1F788B3887F88BBC90120
:1024E0000197F1F788B3887F866088BBC90101979F
:1024F000F1F786E08BBB88B3887F866088BBC90113
:102500000197F1F788B3887F88BBC9010197F1F77C
:1025100088B3887F866088BBC9010197F1F781E0A5
:102520008BBB88B3887F866088BBC9010197F1F7B0
:1025300088B3887F88BBC9010197F1F788B3887F8A
:10254000866088BBC9010197F1F788B3887F8560F1
:1025500088BBFA0180E2808380A7E05BFF4F808325
:10256000B8968083E757F04092E0EC37F90799F787
:10257000089540917F005091800020919701309103
:1025800098014430510519F52130310561F02230B0
:10259000310569F02115310571F482E08BBB88B3F8
:1025A000887F866002C088B3887F88BB45C088B3B7
:1025B000876088BB03C022303105F1F51092980185
:1025C0001092970110929A01109299015BC02130EC
:1025D0003105F9F02230310549F12115310549F570
:1025E00088E290E0BC01469FC001479F900D569F36
:1025F000900D1124E0914E02F0914F02E80FF91F67
:102600008091990190919A01E80FF91F80818BBB0D
:102610000DC0423051052CF488B3887F836088BB9D
:1026200012C088B3887F856088BB03C088B3876089
:10263000BCCF2130310539F02F5F3F4F30939801E7
:10264000209397010895109298011092970180911C
:10265000990190919A018732910534F401969093F3
:102660009A0180939901089510929A01109299010C
:10267000443051053CF44F5F5F4F509380004093CE
:102680007F0008951092800010927F000895AF920D
:10269000BF92CF92DF92EF92FF921F93CF93DF937F
:1026A000DC01EB017A01683271050CF050C0843016
:1026B00091050CF04CC0FA01149140E050E088E222
:1026C000C82ED12C1FC0F50111935F014F5F5F4FE2
:1026D000FB0184916F5F7F4F8A3021F02F5F3F4F66
:1026E000182F26C011964F5F5F4FF701E40FF51FBB
:1026F0001491A430B10534F080E50E944E1920E019
:1027000030E01EC0AC9D5001AD9DB00CBC9DB00C26
:102710001124AC0EBD1E84E592E0A80EB91E4F5FD9
:102720005F4FB701640F751F4150504020E030E00B
:10273000112331F0C9018C0F9D1F88970CF4C3CF72
:102740002C0F3D1F293231052CF081E501C082E5B7
:102750000E944E19DF91CF911F91FF90EF90DF9073
:10276000CF90BF90AF900895AF92BF92CF92DF927B
:10277000EF92FF920F931F93CF93DF93DC018B01B6
:102780007A01E9012115310511F4CAE7D0E088E2A8
:10279000E816F1040CF04CC0043011050CF048C0F0
:1027A000E88188E290E0089FB001099F700D189FB2
:1027B000700D11246A0F7B1F40E050E023C0D6014A
:1027C000ED936D014F5F5F4FD5011196EC91089429
:1027D000A11CB11CEA3019F02F5F3F4F1BC00F5FE7
:1027E0001F4F4F5F5F4FFE01E40FF51FE081685DF3
:1027F0007F4F0430110534F080E50E944E1920E02F
:1028000030E00FC06B01CE0CDF1C5E01A40EB51EC4
:1028100020E030E0EE2329F0C9018E0D9F1D88973E
:1028200074F22E0D3F1D293231052CF081E501C0D7
:1028300082E50E944E19DF91CF911F910F91FF9079
:10284000EF90DF90CF90BF90AF900895FC01DB0137
:102850009A0184E592E0BF01AD010E94B41308958E
:102860009C0184E592E060E070E040E050E00E946E
:10287000B4130895AC0120E030E0A62FB0E080E270
:1028800006C0FA01E20FF31F80832F5F3F4F2A1724
:102890003B07BCF3A40FB51F1C92CA010895AC01FD
:1028A00020E030E002C02F5F3F4FFA01E20FF31F3C
:1028B00080818823C1F7C90108958F929F92AF92BA
:1028C000BF92CF92DF92EF92FF920F931F93DF930D
:1028D000CF93CDB7DEB72A970FB6F894DEBF0FBE01
:1028E000CDBF4C017B01B42E452FDE011196E1E8EE
:1028F000F0E08AE001900D928150E1F7F401EE0DD5
:10290000FF1D1082D401AC90B5E0EB16F1041CF071
:1029100004E010E003C0870101501040F801EE0F01
:10292000FF1F9E012F5F3F4FE20FF31F60817181F8
:102930008B2D942F0E94823B6A30710590F40430F5
:10294000110549F1C8010196880F991F280F391FF9
:10295000F901608171818B2D942F0E94823BB82EEA
:10296000492FCC24DD24F0E3AF1619F431E0C32E57
:10297000D12CF701E01BF10B3197E80DF91DC801CF
:10298000880F991F7E010894E11CF11CE80EF91EC6
:1029900090E2A92E2AC069857A85DDCFD7012D91D5
:1029A0003C918B2D942FB9010E94823BCB01611584
:1029B000710541F4C114D10429F42230310510F01D
:1029C000A08205C0805D808381E0C82ED12C8B2D34
:1029D000942FB9010E94823BB82E492F015010401C
:1029E00031968EEF9FEFE80EF91E17FFD7CFC40187
:1029F0002A960FB6F894DEBF0FBECDBFCF91DF9100
:102A00001F910F91FF90EF90DF90CF90BF90AF900C
:102A10009F908F9008959C01AB0160E070E002C030
:102A20006F5F7F4FF901E60FF71F80818823C1F7A1
:102A3000C9010E945D1408959C01E199FECF3FBB3E
:102A40002EBBE09A8DB308959C01E199FECF3FBB68
:102A50002EBB6DBB0FB6F894E29AE19A0FBE0895B3
:102A60000F931F939C013695279581709070880F66
:102A7000880F082F10E0AFE5B3E0B901E3E0660F7F
:102A8000771FEA95E1F7621B730BFB01E00FF11F63
:102A9000EA0FFB1F2081822F869545E0849FC001AD
:102AA00011249093A2018093A10130E02170307035
:102AB000322F2227A60FB71FFD01E00FF11F8181E2
:102AC000280F311DC901880F991F880F991F820F88
:102AD000931F90939F0180939E018281982F9695DA
:102AE000969596959093A00187708093A301139675
:102AF0008C9190E002C0959587950A95E2F78F70CA
:102B00008093A4011F910F910895AC0156954795AC
:102B100081709070880F880F682F70E0AFE5B3E088
:102B20009A01E3E0220F331FEA95E1F7241B350BEE
:102B3000F901E60FF71FEA0FFB1F808190E081701B
:102B40009070982F8827A20FB31FA60FB71F11965A
:102B50002C91820F911D9C01220F331F220F331FD6
:102B6000280F391FC90108959C0121703070220F70
:102B7000220F96958795FC01A3E0EE0FFF1FAA9503
:102B8000E1F7E81BF90BE20FF11DE15AFC4F208140
:102B9000269585E0289F90011124C90108959C0184
:102BA00021703070220F220F96958795FC0133E03B
:102BB000EE0FFF1F3A95E1F7E81BF90BE15AFC4FC6
:102BC000E20FF11D828186958695869508959C0178
:102BD00021703070220F220F96958795FC0153E0EB
:102BE000EE0FFF1F5A95E1F7E81BF90BE15AFC4F76
:102BF000E20FF11D8281877008959C01969587955B
:102C0000FC0173E0EE0FFF1F7A95E1F7E81BF90B6B
:102C1000E15AFC4F838190E021703070220F220F27
:102C200002C0959587952A95E2F78F700895CF9306
:102C3000DF93482FC0919B01D0919C011EC09E0143
:102C400021703070220F220FCE0196958795FC01DE
:102C5000A3E0EE0FFF1FAA95E1F7E81BF90BE15A7D
:102C6000FC4FE20FF11D828186958695869584172B
:102C700021F4CE010E94301505C02197D7FFDFCF88
:102C8000CFEFDFEFCE01DF91CF910895AC01E4EFFC
:102C9000F2E020E030E002C02F5F3F4F8081918161
:102CA000892B21F032962F303105B1F7F901EE0F63
:102CB000FF1FEC50FD4F518340832F30310511F43D
:102CC0008FE00895822F08950F931F938C01000FBA
:102CD000111F0C501D4FF801808191810E94C63256
:102CE000F801118210821F910F910895CF93DF9305
:102CF000C4EFD2E088819981009721F00E94C6320A
:102D000019821882229683E0C431D80799F78091FE
:102D100093009091940099838883DF91CF910895D7
:102D200010929C0110929B010E9476160E947616CA
:102D300008959F92AF92BF92CF92DF92EF92FF924F
:102D40000F931F93CF93DF93EC01D62EC42E922EB8
:102D5000C8015E01B694A794029665E070E00E94F7
:102D6000823B8B0122E06030720728F089E50E94E7
:102D70004E190FEF11E0C701029665E070E00E9466
:102D8000823BCB016038710528F08AE50E944E191C
:102D90008FE790E0C170D0709E01220F220F422F6A
:102DA00050E0D50123E0AA0FBB1F2A95E1F7AA192D
:102DB000BB09FD01E40FF51FE15AFC4F880F912F6D
:102DC0009170892B8083A15ABC4FFD01E40FF51F40
:102DD0000183DD0CDD0CDD0CDC28D28280EF90E07D
:102DE000042E02C0959587950A94E2F713962C91CC
:102DF00013972823892D90E002C0880F991F4A95C8
:102E0000E2F7282B13962C93DF91CF911F910F910E
:102E1000FF90EF90DF90CF90BF90AF909F9008957C
:102E2000EF92FF920F931F93582F762FA42FF90143
:102E3000780180919B0190919C01652F472F2A2F4B
:102E40008F010E94991680919B0190919C0101969F
:102E500090939C0180939B011F910F91FF90EF90A5
:102E60000895CF92DF92EF92FF920F931F93CF932B
:102E7000DF939C0180919B0190919C012817390759
:102E800010F4E9011DC08AE00E944E1925C06E01B0
:102E90000894C11CD11CC6010E94301500919E01EE
:102EA00010919F01E090A101F090A201CE016091EC
:102EB000A0014091A3012091A4010E949916E6016E
:102EC00080919B0190919C010197C817D907F8F256
:102ED00090939C0180939B01DF91CF911F910F9163
:102EE000FF90EF90DF90CF900895AF92BF92CF9276
:102EF000DF92EF92FF920F931F93CF93DF93182FE0
:102F0000092F0E947616212F302FC901EC01EE24E3
:102F1000FF2400E010E065E2A62E62E0B62EDC2E73
:102F2000CD2ECE010E948110F801EB5DFD4F808314
:102F3000882389F5F50101900020E9F73197E552E2
:102F4000F2408E2FEE2341F4F701EE0FFF1FEC50FD
:102F5000FD4F1182108216C090E001960E94193236
:102F60008C01009721F488E50E944E190BC065E2A0
:102F700072E00E943733F701EE0FFF1FEC50FD4F58
:102F8000118300830894E11CF11C80E1E816F10430
:102F90004CF40FEF1FEF0F5F1F4F21960D301105FF
:102FA0000CF4BDCF8D2D9C2DDF91CF911F910F91F2
:102FB000FF90EF90DF90CF90BF90AF900895CF92A9
:102FC000DF92EF92FF920F931F93CF93DF936C01E9
:102FD00074EFE72E72E0F72EC0E0D0E0E199FECF6B
:102FE000F70160817181C6018C0F9D1F611571050C
:102FF00079F0DB010D900020E9F7A61B0A2F10E005
:10300000A80124E235E10E947F33C00FD11F09C01F
:103010006BE870E041E050E024E235E10E947F334C
:10302000219682E090E0E80EF91E94E1E91693E023
:10303000F906A1F696012C0F3D1FC901DF91CF9132
:103040001F910F91FF90EF90DF90CF9008950F9315
:103050001F938C018FE593E0B8014FED52E02CE116
:1030600035E10E944D33C80180529D4F0E94C81027
:1030700090939C0180939B010E511D4FC8011F919D
:103080000F910895CF93DF93EC01E199FECFCE012C
:103090006FE573E04FED52E024E235E10E947F33AB
:1030A000E199FECF60919B0170919C01CE0180520D
:1030B0009D4F0E94CD109E012E513D4FC901DF91C1
:1030C000CF910895843081F0853018F4882331F051
:1030D0000895853031F0883061F409C00E94522192
:1030E00008950E94792C08950E948F2608950E94C9
:1030F000433008958430B1F0853038F48230C1F027
:103100008330C8F4882341F00895873071F0883007
:10311000A9F08530A9F403C00E94D22408950E942A
:103120008E2C08950E94ED2608950E94B32F0895D5
:103130000E94842508950E94491908950E94AF3184
:1031400008958330B9F0843028F4882351F0823018
:10315000C9F40DC0853089F0853030F0883091F4A5
:103160000FC00E94862108950E94982808950E9409
:10317000A32508950E940C1B08950E94FD2C08951C
:103180000E94A43108951F93182F8091A5018117E3
:1031900041F00E946218812F0E947A181093A501B5
:1031A000812F0E94A1181F9108950E9489118823E0
:1031B00041F18091A5018430C9F0853038F4823026
:1031C00079F0833080F4882341F008958730A1F0AE
:1031D0008830A9F08530A9F40CC00E94012208951E
:1031E0000E948E2508950E94BD1908950E941C29F1
:1031F00008950E940B2D08950E94F72F08950E94B4
:10320000C53008950E94F6250E94F8200E94D2241D
:103210000E94862108950E94F21C8823B9F085300F
:1032200051F0863018F4843089F408C0853149F0B3
:10323000863161F409C02FEF3FEF0AC021E030E092
:1032400007C00E94093202C00E943C2F20E030E0FB
:10325000C90108950F931F938C010E949E1180E075
:1032600090E060E070E0A8010E94471383E090E0E6
:1032700064E070E043E952E00E94471383E090E08D
:1032800068E170E04EE952E00E9447131F910F91F0
:1032900008958091A5018093A60108958093B700B9
:1032A00081E08093A90108951F93CF93DF93182F96
:1032B000EB01863930F485E990E066E770E00E9422
:1032C0006E191093B700D093A801C093A70183E0B3
:1032D0000E94C318DF91CF911F910895CF92DF9282
:1032E000EF92FF920F931F93D82EC92E8B01A82F18
:1032F000B92FFD0101900020E9F7EA1BFB0BCF017C
:103300004A960E94C106F82EE92E8DB79EB70897FF
:103310000FB6F8949EBF0FBE8DBFEDB7FEB73196C6
:10332000ADB7BEB71196FC92E1828DE990E0938330
:103330008283D482C582178306830E94B0338DB7FF
:103340009EB708960FB6F8949EBF0FBE8DBF86E954
:103350006F2D7E2D0E9454191F910F91FF90EF90B9
:10336000DF90CF9008958091A901813029F483E006
:103370000E94C3181092A90108950E94F21C88238C
:10338000A9F0853171F0863120F48450823070F4D8
:1033900003C0863159F408C08091A6010E94C31869
:1033A00008950E94093208950E943C2F089580914B
:1033B000B700883509F4C3C0893570F5803509F444
:1033C00086C08135B0F4863009F465C0873038F4A2
:1033D000813009F452C0843009F01DC155C08A30D3
:1033E00009F467C08B3009F46BC0873009F013C152
:1033F00059C0843509F487C0853538F4823509F41D
:1034000074C0833508F078C069C0863509F489C076
:10341000873508F08DC07EC08F3509F4C1C0803675
:1034200098F48B3509F4A0C08C3538F4893509F44B
:103430008DC08A3509F0EFC090C08D3509F4A2C067
:103440008E3508F0A6C097C0853609F4C5C086360B
:1034500050F4833609F4B2C0843608F0B6C0803622
:1034600009F0D9C0A4C0883C09F4C4C0893C09F45F
:10347000CAC0863609F0CFC0B6C080E090E060E0F8
:1034800070E04BEA52E0BCC080E090E060E070E0A9
:1034900044E153E0B5C080E090E060E070E043E4D8
:1034A00053E0AEC080E090E060E070E043E753E0BE
:1034B000A7C080E090E060E070E04EEB53E0A0C079
:1034C00080E090E060E070E040ED53E099C080E083
:1034D00090E060E070E044EE53E092C080E090E065
:1034E00060E070E04EE154E08BC080E090E060E08E
:1034F00070E04BE454E084C080E090E060E070E075
:103500004AE754E07DC080E090E060E070E048EB86
:1035100054E076C080E090E060E070E047EF54E077
:103520006FC080E090E060E070E04DE555E068C07D
:1035300080E090E060E070E047EC55E061C080E042
:1035400090E060E070E047E156E05AC080E090E033
:1035500060E070E043E356E053C080E090E060E05C
:1035600070E046E856E04CC080E090E060E070E03B
:103570004FED56E045C080E090E060E070E047E14C
:1035800057E03EC080E090E060E070E04FE857E038
:1035900037C080E090E060E070E041EF57E030C07D
:1035A00080E090E060E070E045E258E029C080E013
:1035B00090E060E070E042EA58E022C080E090E0F5
:1035C00060E070E041E159E01BC080E090E060E025
:1035D00070E042E659E014C080E090E060E070E006
:1035E00046E859E00DC080E090E060E070E04FED0B
:1035F00059E006C080E090E060E070E04DE05AE005
:103600000E944713089580E090E060E070E04AE295
:103610005AE00E94471308958091A601833011F467
:103620001092A6010E949E118091B70086598233A4
:10363000A8F44091A7015091A80180E090E060E0DB
:1036400070E00E9426148091A7019091A8010E9429
:10365000C6321092A8011092A70108950E94D719AE
:103660000895282F882321F19091B101992319F40D
:10367000E0E0F0E017C08091B2018093B001909338
:10368000AF019091B301992359F08091B4018093D7
:10369000B2019093B1012093B3016093B4010895F6
:1036A000E1E0F0E0EE0FFF1FE155FE4F2083618364
:1036B00008959091AE01992309F0D3C090E0FC01E8
:1036C0003197E03FF10508F006C1E65DFF4FEE0FD0
:1036D000FF1F0590F491E02D099481E06DE3F3C0A4
:1036E00082E061E0F0C082E062E0EDC081E061E58F
:1036F000EAC081E067E5E7C081E065E4E4C081E01D
:1037000062E5E1C081E064E5DEC081E069E5DBC03F
:1037100081E065E5D8C081E069E4D5C081E06FE46F
:10372000D2C081E060E5CFC081E06BE5CCC081E034
:103730006DE5C9C081E06CE5C6C082E063E0C3C04E
:1037400081E061E4C0C081E063E5BDC081E064E484
:10375000BAC081E066E4B7C081E067E4B4C081E04C
:1037600068E4B1C081E06AE4AEC081E06BE4ABC064
:1037700081E06CE4A8C081E06BE3A5C081E067E272
:10378000A2C081E06AE59FC081E068E59CC081E05D
:1037900063E499C081E066E596C081E062E493C08D
:1037A00081E06EE490C081E06DE48DC081E06CE268
:1037B0008AC081E060E287C082E065E084C081E089
:1037C00060E381C081E061E37EC081E062E37BC0B1
:1037D00081E063E378C081E064E375C081E065E384
:1037E00072C081E066E36FC081E067E36CC081E096
:1037F00068E369C081E069E366C081E06DE263C0AF
:1038000081E06EE260C081E06AE25DC081E06BE26F
:103810005AC082E06BE057C082E06CE054C082E0A6
:103820006DE051C082E06EE04EC082E06FE04BC0C0
:1038300082E060E148C082E061E145C082E062E18F
:1038400042C082E063E13FC082E064E13CC082E0CC
:1038500065E139C082E066E136C080EE37C080EFB6
:1038600035C0903EB1F5823701F1833760F48A3577
:1038700029F18B3518F48A3471F523C08B36C1F0E9
:10388000813749F50CC0853769F0863718F48437DD
:1038900011F511C0803ED1F0803FE9F417C082E0FD
:1038A00066E011C082E067E00EC082E068E00BC015
:1038B00082E069E008C082E06AE005C082E064E07E
:1038C00002C081E06FE20E94311B08958093AE0137
:1038D00008951092AE0108951F920F920FB60F92A5
:1038E00011242F933F934F935F936F937F938F9305
:1038F0009F93AF93BF93EF93FF931092AB011092FE
:10390000AA012091AC01822F81508830A0F483B3AA
:1039100090E081709070332727FD30952150304022
:1039200002C0880F991F2A95E2F72091AD01282B3C
:103930002093AD010BC02A3049F48FEF8093AC0186
:103940008091AD010E94591B1092AD018091AC0194
:103950008F5F8093AC01FF91EF91BF91AF919F91E9
:103960008F917F916F915F914F913F912F910F9028
:103970000FBE0F901F9018958091AF01813011F00C
:1039800020E02EC02091B0019091B101992329F43B
:10399000A1E0B0E0E0E0F0E017C08091B2018093D8
:1039A000B0019093AF019091B301992349F08091B8
:1039B000B4018093B2019093B1011092B30110C091
:1039C000A2E0B0E0E1E0F0E0EE0FFF1FE155FE4FB6
:1039D000AA0FBB1FA155BE4F11968C9181831082F7
:1039E000822F08958091AF01823011F020E02EC027
:1039F0002091B0019091B101992329F4A1E0B0E0A8
:103A0000E0E0F0E017C08091B2018093B0019093A4
:103A1000AF019091B301992349F08091B401809353
:103A2000B2019093B1011092B30110C0A2E0B0E0D6
:103A3000E1E0F0E0EE0FFF1FE155FE4FAA0FBB1FC4
:103A4000A155BE4F11968C9181831082822F0895CB
:103A500085B7886085BF8BB780688BBFA89A939A1B
:103A600008958091AA019091AB0123E0893E9207CD
:103A700028F01092AC011092AD0108950196909338
:103A8000AB018093AA010895FF920F931F93CF93E8
:103A9000DF938C01F42EC62FD0E0FE01EE0FFF1F46
:103AA000E00FF11F0190F081E02D608170E0615026
:103AB0007040818190E040E20E94FC11209711F457
:103AC000CF2DD0E02197FE01EE0FFF1FE00FF11F79
:103AD0000190F081E02D608170E061507040818143
:103AE00090E04FEF0E94FC118C2FDF91CF911F913E
:103AF0000F91FF900895EF92FF920F931F93CF9332
:103B0000DF937C01042FC62FD0E0FE01EE0FFF1FD4
:103B1000E80FF91F0190F081E02D608170E06150A5
:103B20007040818190E040E20E94FC1110E0015061
:103B30001040C017D1071CF0C0E0D0E001C02196B2
:103B4000FE01EE0FFF1FEE0DFF1D0190F081E02D35
:103B5000608170E061507040818190E04FEF0E9481
:103B6000FC118C2FDF91CF911F910F91FF90EF905F
:103B70000895CF92DF92EF92FF920F931F93CF930E
:103B8000DF93062F10E0000F111F080F191FD80137
:103B9000ED91FC91858190E0880F991F0380F4815D
:103BA000E02DE80FF91F0190F081E02D309711F41E
:103BB00068E007C0DF0101900020E9F731976E2F20
:103BC0006A1B50E0D801ED91FC914581242F30E033
:103BD000828190E00197281739071CF44F5F4583D5
:103BE00001C015825F5FD801ED91FC91828185173C
:103BF00018F48FEF85830DC0858190E0880F991FA1
:103C00000380F481E02DE80FF91F80819181892BD9
:103C1000C9F2D801ED91FC9185818F3F11F4E0E06C
:103C200010C090E0880F991F0380F481E02DE80F09
:103C3000F91FA081B181FD0101900020E9F73197C2
:103C4000EA1BE617D0F46E1BC0E0D0E0C62EDD24E0
:103C5000EE2EFF240FC0D801ED91FC918081B701B9
:103C6000680F711D6C0F7D1F818190E040E20E9402
:103C7000FC112196CC15DD0574F3D801ED91FC9172
:103C80008581118100818F3F41F485E292E06DE6EC
:103C90007AE00E942733AC010AC090E0880F991F98
:103CA0000380F481E02DE80FF91F40815181812FBD
:103CB00090E0602F70E00E942614DF91CF911F9159
:103CC0000F91FF90EF90DF90CF9008959F92AF9269
:103CD000BF92CF92DF92EF92FF920F931F93CF93F9
:103CE000DF936C01942EEC01EE24FF24A62EBB245E
:103CF0004EC0A881B9811396ED91FC91149730972D
:103D000009F441C015962C91822F90E0880F991FDD
:103D1000E80FF91F80819181892B31F42F3F21F029
:103D2000C601692D0E94B91DA881B98115962C91F3
:103D30001597822F90E0880F991F1396ED91FC91B3
:103D40001497E80FF91F408151814115510519F46D
:103D50002F3FC9F402C02F3F79F411961C9111979F
:103D60000C9185E292E06DE67AE00E942733AC0187
:103D7000812F90E0602F04C06C9111968C9190E09F
:103D800070E00E9426140894E11CF11C2296EA14AB
:103D9000FB040CF4AECFE92DF0E0EE0FFF1FEC0DAD
:103DA000FD1D0190F081E02D608170E06150704058
:103DB000818190E04FEF0E94FC11DF91CF911F9124
:103DC0000F91FF90EF90DF90CF90BF90AF909F90BA
:103DD0000895EF92FF920F931F93CF93DF93F82EE6
:103DE000E92E8B011092B8011092B701FA010190EF
:103DF0000020E9F73197E41BF50BE093B9016093DC
:103E0000BA018093BB014093BC015093BD01C0E057
:103E1000D0E009C0BE01600F711F8F2D9E2D40E2C2
:103E20000E94FC1121968091B90190E0C817D90732
:103E30008CF38091BA016091B7017091B801680F5D
:103E4000711D673271053CF48091BB0190E048EB35
:103E500050E00E942614DF91CF911F910F91FF90A7
:103E6000EF900895CF93DF9386E090E00E9419329F
:103E7000EC01009719F488E50E944E19CE01DF91FC
:103E8000CF9108958091BC019091BD010E94C632EE
:103E90001092B9011092B8011092B7018091B5014A
:103EA0009091B601009731F00E94C6321092B6018F
:103EB0001092B50108950F931F93DF93CF9300D015
:103EC0000F92CDB7DEB71091BA010091B701DE01B4
:103ED0001196EEEBF0E083E001900D928150E1F756
:103EE0000E94F21C8983882309F48DC0853079F003
:103EF000863030F4813071F0843009F0CEC04BC090
:103F0000853109F47AC0863109F0C7C079C02AEB3F
:103F100030E0C5C06091B7017091B8011616170660
:103F20000CF0BBC0615070407093B8016093B70152
:103F30008091B90190E02091BA013091BB016817DE
:103F40007907A1F4620F711D832F90E048EB50E0D8
:103F50000E942614E091BC01F091BD018091B7014F
:103F60009091B801E80FF91F319712C0620F711DCF
:103F7000832F90E04BEB50E00E942614E091BC01AF
:103F8000F091BD018091B7019091B801E80FF91F40
:103F900080E2808382C08091B7019091B801009740
:103FA00091F46091B5017091B6016115710559F0F8
:103FB0008091BC019091BD010E9437338091B50181
:103FC0009091B6010FC0E091BC01F091BD01E80FE6
:103FD000F91F10828091B5019091B601892B41F4AF
:103FE00080E090E00E94C6321092B6011092B501B6
:103FF0002091BC013091BD0152C00E9409324DC0D8
:104000000E943C2F4AC00E94BC1CE82F882309F460
:1040100044C04091B7015091B8018091B90190E03E
:104020009C0121503040421753074CF01A82481728
:10403000590739F43093B8012093B70102C08FE5D6
:104040008A838091BB019091BA016091B701709110
:10405000B801690F711DE98390E0AE014F5F5F4FBA
:104060000E9426142091B7013091B801E091BC0163
:10407000F091BD01E20FF31F89818083100F173289
:1040800060F48091B90190E02817390734F42F5F6C
:104090003F4F3093B8012093B70120E030E0C901D1
:1040A0000F900F900F90CF91DF911F910F91089576
:1040B000EF92FF920F931F93CF93DF93F82EE92E89
:1040C000EB01142F052F1092B8011092B701209325
:1040D000B901E42FF52FDF010D900020E9F7CD01A4
:1040E0008E1B9F0B0E94C1068093B5019093B60171
:1040F000612F702F0E943733C093BA01F092BB0139
:104100001093BC010093BD0100E010E00AC0B801AB
:104110006C0F7D1F8F2D9E2D40E20E94FC110F5FC2
:104120001F4F8091B90190E00817190784F380911F
:10413000BA016091B7017091B801680F711D6732C3
:1041400071053CF48091BB0190E048EB50E00E9487
:104150002614DF91CF911F910F91FF90EF9008955A
:10416000E091C401F091C50185818093BE01E09189
:10417000C601F091C70185818093BF01E091C8011C
:10418000F091C90185818093C001E091CA01F0914D
:10419000CB0185818093C101E091CC01F091CD01EB
:1041A00085818093C2010895E091C401F091C50119
:1041B0008091BE018583E091C601F091C701809195
:1041C000BF018583E091C801F091C9018091C001D0
:1041D0008583E091CA01F091CB018091C101858373
:1041E000E091CC01F091CD018091C20185830895C9
:1041F00008958091BE0108958091A501882331F42E
:10420000E091C401F091C501858108958091BE01BE
:104210000895982F8091A501882331F4E091C4017D
:10422000F091C501958308959093BE0108950F9371
:104230001F9380914401833091F5E091C401F09186
:10424000C50155815F3F59F1E091C801F091C90165
:1042500045814170440F440F440FE091CC01F0912F
:10426000CD0185818170482BE091CA01F091CB018D
:10427000858190E083709070880F991F482BE091A2
:10428000C601F091C70120913E0130913F0100919C
:10429000400110914101852F65810E9410171F91E7
:1042A0000F910895CF93DF93E091C401F091C50180
:1042B00085818093BE01E091C601F091C70185819F
:1042C0008093BF01E091C801F091C901858180937D
:1042D000C001E091CA01F091CB0185818093C101B9
:1042E000E091CC01F091CD0185818093C201C4ECB5
:1042F000D1E0888199810E94C6321992199281E099
:10430000C03DD807B1F7DF91CF9108950E949E116B
:104310001092A50185E292E069EE7AE00E942733CF
:10432000AC0180E090E060E070E00E94261485E23D
:1043300092E06EEE7AE00E942733AC0181E090E0DB
:1043400060E070E00E94261485E292E063EF7AE07C
:104350000E942733AC0182E090E060E070E00E94B0
:10436000261483E090E060E070E048EF5AE00E949D
:10437000471385E292E06DEF7AE00E942733AC01AB
:1043800081E090E069E170E00E94261485E292E00D
:1043900063E07BE00E942733AC0182E090E069E1BA
:1043A00070E00E942614809160008823A1F085E2CD
:1043B00092E06AE07BE00E942733AC0183E090E06A
:1043C00069E170E00E94261483E090E065E270E00D
:1043D0004EE20E94FC1181E090E065E270E04EE266
:1043E0000E94FC1182E090E065E270E04EE20E94E3
:1043F000FC1184EC91E066E04091C3010E94661ECE
:104400000895CF93DF93809144018330D1F08430BD
:1044100028F4813031F0823011F50AC08630F8F48A
:1044200017C080E090E064E170E045E75AE006C024
:1044300080E090E064E170E048E85AE00E944713B1
:104440001AC080E090E064E170E04BE95AE0F6CFFA
:1044500080E090E064E170E04EEA5AE0EFCF85E260
:1044600092E064E10E943A14AC0180E090E064E1E3
:1044700070E00E942614809144018230D0F1809136
:104480003E0190913F0164E670E00E94823BAB01E7
:1044900085E292E062E070E00E945D14AC0181E090
:1044A00090E063E170E00E94261480E3809325028F
:1044B00080913E0190913F0164E670E00E94823B52
:1044C000AC0185E292E062E070E00E945D14AC0114
:1044D00081E090E066E170E00E94261481E090E0C7
:1044E00065E170E04EE20E94FC1180E280932502BB
:1044F0000CC085E292E067E00E943A14AC0181E0D2
:1045000090E062E170E00E942614809144018330C3
:1045100009F060C080911803909119036AE070E07F
:104520000E94823BAB0185E292E063E070E00E9472
:104530005D14AC0182E090E062E170E00E9426141C
:1045400080911803909119036AE070E00E94823B09
:10455000482F405D82E090E066E170E00E94FC112F
:1045600082E090E065E170E04EE20E94FC118091F3
:104570006000882309F446C0809152029091530252
:104580006AE070E00E94823BAB0185E292E063E06A
:1045900070E00E945D14AC0183E090E062E170E0A5
:1045A0000E94261480915202909153026AE070E0BA
:1045B0000E94823B482F405D83E090E066E170E01E
:1045C0000E94FC1183E090E065E170E04EE20E9401
:1045D000FC1118C085E292E067E00E943A14AC0139
:1045E00082E090E062E170E00E94261485E292E0B1
:1045F00067E00E943A14AC0183E090E062E170E071
:104600000E9426140E94300F64E670E00E94823BF4
:10461000AB0185E292E063E070E00E945D14AC01C2
:1046200081E090E062E270E00E94261480E38093D3
:1046300025020E94300F64E670E00E94823BAC01CC
:1046400085E292E062E070E00E945D14AC0181E0DE
:1046500090E066E270E00E94261480E280932502DA
:1046600080911603909117036AE070E00E94823BEC
:10467000AB0185E292E063E070E00E945D14AC0162
:1046800082E090E062E270E00E94261480911603BE
:10469000909117036AE070E00E94823B482F405DD2
:1046A00082E090E066E270E00E94FC118091600080
:1046B000882331F180915002909151026AE070E0BC
:1046C0000E94823BAB0185E292E063E070E00E94D1
:1046D0005D14AC0183E090E062E270E00E94261479
:1046E00080915002909151026AE070E00E94823BFA
:1046F000482F405D83E090E066E270E00E94FC118C
:104700008091C1008130A1F50E945B1FFC010097E0
:1047100009F445C18081882361F0809193009091D4
:1047200094009093130380931203CF010E944616C6
:1047300033C0E091C401F091C501E281F0E0EE0FD9
:10474000FF1FEE50FD4F808191810E94C632E091A3
:10475000C401F091C501E281F0E0EE0FFF1FEE50C1
:10476000FD4F80919300909194009183808314C0B9
:10477000833059F50E949E1181EC9AE00E942A191B
:104780000E940B192FEF8F3F920721F0019709F03C
:1047900006C106C00E94862182E08093C100FFC04E
:1047A00082E08093C100E091C401F091C501858150
:1047B00090E00E94641684EC91E06091C3010E9435
:1047C000B91D80E00E94A118EAC00E94BC1C882389
:1047D00069F18333F9F0843340F4813389F0823313
:1047E000A8F4803209F0DBC006C08433B9F0853309
:1047F00009F0D5C017C084EC91E06091C30103C0FB
:1048000084EC91E060E00E94B91DC9C084EC91E0A5
:1048100061E0F9CF84EC91E062E0F5CF84EC91E0C7
:1048200063E0F1CF84EC91E064E0EDCF0E94F21CF4
:10483000882309F4B4C08B3009F48BC08C3080F429
:10484000873079F1883048F48430A9F1863009F452
:104850006CC0823009F0A3C01CC08930D1F421C0E3
:10486000833109F480C0843150F48E3009F475C06E
:10487000803109F474C08C3009F091C06CC085316E
:1048800009F488C0853108F471C0863109F087C009
:1048900084C084EC91E06091C30146E00E947B1DDE
:1048A00007C084EC91E06091C30146E00E94441D82
:1048B0008093C30174C06091C301662389F5E091C0
:1048C000C401F091C50185818F3041F5209112031B
:1048D0003091130380919300909194002817390729
:1048E000E9F489E090E00E94C106EC01009711F420
:1048F00088E548C068E00E943A14D0931303C0933F
:104900001203E091C401F091C5016081818190E0C2
:1049100070E0AE010E94E91E81E03FCF85E020C03B
:104920006530C9F084EC91E06ECFE091C401F09164
:10493000C50185818F3F99F10E9417168F5F9F4FA8
:1049400011F08FE51FC081EC9AE00E942A1983E0E4
:1049500024CF82E005C084E003C083E001C088E08A
:104960000E94C3181CC00E94ED3119C080914401FF
:104970008330A9F4E091C401F091C50185818F3F96
:1049800021F48EE50E944E190AC00E941721109250
:10499000440105C00E94093202C00E943C2FDF91F1
:1049A000CF910895CF93DF93C4ECD1E00E94321FE2
:1049B000FC0189939993158281E0C03DD807B1F736
:1049C000E091C401F091C50147E04083E091C4014A
:1049D000F091C5011182E091C401F091C50184EF0D
:1049E00092E09483838380E18283E091C601F09119
:1049F000C7014083E091C601F091C70181E0818346
:104A0000E091C601F091C70182EE90E09483838328
:104A100085E08283E091C801F091C9014083E09173
:104A2000C801F091C90122E02183E091C801F09111
:104A3000C90180EF90E0948383832283E091CA01CF
:104A4000F091CB0189E08083E091CA01F091CB0124
:104A50002183E091CA01F091CB018FEF90E0948324
:104A6000838333E03283E091CC01F091CD018EE07D
:104A70008083E091CC01F091CD012183E091CC01C4
:104A8000F091CD0189E091E0948383832283E091CA
:104A9000CE01F091CF014083E091CE01F091CF01A2
:104AA0003183E091CE01F091CF0114821382128202
:104AB000E091CE01F091CF018FEF8583E091C401A9
:104AC000F091C5018091BE018583E091C601F0910E
:104AD000C7018091BF018583E091C801F091C901B0
:104AE0008091C0018583E091CA01F091CB01809152
:104AF000C1018583E091CC01F091CD018091C2018B
:104B00008583DF91CF9108958091A501823019F0BE
:104B10008093D00108951092D00108950E94F21C54
:104B2000882381F0853149F0863151F0853051F488
:104B30008091D0010E94C31808950E9409320895FF
:104B40000E943C2F08950E949E1182E08093A5014F
:104B50008091D001833019F1843018F4882331F02A
:104B60000895843099F0853011F507C080E090E019
:104B700060E070E041E15BE006C080E090E060E072
:104B800070E043E85BE00E944713089580E090E006
:104B900060E070E04EEB5BE00E942614089580E038
:104BA00090E060E070E048EE5BE00E94261408951B
:104BB00020919B0130919C01121613063CF48091C8
:104BC000D201821718F48F5F8093D20108958091EB
:104BD0009B0190919C01181619063CF48091D2011A
:104BE000882319F081508093D20108950895BF92CF
:104BF000CF92DF92EF92FF920F931F93E091D40137
:104C0000F091D501B580E091D601F091D701C58032
:104C1000E091D801F091D901D580E091DA01F091CD
:104C2000DB010581E091DC01F091DD0115818091CE
:104C3000D20190E00E943015A091DE01B091DF0119
:104C40001396ED91FC911497309751F080819181EA
:104C500090939F0180939E0114961C921E9213972D
:104C6000A091E001B091E1011396ED91FC911497B0
:104C7000309751F0808191819093A2018093A1019E
:104C800014961C921E92139781E0D822DD0CDD0C45
:104C9000DD0C1170D12A802F90E083709070880F06
:104CA000991FD82A00919E0110919F01E090A101C7
:104CB000F090A2018091D20190E06B2D4C2D2D2D12
:104CC0000E9499161092D101E091D401F091D50182
:104CD000818190E060E070E04FEF0E94FC11A091B4
:104CE000D401B091D501E091D301F0E0EE0FFF1FA8
:104CF000EC52FE4F0190F081E02D608170E0615038
:104D0000704011968C9190E040E20E94FC111F913E
:104D10000F91FF90EF90DF90CF90BF900895CF93C9
:104D2000DF938091E2019091E3010E94C63280916D
:104D3000E4019091E5010E94C6328091E6019091D4
:104D4000E7010E94C6328091E8019091E9010E943A
:104D5000C6328091EA019091EB010E94C6328091A7
:104D6000EC019091ED010E94C6328091EE0190918C
:104D7000EF010E94C63280912A0190912B010E947E
:104D8000C63280912C0190912D010E94C6328091F3
:104D90003001909131010E94C632C4EDD1E088818A
:104DA00099810E94C6321992199281E0C23ED807B9
:104DB000B1F78091D101813031F0813058F08350CA
:104DC000823040F403C00E94F72502C00E94421FB7
:104DD0001092D101DF91CF910895CF93DF938CE1B1
:104DE0009CE00E94F9069093E3018093E20181E246
:104DF0009CE00E94F9069093E5018093E40186E22D
:104E00009CE00E94F9069093E7018093E6018BE213
:104E10009CE00E94F9069093E9018093E80180E309
:104E20009CE00E94F9069093EB018093EA0185E3F0
:104E30009CE00E94F9069093ED018093EC0187E3DA
:104E40009CE00E94F9069093EF018093EE0189E3C4
:104E50009CE00E94F90690932B0180932A018EE337
:104E60009CE00E94F90690932D0180932C0183E42D
:104E70009CE00E94F9069093310180933001C4EDCB
:104E8000D1E00E94321FFC01998388831182E9914D
:104E9000F991158281E0C23ED80799F7E091D401DB
:104EA000F091D50125E02083E091D401F091D50166
:104EB00084EF92E09483838380E18283E091D60142
:104EC000F091D7018EE08083E091D601F091D70177
:104ED00082EE91E0948383832283E091D801F09164
:104EE000D90183E18083E091D801F091D9018CEE62
:104EF00091E09483838322E02283E091DA01F091B0
:104F0000DB0185E18083E091DA01F091DB0188E249
:104F100091E09483838383E08283E091DC01F091CC
:104F2000DD018AE18083E091DC01F091DD018EE218
:104F300091E0948383832283E091DE01F091DF018D
:104F40008EE18083E091DE01F091DF011482138213
:104F50001282E091E001F091E10184E28083E0912E
:104F6000E001F091E10114821382128280919B0191
:104F700090919C011816190624F481508093D20157
:104F800002C01092D201DF91CF910895EF92FF926B
:104F90001F93482F162FE5E2EE2EE2E0FE2E80E270
:104FA00080932502C70163E070E050E00E945D1429
:104FB000AC01812F90E061E070E00E942614E09146
:104FC000A001F0E0EE0FFF1FEC50FD4F408151813A
:104FD000812F90E065E070E00E942614E091A3012B
:104FE000F0E0EE0FFF1FEE51FE4F40815181812F07
:104FF00090E06EE070E00E942614E091A401E69536
:10500000E695E695F0E0E170F070EE0FFF1FE451D9
:10501000FE4F40815181812F90E063E170E00E945A
:105020002614E091A401E695F0E0E370F070EE0F35
:10503000FF1FE85DFE4F40815181812F90E065E1C7
:1050400070E00E942614E091A401F0E0E170F0709D
:10505000EE0FFF1FE25DFE4F40815181812F90E0F6
:105060006AE170E00E94261480919E0190919F0158
:1050700064E670E00E94823BAB01C70162E070E031
:105080000E945D14AC01812F90E06EE170E00E94FF
:105090002614812F90E060E270E04EE20E94FC1145
:1050A00080E38093250280919E0190919F0164E6A8
:1050B00070E00E94823BAC01C70162E070E00E9498
:1050C0005D14AC01812F90E061E270E00E94261433
:1050D0008091A1019091A2016AE070E00E94823B60
:1050E000AB01C70162E070E00E945D14AC01812F4A
:1050F00090E064E270E00E942614812F90E066E266
:1051000070E04EE20E94FC118091A1019091A201F9
:105110006AE070E00E94823B482F405D812F90E062
:1051200067E270E00E94FC111F91FF90EF900895DC
:105130000F931F93CF93DF938091A501843041F0AB
:1051400080919B0181508093D20184E08093A501DE
:105150000E949E111091D201143058F483E090E027
:10516000811B910960E070E04FEF0E94FC1113E099
:1051700007C080E090E060E070E04FEF0E94FC111B
:1051800060919B0170919C01633071051CF0C0E03F
:10519000D0E004C0EB01C095D0952496012F10E01B
:1051A0000C1B1D0B1BC080919B0190919C0108174B
:1051B000190741F0C8010E943015802F6C2F0E9402
:1051C000C62709C04091930050919400CE0165E03C
:1051D00070E00E942614219601501040C430D10581
:1051E00014F3DF91CF911F910F9108950E940B1935
:1051F0002FEF8F3F920719F00197E9F405C0109245
:10520000D1010E94982808951092D1018091D20175
:1052100090E00E94311780919B0190919C0118169B
:1052200019063CF48091D201882319F081508093B3
:10523000D2010E9498280895BF92CF92DF92EF92F8
:10524000FF920F931F93DF93CF93CDB7DEB72C97C9
:105250000FB6F894DEBF0FBECDBF8091D101823072
:1052600009F4C4C0833020F4813009F0E0C107C0E4
:10527000833009F4BEC0843009F0D9C148C10E940E
:10528000BC1C882309F010C30E94F21C882309F477
:105290000BC3883039F1893078F4843059F1853086
:1052A00020F4823009F000C31AC0853009F49BC095
:1052B000873009F0F9C28DC08B3009F4ECC28C3014
:1052C00038F4893009F485C08A3009F0EDC20AC08B
:1052D000853109F4E4C2863109F0E6C2E3C20E94D6
:1052E000F725E2C284ED91E06091D30147E00E948E
:1052F0007B1D76C06091D301653089F585E090E033
:105300000E94C1068C01009709F4CEC264E00E949D
:105310003A14D80114961C92E091D301F0E0EE0FFC
:10532000FF1FEC52FE4F0190F081E02D60818181E2
:1053300090E070E0A8010E94E91E83E08093D10113
:10534000E091D301F0E0EE0FFF1FEC52FE4F019011
:10535000F081E02D818190E062E270E031C0663042
:1053600099F585E090E00E94C1068C01009709F450
:105370009BC264E00E943A14F8011482E091D301C8
:10538000F0E0EE0FFF1FEC52FE4F0190F081E02D98
:105390006081818190E070E0A8010E94E91E84E0B4
:1053A0008093D101E091D301F0E0EE0FFF1FEC52AA
:1053B000FE4F0190F081E02D818190E067E270E086
:1053C00040E20E94FC1170C284ED91E00E94B91D80
:1053D0006BC284ED91E06091D30147E00E94441DCF
:1053E0008093D30161C20E94F72550C20E94F62823
:1053F0005BC29091D201943010F0BB2402C0B82E51
:10540000B91A0E945B1F6C01009709F44DC2DC01C0
:105410008C91882309F476C082E090E00E94C10656
:10542000F82EE92E00D000D000D0EDB7FEB73196AF
:10543000ADB7BEB71296DC92CE9211978DE091E097
:1054400093838283CE010196958384830E94D43313
:10545000EDB7FEB736960FB6F894FEBF0FBEEDBFA0
:10546000892B49F481E090E06EE170E040E151E089
:105470000E942614D0C00F2D1E2D29813A818DB790
:105480009EB708970FB6F8949EBF0FBE8DBFEDB7BD
:10549000FEB7319643E0E42EF12CEC0EFD1EADB7C5
:1054A000BEB71296FC92EE92119785E191E093833C
:1054B0008283C90164E670E00E94963B7583648331
:1054C000C90164E670E00E94963B978386830E9440
:1054D000B033EDB7FEB738960FB6F894FEBF0FBEE7
:1054E000EDBF8B2D90E06EE170E0A7010E942614C5
:1054F00089819A81D8018D939C93E091DE01F0918E
:10550000DF0187C0E091DE01F091DF018CC0809166
:10551000D201843010F0BB2403C093E0B92EB81A36
:105520000E945B1F6C01009709F4BEC1FC018081E1
:10553000882309F474C082E090E00E94C1067C01D7
:1055400000D000D000D0EDB7FEB73196ADB7BEB7F2
:105550001296DC92CE9211978DE091E09383828334
:10556000CE010196958384830E94D433EDB7FEB7B4
:1055700036960FB6F894FEBF0FBEEDBF892B21F40F
:1055800084E60E944E1947C0870129813A818DB770
:105590009EB708970FB6F8949EBF0FBE8DBFEDB7AC
:1055A000FEB7319683E0E82EF12CEC0EFD1EADB770
:1055B000BEB71296FC92EE9211978EE191E0938322
:1055C0008283C9016AE070E00E94963B7583648320
:1055D000C9016AE070E00E94963B978386830E942F
:1055E000B033EDB7FEB738960FB6F894FEBF0FBED6
:1055F000EDBF8B2D90E064E270E0A7010E942614BD
:1056000089819A81D8018D939C93E091E001F0917A
:10561000E10114830383C6010E94C63206C0E091F3
:10562000E001F091E1011482138281E01EC10E9429
:10563000BC1C882321F0803209F036C131C00E94A1
:10564000F21C882309F430C1883051F1893090F47C
:10565000853009F41EC1863030F4823009F184307F
:1056600009F022C12CC0863009F4EEC0873009F061
:105670001BC1FEC08B3009F40EC18C3038F4893068
:1056800009F4F6C08A3009F00FC10AC0853109F467
:1056900006C1863109F406C18C3009F005C1F9C094
:1056A00080919B0190919C01181619060CF0EEC098
:1056B0008091D201882309F4E9C08150E5C010929D
:1056C000D30181E08093D1012091D201243010F0E8
:1056D000EE2403C0B3E0EB2EE21A422F50E080919B
:1056E0009B0190919C014817590709F050C0222353
:1056F00039F50E94F920E82FF0E0EE0FFF1FEC5083
:10570000FD4F80819181892BB9F00E94F92080930F
:10571000A0011092A3011092A40110929F01109277
:105720009E011092A2011092A10160E040E020E0F1
:1057300030E000E010E016C08EE50E944E192BC04C
:10574000CA0101970E94301520919E0130919F015E
:105750000091A1011091A2018091A0016091A3018B
:105760004091A4010E94101785E292E068E00E9437
:105770003A14AC018E2D90E064E070E00E94261493
:1057800080919B0181506E2D0E94C62704C0822FFC
:1057900090E00E943015E091D401F091D501E182B2
:1057A000E091D601F091D701E182E091D801F0912A
:1057B000D901E182E091DA01F091DB01E182E0912F
:1057C000DC01F091DD01E182E091DE01F091DF0189
:1057D000E182E091E001F091E101E182E091D40108
:1057E000F091D5018091A0018583E091D601F091DF
:1057F000D7018091A3018583E091D801F091D9016F
:105800008091A40186958695869581708583E09127
:10581000DA01F091DB018091A40186958370858384
:10582000E091DC01F091DD018091A401817085831C
:105830008E2D90E064E070E04FEF0E94FC118E2D01
:1058400090E060E070E0BCCD8091D20190E02091CA
:105850009B0130919C018217930731F10E949E11A8
:1058600087E49CE00E942A1982E08093D1011CC049
:1058700020919B0130919C01121613063CF48091FB
:10588000D201821718F48F5F8093D2010E9498286A
:105890000BC080E001C082E00E94C31805C00E94D6
:1058A000093202C00E943C2F2C960FB6F894DEBF3E
:1058B0000FBECDBFCF91DF911F910F91FF90EF9061
:1058C000DF90CF90BF9008950895982FA3EFB1E097
:1058D00020E030E0ED91FC9111978581891731F03E
:1058E0002F5F3F4F129621313105A1F71092F2013F
:1058F0000895CF93DF93C3EFD1E0899199910E94EE
:10590000C63282E0C331D807C1F78091F0018130FF
:1059100011F40E94421FDF91CF910895DF92EF9220
:10592000FF920F931F93CF93DF9303EF11E0C0E03B
:10593000D0E074EFE72E72E0F72E61E1D62E0E94E0
:10594000321FFC01D80111969C938E939E013595D0
:10595000279535952795C90143E0880F991F4A95EA
:10596000E1F7820F931F8F5F8083ED91FC91119778
:10597000CE01837090708183ED91FD918D01F48251
:10598000E382D2822196C031D105C9F60E94F92066
:105990001091F201D70140E050E020E030E0682FA4
:1059A00070E08D919C911197892B79F0FA01EE0F9F
:1059B000FF1FED50FE4F0190F081E02D258362170F
:1059C000730709F4142F4F5F5F4F2F5F3F4F1296FD
:1059D0002131310531F71093F201FA0141315105BE
:1059E00014F0E0E1F0E0E093F101DF91CF911F913D
:1059F0000F91FF90EF90DF90089585E08093A501CF
:105A00000E949E1183EF91E06091F1014091F201BB
:105A10000E94661E08951F93CF93DF938091F0013B
:105A2000813069F50E945B1FFC01009709F413C1E6
:105A300080818823A9F080919300909194009093A5
:105A4000150380931403CF010E944616182F10925D
:105A5000F0010E94792C0E948E2C1093F2011BC041
:105A600080911403909115030E94C6328091930097
:105A70009091940090931503809314030CC082308E
:105A800031F50E940B192FEF8F3F920721F00197FC
:105A900009F0E1C005C00E94FD2C1092F001DBC0AE
:105AA0001092F001E091F201F0E0EE0FFF1FED50D7
:105AB000FE4F0190F081E02D858190E00E946416F8
:105AC0000E94792C0E948E2C0E94FD2CC4C00E9442
:105AD000F21C882309F4BFC0883031F1893090F47A
