:100000000C94CD060C94EA060C942A1A0C94EA0679
:100010000C94EA060C94EA060C94EA060C949407F5
:100020000C94EA060C94EA060C94EA060C94EA0690
:100030000C94EA060C94E8090C94110C0C94EA0652
:100040000C94EA060C94EA060C94EA060C94EA0670
:100050000C94EA06450EEB0CEB0C410EEB0CEB0C92
:10006000360EEB0CEB0CEB0C220E070EFA0DE60D28
:10007000EB0CEB0CE20DEB0CEB0CEB0CEB0CEB0CD0
:10008000EB0CEB0CEB0CEB0CEB0CEB0CEB0CEB0CB8
:10009000EB0CEB0CEB0CEB0CEB0CEB0CEB0CEB0CA8
:1000A000EB0CEB0CEB0CEB0CEB0CEB0CEB0CEB0C98
:1000B000EB0CEB0CEB0CEB0CEB0CEB0CEB0CEB0C88
:1000C000EB0CEB0CEB0CEB0CEB0CEB0CEB0CEB0C78
:1000D000EB0CEB0CEB0CEB0CEB0CEB0CEB0CEB0C68
:1000E000EB0CEB0CEB0CEB0CEB0CEB0CEB0CEB0C58
:1000F000EB0CEB0CEB0CEB0CEB0CEB0CEB0CEB0C48
:10010000EB0CEB0CEB0CEB0CEB0CEB0CEB0CEB0C37
:10011000EB0CEB0CEB0CEB0CEB0CEB0CEB0CEB0C27
:10012000EB0CEB0CEB0CEB0CEB0CEB0CC30DB70D71
:10013000AB0D9F0D930D870D7B0D6F0D630D570D4F
:100140004B0D3F0D330D270D1B0D0F0DEB0CEB0C65
:10015000EB0CEB0CEB0CEB0CEB0CEB0CEB0CEB0CE7
:10016000EB0CEB0CEB0CEB0CEB0CEB0C0C0D090D96
:10017000F60CEB0CCF0DEB0CEB0CEB0CEB0CEB0CD7
:10018000EB0CEB0CEB0CEB0CEB0CEB0CE70C0B188F
:100190001717171702181717F917F0171717171748
:1001A000E717DE1717171717171717171717171748
:1001B00017171717171717171717171717171717CF
:1001C00017171717171717171717171717171717BF
:1001D00017171717171717171717171717171717AF
:1001E000171717171717171717171717171717179F
:1001F000171717171717171717171717171717178F
:10020000171717171717171717171717171717177E
:10021000171717171717171717171717171717176E
:10022000171717171717171717171717D517CC17EB
:10023000C317BA17B117A8179F1796178D178417EA
:100240007B1772176917601757174E17451717173F
:1002500017173C1733172A172117171717171717D0
:10026000171717171717171717171717171717171E
:10027000171717171717171717171717171717170E
:1002800017171717171717171717171717171717FE
:1002900017171717171717171717171717171717EE
:1002A00017171717171717171717171717171717DE
:1002B00017171717171717171717171717171717CE
:1002C00017171717171717171717171717171717BE
:1002D00017171717171717171717171717171717AE
:1002E000171717171717171717171717171717179E
:1002F000171717171717171717171717171717178E
:10030000171717171717171717171717171717177D
:1003100017171717171717171717171718170F1774
:10032000DF19291AD319CD19C719CA19E819291AB9
:10033000E219DC19D619D0193119291A291A291AE2
:10034000291A291A291A291A3419A019291A291A15
:10035000291A7F1961195E193719A319291A291A3F
:100360008519821964193A19A919A619291A291A7D
:1003700097198819671940193D19AC19291A291AB2
:100380008E198B196D196A194319AF19291A291A6F
:10039000291A911970194619B219B519291A291A69
:1003A0009419731949194C199D19B819291A291A40
:1003B000BE191F1A761979194F19BB19291A291A4A
:1003C000291A7C19291A52192B19291A291A5B1969
:1003D000291A1C1A5519291A5819291A291A291AB9
:1003E000291A291A291A291A291A2E19291A291AF1
:1003F000A019291AA919B219291A291A291A9D19F5
:10040000BE19A319AC19AF19B5199A19291AE5190A
:10041000C419A619BB19C119B819291A291A291AF8
:10042000291A291AD919291A291A291A291A291A05
:10043000291A291A291A291A291A291A291A291AA4
:10044000291A291A291A291A291A291A291A291A94
:10045000291A291A291A291A291A291A291A291A84
:10046000291A291A291A291A291A291A291A291A74
:10047000291A291A291A291A291A291A291A291A64
:10048000291A291A291A291A291A291A291A291A54
:10049000291A291A291A291A291A291A291A291A44
:1004A000291A291A291A291A291A291A291A291A34
:1004B000291A291A291A291A291A291A291A291A24
:1004C000291A291A291A291A291A291A291A291A14
:1004D000291A291A291A291A291A291A291AEB1943
:1004E000291A291A291A291A291A291A291A291AF4
:1004F000291A291A291A291A291A291A291AED1921
:100500004572726F722039383A20446F736C6F20D5
:100510006B65206B72C3A1746BC3A96D752076C324
:10052000BD7061646B7520202020206E6170C3A1B6
:100530006A656EC3AD2E204461746120756C6F7A5C
:10054000656E612E2052657365742E00146F6B20EA
:1005500020000000000000000A20202020000000F1
:10056000000000004572726F7220313A20446F73B0
:100570006C6F206B2063687962652076206B6F6EEC
:1005800074726F6C6E696D0A736F75637475207029
:100590007269207072696A6D75207A7072617679FD
:1005A000206E61206B617472752E200A4E656D7528
:1005B000736920746F207A6E616D656E6174207A44
:1005C00061646E6520706F74697A652E0045727281
:1005D0006F7220343A204368796261204952430A9D
:1005E000527963686C65206F746F63656E6920492A
:1005F0005243206E61206B61747275004572726F98
:100600007220363A204368796261204952430A5287
:100610007963686C65206F746F63656E69204952F9
:1006200043206E6120766F7A696B75004572726F38
:100630007220373A20506C6E61206F646573696C6C
:100640006163692066726F6E7461206E61206B61F8
:100650007472752E0A4E656D75736920746F207AF9
:100660006E616D656E6174207A61646E792070725E
:100670006F626C656D2E004572726F722031303A78
:10068000200A204445425547004572726F7220315E
:10069000313A200A204445425547203200457272C3
:1006A0006F722038303A204368796261204C4344AD
:1006B0000A5072656B726F63656E6920726F7A7330
:1006C0006168750A4C434420706F206F64726164E6
:1006D0006B6F76616E69004572726F722038313AC5
:1006E000204368796261204C43440A546578742041
:1006F000707265736168756A650A6F6B72616A20F2
:100700004C4344004572726F722038323A2043687D
:10071000796261204C43440A506F636174656B20B9
:1007200074657874750A6D696D6F20646973706C97
:10073000656A004572726F722038333A20436879D7
:100740006261204952430A4F7072617661206E6186
:10075000207265666572656E2E0A626F6465206F31
:100760002076696365206E657A0A20313020636DDA
:10077000004572726F722038343A200A4E656C7AE6
:1007800065207A6168616A6974206D6572656E6959
:100790000A646F6B7564206E656E690A756B6F6EA7
:1007A00063656E6F207072656463686F7A692E008E
:1007B0004572726F722038353A2043687962612041
:1007C0006B6F6E7665727A6520696E7432737472BF
:1007D000696E672E0A507265766164656E65206386
:1007E00069736C6F206A65207072696C697320642C
:1007F0006C6F7568652E0A446F6368617A69206B57
:100800002070726574656B616E69207665207679FB
:10081000706973752E004572726F722038363A20F7
:10082000446F736C6F206B2063687962652076205B
:100830006B6F6E74726F6C6E696D0A736F75637433
:100840007520707269207072696A6D75207A707295
:100850006176790A6E6120766F7A696B752E0A4E21
:10086000656D75736920746F207A6E616D656E6158
:1008700074207A61646E6520706F74697A652E00E9
:100880004572726F722038373A2050726920707248
:10089000696A6D75207A7072617679206E610A7668
:1008A0006F7A696B752062796C61206B6F6D756E04
:1008B000696B616365207A6168616A656E610A6E61
:1008C00065737072766E796D207A6E616B656D00FE
:1008D0004572726F722038383A204E65646F7374B7
:1008E0006174656B2070616D657469004572726F2B
:1008F000722038393A200A5072656B726F63656EE8
:1009000020726F7A73616820756C6F7A6974656C98
:100910006E652064656C6B792E0A4D6178696D6136
:100920006C6E6920756C6F7A6974656C6E61206499
:10093000656C6B61206A652032352E35206D00456F
:1009400072726F722039303A200A5072656B726F82
:1009500063656E20726F7A73616820756C6F7A6957
:1009600074656C6E65686F207072756D6572752E3A
:100970000A4D6178696D616C6E6920756C6F7A697A
:1009800074656C6E79207072756D6572206A652071
:1009900036332E3520636D004572726F7220393107
:1009A0003A200A5072656B726F63656E61206D61EB
:1009B00078696D616C6E6920646F6261206F646537
:1009C0007A7679206E61200A7A70726176752E00CF
:1009D0004572726F722039323A200A56206475735C
:1009E0006C65646B75206F646A657A647520766FD8
:1009F0007A696B75206F64206B61747275200A735D
:100A000065206E65706F646172696C6F2070726FC3
:100A10007665737420646F73746174656B206D65A3
:100A200072656E692E0A4E616D6572656E61206435
:100A3000617461206D6F686F7520627974206E65D6
:100A4000707265736E612E004572726F7220393359
:100A50003A200A56206475736C65646B75206F6468
:100A60006A657A647520766F7A696B75206F642089
:100A70006B617472752C200A6E6562796C6F207AD6
:100A8000616A697374656E6F20646F7374617465F5
:100A90006B206461742E0A4D6572656E69206A650B
:100AA000207A727573656E6F2E004572726F7220B8
:100AB00039343A200A4A65206E75746E65206E6579
:100AC0006A6472697665207A61646174206A6D6512
:100AD0006E6F207A616B617A6E696B612E00457270
:100AE000726F722039353A205A616B617A6E696B88
:100AF00061206E656C7A65206F64737472616E69D3
:100B0000742E200A42796C6F2070726F206E656AB5
:100B1000206A697A206E616D6572656E6F206E6500
:100B20006B6F6C696B206B6D656E752E0A5072650C
:100B300064206F64737472616E656E696D206A659E
:100B4000206E75746E65207461746F206D657265BA
:100B50006E690A736D617A61742E004572726F72EC
:100B60002039363A200A446F736C6F206B20707204
:100B700065706C6E656E69206F646573696C616326
:100B800069686F2062756666657275200A736572A2
:100B9000696F7665686F206B616E616C75206E6140
:100BA000206B617472752E204E656D7573692074AB
:100BB0006F200A7A6E616D656E6174207A61646E71
:100BC0006520706F74697A652E004572726F7220AD
:100BD00039393A200A506F6B7573206F206D65723A
:100BE000656E69207072696C6973206B7261746BD9
:100BF00065686F206B6D656E752E0A4E656A6B7247
:100C000061747369206D65726974656C6E79206BAF
:100C10006D656E206A6520326D2E004572726F72AE
:100C2000203130303A200A4E6573707261766E65FD
:100C3000207A6164616E65206369736C6F2E004574
:100C400072726F72203130313A2050616D657420BC
:100C50007A617A6E616D75207A61706C6E656E6115
:100C60002E0A4E656C7A6520756B6C616461742028
:100C700064616C7369207A617A6E616D792E204FA0
:100C80006465736C6574650A64617461206E6120CB
:100C90007365727665722E004572726F7220313004
:100CA000323A200A436879626120707269206B6F62
:100CB0006D756E696B61636920736520736572760B
:100CC0006572656D2E000A20202020202020202023
:100CD0002020202044617461206F6465736C616E14
:100CE000612E000A50616D6574207A617A6E616DC3
:100CF000752074656D6572207A61706C6E656E61C9
:100D00002E0A5A62797661206D6973746F206E6164
:100D1000206D656E65206E657A203130207A617AAB
:100D20006E616D752E004572726F722039373A20F0
:100D300056617A6E612063687962612062656875C8
:100D40002070726F6772616D752E20202020556BA8
:100D50006C6164616E69206461742E004572726F0B
:100D6000722039373A204461746120756C6F7A655E
:100D70006E612E2052657365742E00536572766520
:100D800072206E65646F73617A656E200044656CD5
:100D90006B61007072756D5F760011241FBECFE528
:100DA000D8E0DEBFCDBF11E0A0E6B0E0E2ECF7E4B2
:100DB00002C005900D92AE36B107D9F713E0AEE64A
:100DC000B1E001C01D92AC3BB107E1F70E942808D9
:100DD0000C94DF230C94000089E08EBD90E199BF54
:100DE0008BBD84EC8ABD089508958AE090E00E944E
:100DF000A41DFC0186E48083CF0160E044EF56E04F
:100E000025E037E00E94F70A089586E60E9433182D
:100E100008951F938AE090E00E94A41DFC0189E0E0
:100E2000808311E01183CF010E94210A8AE090E0C3
:100E30000E94A41DFC0186E180831183CF010E94E2
:100E4000210A1F9108958AE090E00E94A41DFC01F0
:100E50008AE8808381E08183CF010E94210A08957E
:100E60000F931F93CF93DF938C010E94D11E0196A5
:100E70000E94A41DEC01009721F488E50E9433181C
:100E800003C0B8010E94CA1ECE01DF91CF911F910D
:100E90000F910895EF92FF920F931F93CF93DF93DB
:100EA00080E690E09093FE008093FD008EE791E055
:100EB000909300018093FF000E94930E7C010E949A
:100EC0004D10EC0180917001909171018E159F057C
:100ED00039F480916E0190916F018C179D0789F014
:100EE000A70160E070E08E0120E030E081E60E9422
:100EF000830AF0927101E0927001D0936F01C09368
:100F00006E0180E690E09093FE008093FD008BE8F8
:100F100091E0909300018093FF00DF91CF911F91AA
:100F20000F91FF90EF9008951F920F920FB60F92BE
:100F300011242F933F934F935F936F937F938F93DE
:100F40009F93AF93BF93EF93FF9380917201909122
:100F50007301019690937301809372010E94C50EF4
:100F60000E947F100E94F11AFF91EF91BF91AF9103
:100F70009F918F917F916F915F914F913F912F91B1
:100F80000F900FBE0F901F90189580E690E0909301
:100F9000FE008093FD008CE890E090930001809328
:100FA000FF0080B38695869580FD51C081E090E07A
:100FB00061E070E048E70E9434130E9458124091AB
:100FC000B4015091B50120E060ED77E001C020E070
:100FD000CB010197F1F71416150614F440E050E028
:100FE000A895829BF4CF2F5F263090F320E030E06D
:100FF00060ED77E0A895CB010197F1F72F5F3F4FA8
:1010000081E0243F3807B1F75093B5014093B40114
:1010100081E00E94711380E095E00E941A134091D4
:10102000B4015091B50120E030E060ED77E0141696
:10103000150614F440E050E0A895CB010197F1F7B4
:101040002F5F3F4F83E12838380789F7FFCF089596
:101050000F931F93CF93DF9380E090E020ED37E074
:10106000F9013197F1F70196883C9105C9F799E0AC
:101070009EBD80E189BF9BBD84EC8ABD80E884BBB6
:1010800015BA82BB0E94770E0E942D100E94891310
:101090000E94B6180E947A1A83E390E00E94C20868
:1010A00087E690E00E94281380E090E020ED37E092
:1010B000F9013197F1F7019643E0883E9407C1F7B3
:1010C0000E94E31A80E690E09093FE008093FD007A
:1010D00087E191E0909300018093FF00789481E094
:1010E00090E065E070E04DE650E00E9485150E94BA
:1010F000230700E610E0C2E2D1E01093FE00009367
:10110000FD00D0930001C093FF008091B60186FFDF
:1011100008C080E090E060E070E0409174010E94BF
:101120003413809174018F5F8093740180917201F8
:1011300090917301029740F00E94D8080E94181401
:1011400010927301109272010E94BF180E944A0708
:101150000E94811A0E94C5070E949F1B0E947E0C5C
:101160008091B4019091B5011816190614F480E02D
:1011700090E09093B5018093B401A895BECF84E030
:1011800093E0089590BD89B988E98AB98EE880BD59
:10119000E4E0F3E0119283E0E631F807D9F7E3EEFB
:1011A000F1E0119281E0E53FF807D9F78C9A0895B4
:1011B000EF92FF920F931F93E0909200F0909300B4
:1011C0000091940010919500C801B7010E947B2204
:1011D00020E034E244E759E40E94DE2188236CF4E5
:1011E0000894E11CF11C011D111DE0929200F09287
:1011F000930000939400109395001F910F91FF901E
:10120000EF90089510929200109293001092940023
:1012100010929500089560919200709193008091D2
:101220009400909195000895CF93DF93EC0188810D
:101230008F3FE9F4DE0140E050E013962C911397C4
:1012400012968C9112972827CA0195958795835FEE
:10125000FE01E80FF11D8081281749F44E5F5F4FB2
:1012600012964A30510549F721E030E002C020E0F3
:1012700030E0C901DF91CF910895E0917A01F091BA
:101280007B01309769F010927B0110927A011092E5
:10129000800110927F01099510927D0110927C01CE
:1012A0000895E0917F01F0918001309709F0099550
:1012B00010927D0110927C0110927B0110927A01B4
:1012C0001092800110927F010895FC01EC5FFC4FA9
:1012D00080810895CF93DF93FC0180819181A28169
:1012E000B381EB0188839983AA83BB838481958131
:1012F000A681B781FA0180839183A283B383DF91B2
:10130000CF910895409182014F5F409382012091D7
:101310007701309178018AEF90E0841B91092817BA
:1013200039071CF42F5F3F4F02C0295F30403093D4
:10133000780120937701423018F089E60E94331833
:10134000809182018150809382010895CF93DF9331
:10135000E0917701F091780180917501909176018B
:10136000E817F90719F4CFEFDFEF07C0E150FE4FA0
:101370008081C82FD0E00E948209CE01DF91CF91F9
:1013800008952091750130917601F901E150FE4FE9
:101390008083293F31053CF42F5F3F4F3093760126
:1013A0002093750104C0109276011092750120916E
:1013B000750130917601809177019091780128171D
:1013C000390729F40E94820988E60E94331808959B
:1013D0001F920F920FB60F9211242F933F934F93AA
:1013E0005F936F937F938F939F93AF93BF93EF938D
:1013F000FF938CB10E94C109FF91EF91BF91AF9112
:101400009F918F917F916F915F914F913F912F911C
:101410000F900FBE0F901F90189520E030E02F5FC7
:101420003F4FF901E850FD4FD901AC5FBC4F8C91A3
:1014300080832B30310599F789EF92E00E94C80C28
:1014400008950F931F93CF93DF938C0182E890E070
:101450009093FE008093FD008AE092E0909300015B
:101460008093FF0040918E0050918F008FEF4F3F8F
:10147000580751F410928F0010928E001093F601CD
:101480000093F501559A3AC0F8019081E5EFF1E03B
:10149000C0E0D0E0A081B1818C91891751F4CD01D9
:1014A0000E94981DCC0FDD1FCB50DE4F198308839F
:1014B00025C021963296C530D10561F744305105DB
:1014C00071F09A010FC0F901EE0FFF1FEB50FE4FB4
:1014D00080819181892B61F02430310519F420E05D
:1014E00030E002C02F5F3F4F2417350761F703C07C
:1014F0001183008303C080E60E943318DF91CF91EF
:101500001F910F9108957F928F929F92AF92BF92F9
:10151000CF92DF92EF92FF920F931F93782E6A0182
:101520007B014801590182E890E09093FE0080938E
:10153000FD0084E393E0909300018093FF008AE034
:1015400090E00E94A41DFC017082C182D282E382DD
:10155000F48285829682A782B0860E94210A1F911A
:101560000F91FF90EF90DF90CF90BF90AF909F9042
:101570008F907F90089580917A0190917B01892BC3
:10158000A9F180917C0190917D01019690937D015C
:1015900080937C018958934148F180917E01882392
:1015A00019F18BE090E00E94A41DAC01682F952FEB
:1015B00020E030E0FA01E20FF31FD901AD57BE4F32
:1015C0008C9180832F5F3F4F2B30310599F7862F09
:1015D0000E94210A80917E01815080937E011092A9
:1015E0007D0110927C0108950E9451090895DF92B7
:1015F000EF92FF920F931F93CF93DF93EC01D62EC0
:101600008A017901009731F482E890E063EC72E09E
:101610000E94A316DD2031F482E890E064EC72E0D1
:101620000E94A31620E030E0F901ED57FE4FDE01E5
:10163000A20FB31F8C9180832F5F3F4F2B3031055A
:1016400099F710927D0110927C01D0927E01109347
:101650007B0100937A01F0928001E0927F01012BDF
:1016600031F482E890E06CEC72E00E94A316809165
:101670007F0190918001892B31F482E890E06DEC3C
:1016800072E00E94A316CE010E94210ADF91CF9141
:101690001F910F91FF90EF90DF9008950F931F938C
:1016A000CF93DF938C018BE090E00E94A41DEC01AE
:1016B000009721F488E50E94331808C0B8014BE078
:1016C00050E00E94C11ECE010E94210ADF91CF91FD
:1016D0001F910F910895CF93DF93AC0182E890E0C2
:1016E0009093FE008093FD0088ED91E090930001BF
:1016F0008093FF008FEF8093E301EA01E4EEF1E0D5
:10170000DA018D91819381E0EF3EF807D1F7DA019C
:101710008C919091E3018927808320E030E0F901EA
:10172000F595E795ED51FE4F8A8199818927858747
:101730002E5F3F4F22962A30310589F7CA010E9459
:10174000981DDF91CF910895CF93DF93C2E8D0E049
:10175000D093FE00C093FD0083E592E090930001DA
:101760008093FF00E0918E00F0918F008FEFEF3FAC
:10177000F80709F453C0EE0FFF1FEB50FE4F8081B6
:1017800091812AE532E0309300012093FF000E940E
:101790006B0B20918E0030918F00F901EE0FFF1F2F
:1017A000EB50FE4F1182108210928D0010928C002F
:1017B000D093FE00C093FD0089E692E09093000173
:1017C0008093FF002430310529F410928F0010928D
:1017D0008E0006C02F5F3F4F30938F0020938E0006
:1017E000E0918E00F0918F00EE0FFF1FEB50FE4F47
:1017F00080819181892B91F482E890E09093FE00A2
:101800008093FD0084E792E0909300018093FF00B5
:101810008FEF9FEF90938F0080938E00DF91CF9199
:1018200008951F920F920FB60F9211242F933F939A
:101830004F935F936F937F938F939F93AF93BF93D8
:10184000EF93FF9382E890E09093FE008093FD0079
:101850008BE991E0909300018093FF0080918C00D0
:1018600090918D008F5F9F4F11F40E94A40B2091E7
:101870008C0030918D008FEF2F3F380769F12231B6
:10188000310559F0F901ED51FE4F80818CB92F5F80
:101890003F4F30938D0020938C0080918C0090916D
:1018A0008D004297D1F48091900090919100009723
:1018B00031F0019790939100809390000EC084EFD7
:1018C00091E090939100809390008FEF9FEF909321
:1018D0008D0080938C0001C05598FF91EF91BF91CE
:1018E000AF919F918F917F916F915F914F913F91B8
:1018F0002F910F900FBE0F901F901895CF93DF93ED
:1019000082E890E09093FE008093FD0085E691E0F0
:10191000909300018093FF0027C0C4E0D3E0898149
:10192000899383E0C531D807D1F728830E94EB1B48
:10193000809181018F5F80938101823150F0CE01CF
:1019400041970E941409019721F40E940D0A1092F8
:101950008101809104038F3F39F4809181018331AB
:1019600018F086E50E9433180E94A6099C018FEFAB
:101970002F3F380791F6DF91CF9108958CE495E0E1
:101980000E944E0B089588E595E00E944E0B089545
:101990000F931F93DF93CF93CDB7DEB728970FB682
:1019A000F894DEBF0FBECDBF8C010E940209F80182
:1019B000808190E0FC013497ED39F10560F4E65D3B
:1019C000FF4FEE0FFF1F0590F491E02D0994F801F1
:1019D00081810E946C1B28960FB6F894DEBF0FBE63
:1019E000CDBFCF91DF911F910F910895C80101964E
:1019F000BE016B5F7F4FAE014F5F5F4F0E946A0970
:101A000049815A816B817C818D819E810E94B81CA5
:101A1000E2CF0E94A51CDFCF0E94A31CDCCF0F5F8A
:101A20001F4F83E090E06EE170E0A8012AE030E013
:101A30000E944A13D0CF0F5F1F4F83E090E064E114
:101A400070E0A8012AE030E00E944A13C4CF0F5F83
:101A50001F4F83E090E06AE070E0A8012AE030E0E8
:101A60000E944A13B8CF0F5F1F4F83E090E060E001
:101A700070E0A8012AE030E00E944A13ACCF0F5F6B
:101A80001F4F82E090E06EE170E0A8012AE030E0B4
:101A90000E944A13A0CF0F5F1F4F82E090E064E1E5
:101AA00070E0A8012AE030E00E944A1394CF0F5F53
:101AB0001F4F82E090E06AE070E0A8012AE030E089
:101AC0000E944A1388CF0F5F1F4F82E090E060E0D2
:101AD00070E0A8012AE030E00E944A137CCF0F5F3B
:101AE0001F4F81E090E06EE170E0A8012AE030E055
:101AF0000E944A1370CF0F5F1F4F81E090E064E1B6
:101B000070E0A8012AE030E00E944A1364CF0F5F22
:101B10001F4F81E090E06AE070E0A8012AE030E029
:101B20000E944A1358CF0F5F1F4F81E090E060E0A2
:101B300070E0A8012AE030E00E944A134CCF0F5F0A
:101B40001F4F80E090E06EE170E0A8012AE030E0F5
:101B50000E944A1340CF0F5F1F4F80E090E064E186
:101B600070E0A8012AE030E00E944A1334CF0F5FF2
:101B70001F4F80E090E06AE070E0A8012AE030E0CA
:101B80000E944A1328CF0F5F1F4F80E090E060E073
:101B900070E0A8012AE030E00E944A131CCFC8017F
:101BA0000196BE016F5F7F4FAE014B5F5F4F0E949A
:101BB0006A094D815E816F81788589819A810E9451
:101BC000A71C09CFC8010E943D0905CF8BE090E01A
:101BD0000E94A41DAC01DC01F8018BE001900D9284
:101BE0008150E1F7CA010E94210A8CE495E00E942D
:101BF0004E0BF1CE8BE090E00E94A41DAC01DC0105
:101C0000F8018BE001900D928150E1F7EBCFF801E4
:101C1000718160E0882777FD8095982F2281620F7F
:101C2000711D811D911D0E94B50F0E94490EAB01CF
:101C3000BC0186E090E00E9422128CE495E00E94B4
:101C40004E0BC9CEF801918180E02281820F911D57
:101C50000E94E80F0E94690EBC0184E090E00E949F
:101C600043128CE495E00E944E0BB5CE0E945812B0
:101C700088E595E00E944E0B8CE495E00E944E0BA7
:101C8000AACE87E00E943318A6CE84E00E943318C3
:101C9000A2CE609198007091990080919A009091E5
:101CA0009B0008956093950170939601809397012E
:101CB000909398010895609195017091960180919B
:101CC00097019091980108959093970080939600C2
:101CD00008958091960090919700089560939800E0
:101CE0007093990080939A0090939B000895959A21
:101CF000969A979A80B320B390B3991F9927991F0A
:101D0000990F990F829586958170982B229526952B
:101D10002695237030E021703070220F331F922BF4
:101D200090939A010895EF92FF920F931F93609101
:101D3000950170919601809197019091980197FF7C
:101D400004C060E070E080E090E00E947D2227E126
:101D500037EB41ED58E30E9431237B018C01609108
:101D600096007091970080E090E00E947B229B019A
:101D7000AC01C801B7010E9431230E944F22CB0160
:101D80001F910F91FF90EF9008959F92AF92BF9295
:101D9000CF92DF92EF92FF920F931F9380B320B305
:101DA00090B2991C9924991C990C990C829586954E
:101DB0008170982A229526952695237030E021700F
:101DC0003070220F331F922A8091B60182958F7056
:101DD00080FF08C0492D405D80E090E061E070E048
:101DE0000E94341310919A011925292D2695292531
:101DF0002170812F90E0837090708230910581F086
:101E000083309105A1F10197A9F5809195019091F9
:101E10009601A0919701B0919801222359F418C01E
:101E20008091950190919601A0919701B0919801B0
:101E3000222371F40197A109B10980939501909330
:101E40009601A0939701B09398011092990112C046
:101E50000196A11DB11D8093950190939601A093C9
:101E60009701B093980181E08093990103C086E0C7
:101E70000E943318812F8695869580FF6AC08091D5
:101E80009901813009F065C0892D8695869580FD80
:101E900060C0A0909800B0909900C0909A00D09037
:101EA0009B00E0909501F0909601009197011091B0
:101EB000980180919C00882361F010929C008AE038
:101EC00090E00E94A41DFC0186E98083CF010E945E
:101ED000210A8091980090919900A0919A00B09168
:101EE0009B008093950190939601A0939701B093E6
:101EF000980195012E193F0937FF03C030952195B0
:101F00003F4FB901882777FD8095982F0E947D2249
:101F100027E137EB41ED58E30E9431237B018C012F
:101F2000609196007091970080E090E00E947B2283
:101F30009B01AC01C801B7010E94312320E030E0D1
:101F400040E251E40E942D2318161CF483E50E9400
:101F5000331890929A011F910F91FF90EF90DF90AC
:101F6000CF90BF90AF909F900895EF92FF920F9304
:101F70001F930E947D227B018C01609196007091DD
:101F8000970080E090E00E947B229B01AC0160E022
:101F900070E08AE794E40E94E2219B01AC01C80151
:101FA000B7010E9431230E944A22AB01BC01409339
:101FB00098005093990060939A0070939B0084E07E
:101FC00090E00E9422121F910F91FF90EF900895D0
:101FD00029E130E0AC01429FC001439F900D529F28
:101FE000900D11246CE070E00E94942360939600A1
:101FF0007093970084E090E00E94431208956091EE
:102000009F007091A0008091A1009091A20008957E
:1020100060939B0170939C0180939D0190939E011E
:10202000089560919B0170919C0180919D01909118
:102030009E01089590939E0080939D000895809145
:102040009D0090919E00089560939F007093A00062
:102050008093A1009093A2000895C39AC49A959A80
:1020600046B326B386B322952F7030E021703070CE
:10207000220F331F82958695877090E08170907053
:10208000880F991F880F991F282B469546954695CE
:102090004170242B2093A0010895EF92FF920F939B
:1020A0001F9360919B0170919C0180919D01909183
:1020B0009E0197FF04C060E070E080E090E00E9425
:1020C0007D2227E137EB41ED58E30E9431237B016C
:1020D0008C0160919D0070919E0080E090E00E94D4
:1020E0007B229B01AC01C801B7010E9431230E94F1
:1020F0004F22CB011F910F91FF90EF9008959F9277
:10210000AF92BF92CF92DF92EF92FF920F931F9305
:1021100046B326B386B322952F7030E0217030701D
:10212000220F331F82958695877090E081709070A2
:10213000880F991F880F991F922E982A46954695C9
:1021400046954170942A8091B60182958F7080FFE8
:1021500008C0492D405D80E090E062E070E00E94A0
:1021600034131091A0011925292D269529252170B8
:10217000812F90E0837090708230910581F08330E0
:102180009105A1F10197A9F580919B0190919C0186
:10219000A0919D01B0919E01222359F418C0809115
:1021A0009B0190919C01A0919D01B0919E012223E1
:1021B00071F40197A109B10980939B0190939C014F
:1021C000A0939D01B0939E0110929F0112C00196B1
:1021D000A11DB11D80939B0190939C01A0939D0133
:1021E000B0939E0181E080939F0103C086E00E942E
:1021F0003318812F8695869580FF6AC080919F0154
:10220000813009F065C0892D8695869580FD60C076
:10221000A0909F00B090A000C090A100D090A2001C
:10222000E0909B01F0909C0100919D0110919E0116
:102230008091A300882361F01092A3008AE090E0CF
:102240000E94A41DFC0187E98083CF010E94210A1E
:1022500080919F009091A000A091A100B091A20058
:1022600080939B0190939C01A0939D01B0939E014C
:1022700095012E193F0937FF03C0309521953F4F37
:10228000B901882777FD8095982F0E947D2227E14C
:1022900037EB41ED58E30E9431237B018C016091C3
:1022A0009D0070919E0080E090E00E947B229B0147
:1022B000AC01C801B7010E94312320E030E040E2C8
:1022C00051E40E942D2318161CF483E50E94331854
:1022D0009092A0011F910F91FF90EF90DF90CF900F
:1022E000BF90AF909F900895EF92FF920F931F932E
:1022F0000E947D227B018C0160919D0070919E0067
:1023000080E090E00E947B229B01AC0160E070E0E5
:102310008AE794E40E94E2219B01AC01C801B70165
:102320000E9431230E944A22AB01BC0140939F00CE
:102330005093A0006093A1007093A20084E090E00D
:102340000E9422121F910F91FF90EF90089529E1B2
:1023500030E0AC01429FC001439F900D529F900D11
:1023600011246CE070E00E94942360939D007093B0
:102370009E0084E090E00E94431208959C01E19940
:10238000FECF3FBB2EBBE09A8DB308959C01E1992F
:10239000FECF3FBB2EBB6DBB0FB6F894E29AE19A1D
:1023A0000FBE08959C018091B4019091B50118165B
:1023B000190614F480E090E09093B5018093B40185
:1023C000A895E199FECFE199FECF3FBB2EBB6DBB37
:1023D0000FB6F894E29AE19A0FBE08959C01E19934
:1023E000FECF3FBB2EBBE09A8DB30895DF93CF9312
:1023F00000D000D0CDB7DEB7BC018091B401909180
:10240000B5011816190614F480E090E09093B50118
:102410008093B401A89519821A821B821C82CE0176
:10242000019644E050E02EEB31E10E94DA1E698112
:102430007A818B819C810F900F900F900F90CF919C
:10244000DF910895DF93CF9300D000D0CDB7DEB7F2
:1024500049835A836B837C83E199FECFBE016F5F12
:102460007F4F44E050E026EC31E10E940C1F0F90BA
:102470000F900F900F90CF91DF9108956EEB71E167
:102480000E94F61E08952091B4013091B5011216F4
:10249000130614F420E030E03093B5012093B4012A
:1024A000A895E199FECF46EC51E10E94281F0895BE
:1024B000A8958FEF9FEF9093B5018093B40188E1C9
:1024C0000FB6F89481BD11BC0FBE0E945B0EAB012C
:1024D000BC0180E090E00E942212A895E199FECF15
:1024E000E199FECF8BE090E09FBB8EBB8FE38DBB6D
:1024F0000FB6F894E29AE19A0FBE2FE088E190E0DF
:102500000FB6F894A89581BD0FBE21BD1092B501FC
:102510001092B401A895089580E090E00E94F61111
:102520000E94520E84E090E06EEB71E10E94F61E74
:102530000E94640E86E090E00E94F6110E946E0EEA
:10254000E199FECF8BE090E09FBB8EBBE09A8DB30C
:102550008F3351F080E591E00E94E80F6CEC70E160
:1025600080E090E00E94B50F089520E08091A900DE
:102570009091AA00049709F421E0822F089580E049
:1025800090E032E0232F2A95F1F701968A3F9105DA
:10259000C9F70895E8E1F3E080E2808380A7E05B7B
:1025A000FF4F8083B8968083E757F04093E0E03494
:1025B000F90799F70895FC0180E29F01285D3F4FDC
:1025C000808380A7E05BFF4F8083B8968083E757C6
:1025D000F040E217F307A1F7089520E030E042E071
:1025E000942F9A95F1F72F5F3F4F2A3F3105C1F79E
:1025F0008BBB88B3887F856088BB80E090E032E049
:10260000232F2A95F1F701968A3F9105C9F788B3E0
:10261000887F816088BB80E090E032E0232F2A959C
:10262000F1F701968A3F9105C9F788B3887F8560E5
:1026300088BB0895CF93DF93EC0102C00E94ED1296
:10264000FE01849121968823C9F7DF91CF910895E7
:10265000CF93DF93EC0102C00E94ED128991882391
:10266000D9F7DF91CF9108959C01683271058CF400
:102670008430910574F488E290E0289FF001299F4E
:10268000F00D389FF00D1124E60FF71FE85EFC4FA8
:1026900040830895FC016832710514F5843091057A
:1026A000FCF4C901860F971F8997D4F488E290E063
:1026B000E89FD001E99FB00DF89FB00D1124A60F3F
:1026C000B71FA85EBC4F60E070E007C0FA01E60FDC
:1026D000F71F80818D936F5F7F4F62177307B4F38D
:1026E00008958BBB88B3887F866088BB20E23EE478
:1026F000C9010197F1F788B3887F88BBC9010197A9
:10270000F1F788B3887F866088BBC9010197F1F72C
:10271000089548E153E0509317034093160387B39D
:10272000876087BB8FEF8ABB20E23EE4C901019737
:10273000F1F7C9010197F1F7C9010197F1F788B3E2
:10274000887F88BBC9010197F1F788B3887F8460CF
:1027500088BBC9010197F1F788E38BBB88B3887FF9
:10276000866088BBC9010197F1F788B3887F88BB71
:10277000C9010197F1F788B3887F866088BBC901DA
:102780000197F1F78CE08BBB88B3887F866088BBAC
:10279000C9010197F1F788B3887F88BBC901019708
:1027A000F1F788B3887F866088BBC9010197F1F78C
:1027B00086E08BBB88B3887F866088BBC9010197A0
:1027C000F1F788B3887F88BBC9010197F1F788B317
:1027D000887F866088BBC9010197F1F781E08BBBD8
:1027E00088B3887F866088BBC9010197F1F788B3F9
:1027F000887F88BBC9010197F1F788B3887F86601D
:1028000088BBC9010197F1F788B3887F856088BBD1
:10281000FA0180E2808380A7E05BFF4F8083B89657
:102820008083E757F04093E0E034F90799F7089583
:102830004091A9005091AA002091A1013091A201DC
:102840004430510519F52130310561F02230310550
:1028500069F02115310571F482E08BBB88B3887F64
:10286000866002C088B3887F88BB45C088B3876014
:1028700088BB03C022303105F1F51092A2011092FD
:10288000A1011092A4011092A3015BC02130310577
:10289000F9F02230310549F12115310549F588E279
:1028A00090E0BC01469FC001479F900D569F900D40
:1028B0001124E0911603F0911703E80FF91F80919E
:1028C000A3019091A401E80FF91F80818BBB0DC07B
:1028D000423051052CF488B3887F836088BB12C0D6
:1028E00088B3887F856088BB03C088B38760BCCF0E
:1028F0002130310539F02F5F3F4F3093A2012093F3
:10290000A10108951092A2011092A1018091A3014A
:102910009091A4018732910534F401969093A4011B
:102920008093A30108951092A4011092A301443052
:1029300051053CF44F5F5F4F5093AA004093A900AC
:1029400008951092AA001092A9000895AF92BF9224
:10295000CF92DF92EF92FF921F93CF93DF93DC0130
:10296000EB017A01683271050CF050C0843091059A
:102970000CF04CC0FA01149140E050E088E2C82EFF
:10298000D12C1FC0F50111935F014F5F5F4FFB0119
:1029900084916F5F7F4F8A3021F02F5F3F4F182F58
:1029A00026C011964F5F5F4FF701E40FF51F14919A
:1029B000A430B10534F080E50E94331820E030E007
:1029C0001EC0AC9D5001AD9DB00CBC9DB00C11243F
:1029D000AC0EBD1E88E193E0A80EB91E4F5F5F4F9D
:1029E000B701640F751F4150504020E030E01123C3
:1029F00031F0C9018C0F9D1F88970CF4C3CF2C0FA9
:102A00003D1F293231052CF081E501C082E50E948D
:102A10003318DF91CF911F91FF90EF90DF90CF900F
:102A2000BF90AF900895AF92BF92CF92DF92EF9296
:102A3000FF920F931F93CF93DF93DC018B017A01F9
:102A4000E9012115310511F4C4EAD0E088E2E81665
:102A5000F1040CF04CC0043011050CF048C0E881C2
:102A600088E290E0089FB001099F700D189F700DDB
:102A700011246A0F7B1F40E050E023C0D601ED9384
:102A80006D014F5F5F4FD5011196EC910894A11C29
:102A9000B11CEA3019F02F5F3F4F1BC00F5F1F4F73
:102AA0004F5F5F4FFE01E40FF51FE081685D7F4FD0
:102AB0000430110534F080E50E94331820E030E046
:102AC0000FC06B01CE0CDF1C5E01A40EB51E20E012
:102AD00030E0EE2329F0C9018E0D9F1D889774F216
:102AE0002E0D3F1D293231052CF081E501C082E514
:102AF0000E943318DF91CF911F910F91FF90EF90BB
:102B0000DF90CF90BF90AF900895FC01DB019A0158
:102B100088E193E0BF01AD010E94131508959C0167
:102B200088E193E060E070E040E050E00E9413151F
:102B30000895AC01A62FB0E0109761F020E030E0DE
:102B400080E2FA01E20FF31F80832F5F3F4F2A17C5
:102B50003B07BCF3A40FB51F1C92CA010895DC010A
:102B60008C91882361F020E030E02F5F3F4FFD0122
:102B7000E20FF31F80818823C1F7C901089520E087
:102B800030E0FBCF2F923F924F925F926F927F92F5
:102B90008F929F92BF92CF92DF92EF92FF920F930C
:102BA0001F93DF93CF93CDB7DEB72A970FB6F89474
:102BB000DEBF0FBECDBF2C013B01B42E452F1E0141
:102BC0000894211C311CD101EBEAF0E08AE001906D
:102BD0000D928150E1F7F201E60DF71D1082882475
:102BE0009924D2018C91803309F490C0B5E06B1622
:102BF00071040CF47CC0E4E0CE2ED12CF601EE0F73
:102C0000FF1FE20DF31D208131818B2D942FB9011F
:102C10000E9494236A30710598F4E4E0CE16D10442
:102C200009F46AC0F6013196EE0FFF1FE20DF31DA5
:102C3000608171818B2D942F0E949423B82E492F8F
:102C4000D7FC3CC08601015010407801EE0CFF1CFF
:102C5000E20CF31CF301EC19FD093197E40DF51DAD
:102C600090E2D92E1AC08114910401F52230310569
:102C7000E8F0D082319617FD21C08B2D942FB90139
:102C80000E949423B82E492FD7012D913C918EEFAD
:102C90009FEFE80EF91E015010408B2D942FB901C3
:102CA0000E949423CB0161157105E9F2805D808358
:102CB00081E0882E912C319617FFDFCFC2012A9632
:102CC0000FB6F894DEBF0FBECDBFCF91DF911F913D
:102CD0000F91FF90EF90DF90CF90BF909F908F90DB
:102CE0007F906F905F904F903F902F900895630179
:102CF0000894C108D10882CF29853A858B2D942F5D
:102D0000B9010E949423B82E492F9CCFF1E08F2E59
:102D1000912C6CCFDC01AB018C91882371F060E0C9
:102D200070E06F5F7F4FFD01E60FF71F8081882302
:102D3000C1F7CD010E94C215089560E070E0F9CF9F
:102D4000089508950895CF92DF92EF92FF920F9326
:102D50001F93D82EC92E8B01A82FB92FFD010190EA
:102D60000020E9F7EA1BFB0BCF014A960E94A41D45
:102D7000F82EE92E8DB79EB708970FB6F8949EBF30
:102D80000FBE8DBFEDB7FEB73196ADB7BEB711968A
:102D9000FC92E18285EB90E093838283D482C582AA
:102DA000178306830E943D1F8DB79EB708960FB606
:102DB000F8949EBF0FBE8DBF86E96F2D7E2D0E94B9
:102DC000E8161F910F91FF90EF90DF90CF9008953C
:102DD0001F93CF93DF93182FEB01863930F48FECDC
:102DE00090E06AE870E00E94A3161093D700D09399
:102DF000A601C093A501DF91CF911F910895809105
:102E0000D70090E0FC013197E93CF10580F4E953EB
:102E1000FF4FEE0FFF1F0590F491E02D099480E025
:102E200090E060E070E043EE5CE00E94A61408953C
:102E300080E090E060E070E046EC5CE00E94A61468
:102E4000089580E090E060E070E048E95CE00E9476
:102E5000A614089580E090E060E070E04FE35CE04D
:102E60000E94A614089580E090E060E070E04BE1DD
:102E70005CE00E94A614089580E090E060E070E0BD
:102E80004AEC5BE00E94A614089580E090E060E0C8
:102E900070E04BE55BE00E94A614089580E090E0AE
:102EA00060E070E04EED5AE00E94A614089580E0C4
:102EB00090E060E070E04AEA5AE00E94A6140895AB
:102EC00080E090E060E070E048E45AE00E94A614E0
:102ED000089580E090E060E070E040ED59E00E94ED
:102EE000A614089580E090E060E070E048E959E0C1
:102EF0000E94A614089580E090E060E070E04FE347
:102F000059E00E94A614089580E090E060E070E02F
:102F10004CEE58E00E94A614089580E090E060E036
:102F200070E040ED58E00E94A614089580E090E023
:102F300060E070E040E858E00E94A614089580E048
:102F400090E060E070E046E158E00E94A614089529
:102F500080E090E060E070E040EB57E00E94A61453
:102F6000089580E090E060E070E041E757E00E9463
:102F7000A614089580E090E060E070E043E357E03D
:102F80000E94A614089580E090E060E070E044E0C4
:102F900057E00E94A614089580E090E060E070E0A1
:102FA00047ED56E00E94A614089580E090E060E0AE
:102FB00070E04DE956E00E94A614089580E090E08C
:102FC00060E070E049E856E00E94A614089580E0B1
:102FD00090E060E070E047E756E00E94A614089594
:102FE00080E090E060E070E04CE256E00E94A614C1
:102FF000089580E090E060E070E04CEF55E00E94C2
:10300000A614089580E090E060E070E04DEC55E09B
:103010000E94A614089580E090E060E070E044E62D
:1030200055E00E94A61408950E94CA128091D7000C
:103030008659823318F00E94FF1608954091A50129
:103040005091A60180E090E060E070E00E9485155C
:103050008091A5019091A6010E94981D1092A60151
:103060001092A50108951F93182F8093D70081E037
:103070008093A701812F0E94B91B8AE090E00E94F3
:10308000A41DFC0182E680831183CF010E94210AE6
:103090001F9108958091AD01813011F020E02EC084
:1030A0002091AE019091AF01992329F4A1E0B0E005
:1030B000E0E0F0E017C08091B0018093AE01909302
:1030C000AD019091B101992349F08091B2018093B3
:1030D000B0019093AF011092B10110C0A2E0B0E036
:1030E000E1E0F0E0EE0FFF1FE355FE4FAA0FBB1F1C
:1030F000A355BE4F11968C9181831082822F089523
:103100008091AD01823011F020E02EC02091AE01FF
:103110009091AF01992329F4A1E0B0E0E0E0F0E064
:1031200017C08091B0018093AE019093AD01909152
:10313000B101992349F08091B2018093B00190933D
:10314000AF011092B10110C0A2E0B0E0E1E0F0E008
:10315000EE0FFF1FE355FE4FAA0FBB1FA355BE4F37
:1031600011968C9181831082822F089585B7886093
:1031700085BF8BB780688BBFA89A939A089588ED16
:1031800090E09093FE008093FD008CEF91E090938F
:1031900000018093FF008091A8019091A90123E094
:1031A000893E920728F01092AA011092AB0108956F
:1031B00001969093A9018093A80108950F931F93FE
:1031C000182F062F882381F18BE090E00E94A41D28
:1031D000FC0180E6808311830283CF010E94210AD3
:1031E0009091AF01992319F4E0E0F0E017C08091CD
:1031F000B0018093AE019093AD019091B1019923FC
:1032000059F08091B2018093B0019093AF01109377
:10321000B1010093B20108C0E1E0F0E0EE0FFF1F42
:10322000E355FE4F108301831F910F9108959091F4
:10323000AC01992309F0D3C090E0FC013197E03F45
:10324000F10508F006C1E057FE4FEE0FFF1F059095
:10325000F491E02D099481E06DE3F3C082E061E038
:10326000F0C082E062E0EDC081E061E5EAC081E0AB
:1032700067E5E7C081E065E4E4C081E062E5E1C0C4
:1032800081E064E5DEC081E069E5DBC081E065E501
:10329000D8C081E069E4D5C081E06FE4D2C081E0AC
:1032A00060E5CFC081E06BE5CCC081E06DE5C9C0D1
:1032B00081E06CE5C6C082E063E0C3C081E061E408
:1032C000C0C081E063E5BDC081E064E4BAC081E0D4
:1032D00066E4B7C081E067E4B4C081E068E4B1C0EF
:1032E00081E06AE4AEC081E06BE4ABC081E06CE4F5
:1032F000A8C081E06BE3A5C081E067E2A2C081E0E5
:103300006AE59FC081E068E59CC081E063E499C004
:1033100081E066E596C081E062E493C081E06EE4FE
:1033200090C081E06DE48DC081E06CE28AC081E0F4
:1033300060E287C082E065E084C081E060E381C034
:1033400081E061E37EC081E062E37BC081E063E312
:1033500078C081E064E375C081E065E372C081E01C
:1033600066E36FC081E067E36CC081E068E369C039
:1033700081E069E366C081E06DE263C081E06EE2F6
:1033800060C081E06AE25DC081E06BE25AC082E029
:103390006BE057C082E06CE054C082E06DE051C049
:1033A00082E06EE04EC082E06FE04BC082E060E100
:1033B00048C082E061E145C082E062E142C082E053
:1033C00063E13FC082E064E13CC082E065E139C076
:1033D00082E066E136C080EE37C080EF35C0903EB7
:1033E000B1F5823701F1833760F48A3529F18B35E5
:1033F00018F48A3471F523C08B36C1F0813749F552
:103400000CC0853769F0863718F4843711F511C080
:10341000803ED1F0803FE9F417C082E066E011C041
:1034200082E067E00EC082E068E00BC082E069E005
:1034300008C082E06AE005C082E064E002C081E08A
:103440006FE20E94DE1808958093AC0108951092F7
:10345000AC0108951F920F920FB60F9211242F9373
:103460003F934F935F936F937F938F939F93AF930C
:10347000BF93EF93FF931092A9011092A80120919E
:10348000AA01822F81508830A0F483B390E081702C
:103490009070332727FD30952150304002C0880FAF
:1034A000991F2A95E2F72091AB01282B2093AB01BD
:1034B0000BC02A3049F48FEF8093AA018091AB01B1
:1034C0000E9417191092AB018091AA018F5F80931F
:1034D000AA01FF91EF91BF91AF919F918F917F9141
:1034E0006F915F914F913F912F910F900FBE0F9071
:1034F0001F90189585B38E6F85BB8EEF8093B301B7
:103500000895FF920F931F93CF93DF93F3B283EE4F
:1035100090E09093FE008093FD008DE190E0909309
:1035200000018093FF008091B3018F25C1E0D0E0BE
:10353000082F10E0C8010C2E02C0959587950A94BB
:10354000E2F780FF33C08091B30190E00C2E02C0FF
:10355000959587950A94E2F780FF28C0C430C9F09A
:10356000C53038F4C23079F0C33080F4C130F1F4A2
:1035700007C0C630A1F0C63078F0C730B9F412C029
:1035800082E066E111C082E063E10EC082E065E1A5
:103590000BC082E067E008C082E068E005C082E01E
:1035A00064E002C082E065E00E94DE182196C83027
:1035B000D10509F0BFCFF092B301DF91CF911F91F8
:1035C0000F91FF9008951092B5011092B4012FE071
:1035D00088E190E00FB6F894A89581BD0FBE21BD9B
:1035E00008950F931F93DF93CF93CDB7DEB72A973C
:1035F0000FB6F894DEBF0FBECDBF8091B40190919D
:10360000B50197FD5EC023E18838920734F4019636
:103610009093B5018093B40154C081E00E9471136E
:1036200086E29DE00E941A130E94581281E00E94D7
:1036300071138CE59DE00E941A138DEE90E00E94BC
:1036400028138091FD009091FE000E9428138DEEBA
:1036500090E00E94281300D000D000D0EDB7FEB754
:1036600031968E010F5F1F4FADB7BEB712961C93F8
:103670000E9311978FEE90E0938382838091FF00E9
:1036800090910001958384830E943D1F8DB79EB762
:1036900006960FB6F8949EBF0FBE8DBFC8010E945C
:1036A0002813A89520E030E040ED57E0CA010197CB
:1036B000F1F7A8952F5F3F4F9BE0283B3907B1F703
:1036C000FFCF2A960FB6F894DEBF0FBECDBFCF91C5
:1036D000DF911F910F9108958093B60108950F9384
:1036E0001F938091B60180FF27C00E94931D00D0D8
:1036F00000D000D0EDB7FEB731960AEB11E0ADB7C0
:10370000BEB712961C930E93119721E031E03383DC
:103710002283958384830E943D1F8DB79EB70696B2
:103720000FB6F8949EBF0FBE8DBF80E090E064E2BC
:1037300070E0A8010E9485151F910F91089586E001
:1037400091E09093FE008093FD0080E690E09093DE
:1037500000018093FF008091B701833320F00E9425
:103760006F1B1092B7018091B7018F5F8093B701F3
:1037700008950F931F93282F8091B6018695869503
:10378000869580FF25C000D000D000D0EDB7FEB7F1
:1037900031960AEB11E0ADB7BEB712961C930E93AB
:1037A000119780E191E093838283248315820E94A4
:1037B0003D1F8DB79EB706960FB6F8949EBF0FBEFD
:1037C0008DBF80E090E060E270E0A8010E94851566
:1037D0001F910F910895EF92FF920F931F93809185
:1037E000B601869580FFA9C00E94BF088C018DB7E5
:1037F0009EB748970FB6F8949EBF0FBE8DBFEDB72A
:10380000FEB731968AEBE82E81E0F82EADB7BEB751
:103810001296FC92EE92119785E191E09383828358
:10382000D8018C918483158211968C91119786838F
:10383000178212968C9112978087118613968C911D
:1038400013978287138614968C9114978487158614
:1038500015968C9115978687178616968C911697D4
:10386000808B118A17968C911797828B138A1896E2
:103870008C911897848B158A19968C91868B178A50
:103880000E943D1F8DB79EB748960FB6F8949EBF15
:103890000FBE8DBF82E090E060E070E0A7010E9463
:1038A0008515ADB7BEB754970FB6F894BEBF0FBE1F
:1038B000ADBFEDB7FEB731961296FC92EE9211971E
:1038C0008DE391E093838283D8011A968C911A97A5
:1038D000848315821B968C911B97868317821C9676
:1038E0008C911C97808711861D968C911D978287DD
:1038F00013861E968C911E97848715861F968C9131
:103900001F978687178650968C915097808B118AC7
:1039100051968C91828B138A0E943D1F8DB79EB762
:1039200044960FB6F8949EBF0FBE8DBF83E090E023
:1039300060E070E0A7010E9485151F910F91FF9034
:10394000EF9008950895C79A0895C7980895EF9243
:10395000FF920F931F937A018B010E94A711C80158
:10396000B7010E9474111F910F91FF90EF9008957D
:10397000EF92FF920F931F937A018B010E94E80F41
:10398000C801B7010E94B50F1F910F91FF90EF90F2
:1039900008950F931F93CF93DF930E94930EEC0132
:1039A0008091660190916701C817D907D1F18DB751
:1039B0009EB708970FB6F8949EBF0FBE8DBFEDB7A8
:1039C000FEB731960AEB11E0ADB7BEB712961C9365
:1039D0000E9311978DE591E093838283CE0164E687
:1039E00070E00E94942375836483CE0164E670E0E6
:1039F0000E949423978386830E943D1F8DB79EB7B4
:103A000008960FB6F8949EBF0FBE8DBF81E090E080
:103A100062E270E0A8010E948515D0936701C0930F
:103A200066010E944D10EC01809164019091650146
:103A3000C817D907C1F1ADB7BEB718970FB6F8943C
:103A4000BEBF0FBEADBFEDB7FEB731960AEB11E0BA
:103A500012961C930E9311978DE591E093838283C8
:103A6000CE016AE070E00E94942375836483CE01E6
:103A70006AE070E00E949423978386830E943D1F32
:103A80008DB79EB708960FB6F8949EBF0FBE8DBF38
:103A900082E090E062E270E0A8010E948515D09378
:103AA0006501C0936401DF91CF911F910F9108953B
:103AB0000F931F930E94CA120AEB11E0C8016BE733
:103AC0007DE00E94CA1EAC0181E090E060E070E001
:103AD0000E948515C8016DE87DE00E94CA1EAC01F8
:103AE00081E090E069E170E00E948515C80163E91A
:103AF0007DE00E94CA1EAC0182E090E069E170E0C6
:103B00000E94851581E090E065E270E04EE20E943F
:103B1000341382E090E065E270E04EE20E943413DC
:103B20001F910F9108958091B8019091B901089566
:103B30000E94691E8091B8019091B90101979093FC
:103B4000B9018093B8010895CF93DF930E94BC1D03
:103B5000EC01009721F488E50E94331809C0809198
:103B6000B8019091B90101969093B9018093B80181
:103B7000CE01DF91CF910895CF93DF93BC018230C6
:103B8000910510F462E070E0A091BA03B091BB031C
:103B9000ED01E0E0F0E040E050E021C08881998153
:103BA0008617970769F48A819B81309719F0938370
:103BB000828304C09093BB038093BA03FE0134C098
:103BC0006817790738F44115510519F084179507DE
:103BD00008F4AC01FE018A819B819C01E9012097D8
:103BE000E9F641155105A9F1CA01861B970B049707
:103BF00008F4BA01E0E0F0E02AC08D919C911197A1
:103C000084179507F9F46417750781F412968D915E
:103C10009C911397309719F09383828304C09093FB
:103C2000BB038093BA03FD0132964FC0CA01861BC5
:103C3000970BFD01E80FF91F6193719302978D9324
:103C40009C9343C0FD01828193819C01D90110970F
:103C5000A1F68091B8039091B903892B41F480912A
:103C60006A0190916B019093B9038093B8034091DE
:103C70006C0150916D014115510541F44DB75EB78E
:103C80008091680190916901481B590B2091B803FC
:103C90003091B90324173507B0F4CA01821B930B86
:103CA0008617970780F0AB014E5F5F4F841795072B
:103CB00050F0420F531F5093B9034093B803F901DA
:103CC0006193719302C0E0E0F0E0CF01DF91CF910A
:103CD0000895CF93DF93009709F450C0EC01229729
:103CE0001B821A82A091BA03B091BB03109709F10D
:103CF00040E050E0AC17BD0708F1BB83AA83FE018A
:103D000021913191E20FF31FAE17BF0779F48D9126
:103D10009C911197280F391F2E5F3F4F39832883BD
:103D200012968D919C9113979B838A83411551051F
:103D300071F4D093BB03C093BA0320C012968D9147
:103D40009C911397AD01009711F0DC01D3CFFA01DC
:103D5000D383C28321913191E20FF31FCE17DF0786
:103D600069F488819981280F391F2E5F3F4FFA012E
:103D7000318320838A819B8193838283DF91CF91DA
:103D80000895FB01DC0102C005900D9241505040A6
:103D9000D8F70895FB01DC0105900D920020E1F7B2
:103DA0000895FC0105900020E9F7809590958E0F0D
:103DB0009F1F0895A0E0B0E0E0EEFEE10C94B22376
:103DC0007C01EB018A01690109C0CE012196F6014F
:103DD0000995F70181937F010150104001151105EC
:103DE000A1F7CDB7DEB7E8E00C94CE23DF92EF92D7
:103DF000FF920F931F937B018C01FB010995D82E35
:103E0000C8010196F7010995982F8D2D1F910F91EB
:103E1000FF90EF90DF900895A0E0B0E0E2E1FFE1D5
:103E20000C94B223EC017B018A01690109C0CE0127
:103E30002196F70161917F01F6010995015010402B
:103E400001151105A1F7CDB7DEB7E8E00C94CE233C
:103E5000DF92EF92FF920F931F93D72E7A018C017E
:103E6000FA010995C80101966D2DF70109951F9179
:103E70000F91FF90EF90DF900895AEE0B0E0E3E4A3
:103E8000FFE10C94B6230D891E8986E08C831A838A
:103E900009838FEF9FE79E838D839E01275E3F4FAF
:103EA000CE0101966F89788DA9010E94611F2F8133
:103EB0003885020F131FF80110822E96E4E00C944F
:103EC000D223ABE0B0E0E7E6FFE10C94A8233C018D
:103ED0002B015A01FC0117821682838181FD03C0E8
:103EE0006FEF7FEFC6C19AE0892E1E010894211C56
:103EF000311CF3012381F20123FD859123FF819180
:103F00002F01882309F4B2C1853239F423FD85914C
:103F100023FF81912F01853229F490E0B3010E94A3
:103F20005421E7CF982FFF24EE249924FFE1FF15B9
:103F3000D0F09B3269F09C3228F4903259F09332E1
:103F400091F40EC09D3249F0903369F441E024C0F1
:103F500052E0F52A84E0F82A28C098E0F92A25C022
:103F6000E0E1FE2A22C0F7FC29C0892F80538A3065
:103F700070F4F6FE05C0989C902C1124980E15C084
:103F8000E89CE02C1124E80EF0E2FF2A0EC09E32DD
:103F900029F4F6FC6BC140E4F42A07C09C3619F4FE
:103FA00050E8F52A02C0983649F4F20123FD9591B4
:103FB00023FF91912F01992309F0B8CF892F8554C0
:103FC000833018F08052833038F444E050E0A40E7F
:103FD000B51E5FE359830FC0933631F0933779F004
:103FE000933509F056C020C0F5018081898342E0F5
:103FF00050E0A40EB51E610101E010E012C0F50111
:10400000C080D180F6FC03C06FEF7FEF02C0692D46
:1040100070E042E050E0A40EB51EC6010E944921A6
:104020008C015FE7F52214C0F501C080D180F6FC59
:1040300003C06FEF7FEF02C0692D70E042E050E0F7
:10404000A40EB51EC6010E943E218C0150E8F52A3F
:10405000F3FE07C01AC080E290E0B3010E94542131
:10406000EA948E2D90E008171907A8F30EC0F60108
:10407000F7FC8591F7FE81916F0190E0B3010E94FA
:104080005421E110EA94015010400115110579F70F
:10409000EAC0943611F0993669F5F7FE08C0F501CB
:1040A000208131814281538184E090E00AC0F50192
:1040B000808191819C01442737FD4095542F82E0F7
:1040C00090E0A80EB91E9FE6F92257FF09C050954F
:1040D0004095309521953F4F4F4F5F4FE0E8FE2AC6
:1040E000CA01B901A1012AE030E00E948021D82E46
:1040F000D21840C0953729F41F2D1F7E2AE030E0EA
:104100001DC01F2D197F9F3661F0903720F4983520
:1041100009F0ACC00FC0903739F0983709F0A6C04D
:1041200004C028E030E00AC0106114FD146020E1F2
:1041300030E004C014FD166020E132E017FF08C033
:10414000F501608171818281938144E050E008C073
:10415000F50180819181BC0180E090E042E050E077
:10416000A40EB51EA1010E948021D82ED2188FE77F
:10417000F82EF122F6FE0BC05EEFF522D91438F4CA
:10418000F4FE07C0F2FC05C08FEEF82202C01D2D20
:1041900001C0192DF4FE0DC0FE01ED0DF11D808151
:1041A000803319F499EEF92208C01F5FF2FE05C0B2
:1041B00003C08F2D867809F01F5F0F2DF3FC14C00C
:1041C000F0FE0FC01E1510F09D2C0BC09D2C9E0CF8
:1041D000911A1E2D06C080E290E0B3010E94542186
:1041E0001F5F1E15C0F304C01E1510F4E11A01C0B4
:1041F000EE2404FF0FC080E390E0B3010E9454213D
:1042000002FF1DC001FD03C088E790E00EC088E5F5
:1042100090E00BC0802F867891F001FF02C08BE206
:1042200001C080E2F7FC8DE290E0B3010E945421CE
:1042300006C080E390E0B3010E9454219A94D914FF
:10424000C0F3DA94F101ED0DF11D808190E0B3012E
:104250000E945421DD20A9F706C080E290E0B3015E
:104260000E945421EA94EE20C1F743CEF301668107
:104270007781CB012B96E2E10C94C423FC010590DD
:10428000615070400110D8F7809590958E0F9F1F58
:104290000895FC016150704001900110D8F780959D
:1042A00090958E0F9F1F08950F931F93CF93DF93C9
:1042B0008C01EB018B8181FF1BC082FF0DC02E8121
:1042C0003F818C819D812817390764F4E881F98149
:1042D0000193F983E88306C0E885F985802F099565
:1042E000892B31F48E819F8101969F838E8302C03A
:1042F0000FEF1FEFC801DF91CF911F910F9108952C
:10430000FA01AA27283051F1203181F1E8946F9306
:104310006E7F6E5F7F4F8F4F9F4FAF4FB1E03ED0AC
:10432000B4E03CD0670F781F891F9A1FA11D680F4A
:10433000791F8A1F911DA11D6A0F711D811D911D7D
:10434000A11D20D009F468943F912AE0269F1124F2
:104350003019305D3193DEF6CF010895462F477056
:10436000405D4193B3E00FD0C9F7F6CF462F4F70B1
:10437000405D4A3318F0495D31FD4052419302D00F
:10438000A9F7EACFB4E0A6959795879577956795B5
:10439000BA95C9F700976105710508959B01AC01B5
:1043A0000A2E06945795479537952795BA95C9F7DC
:1043B000620F731F841F951FA01D0895D9D008F4A4
:1043C00081E008950CD00FC107D140F0FED030F04D
:1043D00021F45F3F19F0F0C0511139C1F3C014D17D
:1043E00098F39923C9F35523B1F3951B550BBB27BC
:1043F000AA2762177307840738F09F5F5F4F220F69
:10440000331F441FAA1FA9F333D00E2E3AF0E0E861
:1044100030D091505040E695001CCAF729D0FE2FAD
:1044200027D0660F771F881FBB1F2617370748073F
:10443000AB07B0E809F0BB0B802DBF01FF279358F5
:104440005F4F2AF09E3F510568F0B6C000C15F3F44
:10445000ECF3983EDCF3869577956795B795F795DD
:104460009F5FC9F7880F911D9695879597F90895D5
:10447000E1E0660F771F881FBB1F62177307840771
:10448000BA0720F0621B730B840BBA0BEE1F88F780
:10449000E095089504D06894B111D9C00895BCD0B6
:1044A00088F09F5790F0B92F9927B751A0F0D1F01D
:1044B000660F771F881F991F1AF0BA95C9F712C0A7
:1044C000B13081F0C3D0B1E00895C0C0672F782F1C
:1044D0008827B85F39F0B93FCCF386957795679513
:1044E000B395D9F73EF490958095709561957F4F7F
:1044F0008F4F9F4F0895E89409C097FB3EF4909525
:104500008095709561957F4F8F4F9F4F9923A9F0AC
:10451000F92F96E9BB279395F6958795779567953B
:10452000B795F111F8CFFAF4BB0F11F460FF1BC07F
:104530006F5F7F4F8F4F9F4F16C0882311F096E912
:1045400011C0772321F09EE8872F762F05C06623C0
:1045500071F096E8862F70E060E02AF09A95660F79
:10456000771F881FDAF7880F9695879597F9089532
:10457000990F0008550FAA0BE0E8FEEF1616170674
:10458000E807F907C0F012161306E407F50798F0DC
:10459000621B730B840B950B39F40A2661F0232BF5
:1045A000242B252B21F408950A2609F4A140A69571
:1045B0008FEF811D811D089597F99F6780E870E056
:1045C00060E008959FEF80EC089500240A94161689
:1045D000170618060906089500240A9412161306F1
:1045E000140605060895092E0394000C11F488237F
:1045F00052F0BB0F40F4BF2B11F460FF04C06F5F9B
:104600007F4F8F4F9F4F089557FD9058440F551F70
:1046100059F05F3F71F04795880F97FB991F61F044
:104620009F3F79F087950895121613061406551FBB
:10463000F2CF4695F1DF08C0161617061806991F27
:10464000F1CF86957105610508940895E894BB271C
:1046500066277727CB0197F908958ADF08F48FEF53
:1046600008950BD0C0CFB1DF28F0B6DF18F0952346
:1046700009F0A2CFA7CF1124EACFC6DFA0F3959F00
:10468000D1F3950F50E0551F629FF001729FBB2739
:10469000F00DB11D639FAA27F00DB11DAA1F649FE5
:1046A0006627B00DA11D661F829F2227B00DA11D98
:1046B000621F739FB00DA11D621F839FA00D611D1E
:1046C000221F749F3327A00D611D231F849F600D3F
:1046D000211D822F762F6A2F11249F5750408AF078
:1046E000E1F088234AF0EE0FFF1FBB1F661F771F04
:1046F000881F91505040A9F79E3F510570F05CCF44
:10470000A6CF5F3FECF3983EDCF3869577956795EF
:10471000B795F795E7959F5FC1F7FE2B880F911D21
:104720009695879597F90895AA1BBB1B51E107C081
:10473000AA1FBB1FA617B70710F0A61BB70B881F31
:10474000991F5A95A9F780959095BC01CD010895C0
:104750002F923F924F925F926F927F928F929F9291
:10476000AF92BF92CF92DF92EF92FF920F931F937F
:10477000CF93DF93CDB7DEB7CA1BDB0B0FB6F89430
:10478000DEBF0FBECDBF09942A88398848885F8470
:104790006E847D848C849B84AA84B984C884DF80E1
:1047A000EE80FD800C811B81AA81B981CE0FD11DC5
:1047B0000FB6F894DEBF0FBECDBFED010895F8949B
:0247C000FFCF29
:1047C2006D61696E2E630053746172740043656B90
:1047D200616E69206E612073706F6A656E692E2E3C
:1047E2002E0075736172742E6300FFFFFFFFFFFFDF
:1047F200F401E093040064006400000001640064BA
:10480200000000014E554C4C00040001000A0064F7
:1048120000E80310274572726F72203135303A205A
:1048220061737365727428290A25730A2569006504
:1048320072726F722E6300FF6B6579626F617264D0
:104842002E6300627574746F6E732E6300200025F0
:1048520069007761746368646F672E6300F2001900
:10486200004D25336400737973696E666F2E6300A1
:1048720045253364002532782C2532782C25327870
:104882002C2532782C2532782C2532782C2532783A
:104892002C2532782C2532782C2532780025327856
:1048A2002C2532782C2532782C2532782C2532781A
:1048B2002C2532782C2532782C253278002532644A
:0E48C2002E256400FFFFFFFF2000BC03000056
:00000001FF
