:1000000012C02CC02BC02AC029C028C063C026C083
:1000100025C024C023C01BC3A8C220C01FC01EC04F
:100020001DC01CC01BC011241FBECFE5D4E0DEBF25
:10003000CDBF10E0A0E6B0E0E4EEFFE002C0059026
:100040000D92A439B107D9F711E0A4E9B0E001C0DD
:100050001D92A039B107E1F721D0C3C7D1CF89E004
:100060008EBD80E189BF81E08BBD80E98ABD0895A6
:1000700080B38695869580FD10C0C3D580E29EE44E
:100080000197F1F7E0E2FEE403C0CF010197F1F739
:1000900080B38695869580FFF8CF089520E030E004
:1000A000E0EDF7E0CF010197F1F72F5F3F4F2436E6
:1000B0003105C1F7D4DF80E48093A20069D32DD04D
:1000C00083E390E04FD1A9D5789481E0BDD3D4D01B
:1000D000CFDFFDCF1F920F920FB60F9211242F93F7
:1000E0003F934F935F936F937F938F939F93AF93C0
:1000F000BF93EF93FF93FBD3FF91EF91BF91AF912C
:100100009F918F917F916F915F914F913F912F912F
:100110000F900FBE0F901F901895EDEAF0E011922E
:10012000119281E0ED34F807D1F784B3876084BB86
:1001300095B3987F809194008770982B95BB8FEF33
:1001400088BB82B3806C82BB0895CF92DF92EF921E
:10015000FF920F931F93CF93DF93809199009AE0C2
:10016000899FE0011124809162008823A1F130D39E
:100170008C01BE01882777FD8095982F21D620E03D
:1001800030E04AEF54E4B9D56B017C01B80188270F
:1001900077FD8095982F14D617FF05C020E030E03A
:1001A00040E857E468D520E030E040E05FE382D6E5
:1001B0009B01AC0160E070E08AEF94E45BD520E045
:1001C00030E048E452E456D59B01AC01C701B601CA
:1001D00071D6D9D5EB01CE01DF91CF911F910F914F
:1001E000FF90EF90DF90CF900895AFDF9C01432FF9
:1001F00055278091A500821721F48091A6008417CD
:1002000039F02093A5004093A60082EA90E01FD128
:10021000089540E050E020E030E0EDEAF0E0808139
:100220009181C3971CF4522F20E00DC04F5F222311
:1002300011F0522F07C03F5F513011F050E002C063
:1002400031504F5F21E01192119281E0ED34F807B7
:1002500031F7323048F44093990081E090E0909378
:1002600098008093970006C0109298001092970013
:1002700040939900BADF0895CF93DF938091600097
:1002800090916100009709F065C086B3A0B3A29574
:10029000A695A695A370B09194004B2F5527FA010F
:1002A000EE0FFF1FE355FF4F60E070E0C82FDD2722
:1002B0009E01062E02C0359527950A94E2F721701B
:1002C000307080819181820F931F918380836F5F53
:1002D0007F4F70966830710559F7440F551FFA012A
:1002E000E35DFE4F2A2F332721703070808191818A
:1002F000820F931F91838083FA01E35CFE4FA695E2
:10030000808191818A0F911D91838083B73020F481
:10031000BF5FB093940014C0109294008091950038
:10032000909196008436910534F40196909396004E
:100330008093950005C0109296001092950069DF99
:1003400085B3887F909194009770892B85BB85E059
:1003500090E001C001979093610080936000DF916D
:10036000CF9108958B9A292F332720BD89B988E929
:100370008AB98EE880BDE4E7F1E0119281E0E638C9
:10038000F807D9F7EDE4F1E0119281E0EF35F807D5
:10039000D9F70895CF93DF93DC018FEF80934D0160
:1003A000ED01EEE4F1E08991819381E0E935F80710
:1003B000D1F780914D019C91892780935901ED01DE
:1003C00020E030E0C90162E070E0D0D5FB01E35BE2
:1003D000FE4F89819A81892785872E5F3F4F22961C
:1003E0002A30310579F7DF91CF910895EF92FF928E
:1003F0000F931F93CF93DF938C01FC0180818F3F7C
:10040000E9F4E801EE24FF242A818B812827C70123
:1004100062E070E0ABD5635FF801E60FF11D80810B
:10042000281761F482E090E0E80EF91E22969AE027
:10043000E916F10449F781E090E002C080E090E025
:10044000DF91CF911F910F91FF90EF900895CF937F
:10045000DF93AC0180917D00882309F445C0A09111
:100460007900B0917A008FEFAF3FB80751F4109246
:100470007A00109279005093600140935F01559A81
:1004800033C0CFE5D1E0FA019081E881F981808124
:10049000891751F12296F1E0C936DF07B1F7A43090
:1004A000B10571F09D010FC0F901EE0FFF1FE15A78
:1004B000FE4F80819181892B61F02430310519F440
:1004C00020E030E002C02F5F3F4F2A173B0761F763
:1004D00003C05183408308C0AA0FBB1FA15ABE4F5F
:1004E00083E690E08D939C93DF91CF910895E09106
:1004F0007900F0917A008FEFEF3FF807A9F1EE0F46
:10050000FF1FE15AFE4F8081918144DF8091790085
:1005100090917A00FC01EE0FFF1FE15AFE4F11820D
:10052000108210927800109277008430910529F49F
:1005300010927A001092790005C0019690937A008B
:1005400080937900E0917900F0917A00EE0FFF1F1F
:10055000E15AFE4F80819181892B31F48FEF9FEF1B
:1005600090937A008093790008951F920F920FB6AE
:100570000F9211242F933F934F935F936F937F9329
:100580008F939F93AF93BF93EF93FF932091770047
:10059000309178008FEF2F3F380749F4A8DF209182
:1005A0007700309178008FEF2F3F380751F1939A01
:1005B0002231310569F0F901E35BFE4F80818CB98E
:1005C000C901019690937800809377004297E9F4EF
:1005D00080917B0090917C00009731F0019790937F
:1005E0007C0080937B0011C084EF91E090937C00AD
:1005F00080937B008FEF9FEF90937800809377003C
:1006000004C082B3807F82BB5598FF91EF91BF9168
:10061000AF919F918F917F916F915F914F913F919A
:100620002F910F900FBE0F901F90189580937D0013
:100630000895E5E7F1E0A9E6B1E081918D9381E0CD
:10064000E038F807D1F789E691E052D008951F927B
:100650000F920FB60F9211242F933F934F935F93F6
:100660006F937F938F939F93AF93BF93EF93FF937A
:100670002CB180917500909176003FEF8F3F9307EA
:1006800059F42F3F29F42093740181E090E01BC0BE
:1006900089E690E0DCDE1BC0FC01EC58FE4F2083B5
:1006A00001969093760080937500429781F484E7D9
:1006B00091E09CDE019711F4BCDF03C08FE690E06F
:1006C000C6DE8FEF9FEF9093760080937500FF91C9
:1006D000EF91BF91AF919F918F917F916F915F91BA
:1006E0004F913F912F910F900FBE0F901F90189533
:1006F000CF93DF93EC018881803109F1813130F4AF
:10070000893069F08A3009F040C007C08331B9F1FF
:100710008631C9F18131C9F523C073D21DC08981E9
:10072000882329F083DF8EE790E091DE2CC081E002
:100730007DDF8EE790E08BDE898178DF26C08981BE
:100740009927982F88272A81820F911D2AD03BD084
:10075000BC0184E090E00BD28EE790E078DE15C01B
:1007600069817727762F6627882777FD8095982FD0
:100770002A81620F711D811D911DB3D1EDCF898139
:1007800080936200E9CF81E05FD0DF91CF9108953F
:10079000AB9A83B3869586958695877080939A00E9
:1007A00008952DE730E0AC01429FC001439F900DBA
:1007B000529F900D112466E070E0C4D37093A100A5
:1007C0006093A00008958091A0009091A1000895E9
:1007D000CF92DF92EF92FF920F931F9360919B0055
:1007E00070919C0080919D0090919E0097FF04C0A5
:1007F00060E070E080E090E0E3D227E137EB41ED8C
:1008000058E358D36B017C010091A0001091A10026
:10081000B801882777FD8095982FD2D217FF05C0A1
:1008200020E030E040E857E426D29B01AC01C7014C
:10083000B60140D3A8D2DC01CB011F910F91FF90EC
:10084000EF90DF90CF900895EF92FF920F931F9358
:10085000CF93DF93E82EBCDFEC0177DCBC012C2FBB
:100860000D2F1127302FF62EA72FBB27E0E0F0E049
:100870008091A6008A1711F0E1E0F0E090E080910D
:10088000A300281391E020E08091A400381321E018
:10089000922B292F332740E050E08091A500F816D5
:1008A00011F041E050E0242B352B40E050E0EE20E9
:1008B00011F041E050E0242B352BE22BF32BEF2BF2
:1008C00079F0C093A3000093A4006093A500A093C7
:1008D000A6001092A7001092A80082EA90E0B7DD6F
:1008E000DF91CF911F910F91FF90EF9008957F922C
:1008F0008F929F92AF92BF92CF92DF92EF92FF9230
:100900000F931F9373B276947694769487E078224F
:1009100000919A000725272D26952695872D8695E7
:1009200028272170802F86959927837090708230B8
:100930009105F9F083309105A9F10197B1F5809106
:100940009B0090919C00A0919D00B0919E0022235D
:10095000D1F00197A109B10980939B0090939C006D
:10096000A0939D00B0939E0010929F0080E06CDFEA
:100970001CC080919B0090919C00A0919D00B09123
:100980009E00222331F30196A11DB11D80939B008F
:1009900090939C00A0939D00B0939E0081E0809373
:1009A0009F00E4CF84E890E052DD00FF8CC080918E
:1009B0009F00813009F087C070FE85C080908F0055
:1009C00090909000A0909100B090920080919B0038
:1009D00090919C00B401681B790B77FF03C0709560
:1009E00061957F4F882777FD8095982FE9D127E182
:1009F00037EB41ED58E35ED26B017C010091A00022
:100A00001091A100B801882777FD8095982FD8D143
:100A100017FF05C020E030E040E857E42CD19B01EF
:100A2000AC01C701B60146D2AED18B019C016B016E
:100A300085E080938601C80160E071E097D2609301
:100A40008701C80160E071E091D280938801109223
:100A5000890110928A0180929B0090929C00A09242
:100A60009D00B0929E0081E0EFDEEE24D7FCE09482
:100A7000FE2CC701B601A4D127E137EB41ED58E3C5
:100A800019D26B017C010091A0001091A100B80166
:100A9000882777FD8095982F93D117FF05C020E018
:100AA00030E040E857E4E7D09B01AC01C701B60154
:100AB00001D220E030E040E251E48FD118161CF45E
:100AC00086E891E0C4DC70929A001F910F91FF902C
:100AD000EF90DF90CF90BF90AF909F908F907F90DE
:100AE0000895CF92DF92EF92FF920F931F9368D1F8
:100AF0006B017C010091A0001091A100B801882732
:100B000077FD8095982F5CD117FF05C020E030E07D
:100B100040E857E4B0D09B01AC0160E070E48CE1A8
:100B200096E4EBD09B01AC01C701B601C3D12BD138
:100B3000AB01BC0140938F005093900060939100F3
:100B40007093920086E090E03DD01F910F91FF904E
:100B5000EF90DF90CF900895DC01E199FECF062E53
:100B60002AD20895DC0115D2802D99270895DC0141
:100B7000E199FECF0B012BD20895DC0117D2CF01F2
:100B80000895CF93DF93CDB7DEB724970FB6F894CF
:100B9000DEBF0FBECDBF19821A821B821C8224E0E9
:100BA000FE013196DC01122EFCD169817A818B81A4
:100BB0009C8124960FB6F894DEBF0FBECDBFDF91A7
:100BC000CF910895CF93DF93CDB7DEB724970FB6BB
:100BD000F894DEBF0FBECDBFDC0149835A836B831F
:100BE0007C83E199FECF84E0FE013196182EF4D18A
:100BF00024960FB6F894DEBF0FBECDBFDF91CF9124
:100C0000089540919B0050919C0060919D007091CF
:100C10009E0080E090E0D6DF089580E090E0B1DFB4
:100C200060939B0070939C0080939D0090939E0026
:100C3000A4E0B0E0BBD1F093A100E093A00086E077
:100C400090E09FDF60938F007093900080939100FD
:100C5000909392008091A0009091A10081519742C1
:100C600040F089EA91E09DDD62EC71E080E090E087
:100C700038DF08955058192EEFD001D0D2C0BA17DE
:100C80006207730784079507B1F188F40EF4109496
:100C90000B2EBA2FA02D062E622F202D072E732F7C
:100CA000302D082E842F402D092E952F502DFF27F3
:100CB0005523B9F0591B49F0573E98F046953795A2
:100CC0002795A795F0405395C9F776F0BA0F621FA4
:100CD000731F841F30F4879577956795B795F0401B
:100CE000939517FA0F2E0895BF1BBB27BA0B620B03
:100CF000730B840BF6CFDEF6DBC0AED001D091C013
:100D0000552359F0992369F09F575F57951B33F48A
:100D100042F4903811F4915805C09BC091589F3F00
:100D200009F4C6C0BB27112462177307840730F487
:100D3000660F771F881FBB1F915098F311D00F9239
:100D40000FD00F920DD0A0E82617370748071B06D3
:100D500009F0A048BA2F602D7F918F91002408954B
:100D6000A0E80024621773078407B10528F0621B0E
:100D7000730B840BB1090A2A660F771F881FBB1FEC
:100D8000A69581F7089597FB73D09F3738F0FEE959
:100D9000F91B982F872F762F6B2F05C086C096954D
:100DA000879577956795F150D0F73EF490958095AB
:100DB000709561957F4F8F4F9F4F0895E89403C0C2
:100DC00097FB0EF4F3DFB62F672F782F892F9EE95C
:100DD000002427C00ED05EF004C00BD026F001C066
:100DE00008D019F020F48FEF089580E0089581E095
:100DF000089597FB092E052600F8689430D0E894F2
:100E000007FC07C0621773078407950721F008F4F1
:100E100000940794989408959A95BB0F661F771FC6
:100E2000881F11249923A1F08823B2F79F3F59F01E
:100E3000BB0F48F421F4002011F460FF04C06F5F81
:100E40007F4F8F4F9F4F881F9795879597F90895EC
:100E50002CC09FEF80EC0895052E092607FA440F59
:100E6000551F5F3F79F0AA27A51708F051E0479575
:100E7000880F991F9F3F31F0BB27B91708F091E009
:100E8000879508959F919F911124E3CF97FB880F39
:100E9000991F9F3F31F0BB27B91708F091E0879564
:100EA00008959F919F911124D4CF66277727882793
:100EB00099270895D1DF01D0B4CF992339F0552374
:100EC00029F09F575F57950F13F49AF1F1CF91587E
:100ED0009F3FE1F3629FA12D0F92BB27639FA00D5F
:100EE000B11DEE27729FA00DB11DEE1FAF93AA2773
:100EF000649FB00DE11D739FB00DE11DAA1F662711
:100F0000829FB00DE11DA61F5527749FE00DA11D06
:100F1000551F839FE00DA11D561F849FA00D511DDD
:100F2000852F7A2F6E2F1F900F9088231AF4939598
:100F300039F48FCF000C111CBB1F661F771F881F51
:100F400001280895AA1BBB1B51E107C0AA1FBB1FA4
:100F5000A617B70710F0A61BB70B881F991F5A9545
:100F6000A9F780959095BC01CD01089597FB092EB6
:100F700007260AD077FD04D0E5DF06D000201AF45A
:100F8000709561957F4F0895F6F7909581959F4FE5
:100F90000895E199FECFBFBBAEBBE09A11960DB2AA
:100FA0000895F7DF01921A94E1F70895F2DFE02D3A
:100FB000F0DFF02D0895E199FECFBFBBAEBB0DBAB7
:100FC00011960FB6F894E29AE19A0FBE0895F3DFF6
:100FD000012CF1DF112408950190EDDF1A94E1F75F
:040FE0000895FFCFA2
:100FE400050001076D7367660002727365320001C4
:100FF4007273653100FFFFFFFFFFFFF40101146FFF
:101004006B20200004697263622020202020006489
:0410140000000000D8
:00000001FF
